:100000000C945E000C9486000C9486000C94860080
:100010000C9486000C9486000C9486000C94860048
:100020000C9486000C9486000C9486000C94860038
:100030000C9486000C9412120C9486000C9486008A
:100040000C9470110C9486000C94E0110C94BA116D
:100050000C9486000C9486000C9486000C94860008
:100060000C9486000C9486000000000024002700F9
:100070002A0000000000250028002B0004040404CE
:100080000404040402020202020203030303030342
:10009000010204081020408001020408102001021F
:1000A00004081020000000080002010000030407FB
:1000B0000000000000000000ED126C1611241FBEAD
:1000C000CFEFD8E0DEBFCDBF13E0A0E0B1E0E8EFB6
:1000D000F8E302C005900D92A43FB107D9F725E0DF
:1000E000A4EFB3E001C01D92AE32B207E1F710E019
:1000F000CDE5D0E004C02197FE010E94CD18CC359B
:10010000D107C9F70E9440140C946F1C0C94000096
:100110002F923F924F925F926F927F928F929F9217
:10012000AF92BF92CF92DF92EF92FF920F931F9305
:10013000CF93DF9300D000D0CDB7DEB71C014B01C9
:100140005A01390127019601227033273A83298306
:1001500033E0C322DD245C834B83CD2851F4680156
:10016000C41AD50A8B819C818C0D9D1D8415950523
:10017000B0F07301E00EF11E4B815C81E614F704D0
:10018000F1F06A01FFEFCF1ADF0A2FEF3FEFB40162
:10019000F70182917F01F1010995A601EFCFEB8074
:1001A000FC808FEFE81AF80A2FEF3FEF4B815C815C
:1001B000B40180E2F1010995FC82EB82D3CF8B81FF
:1001C0009C81800F911F29813A81232BA1F09C01F2
:1001D0002A193B092415350570F4FC013196FA8380
:1001E000E9832FEF3FEFAC01B40180E2F101099503
:1001F00089819A81ECCF0F900F900F900F90DF9133
:10020000CF911F910F91FF90EF90DF90CF90BF9013
:10021000AF909F908F907F906F905F904F903F90A6
:100220002F9008952F923F924F925F926F927F92FC
:100230008F929F92AF92BF92CF92DF92EF92FF92F6
:100240000F931F93CF93DF93CDB7DEB7AF970FB662
:10025000F894DEBF0FBECDBF9AA789A77CA76BA776
:100260005EA74DA7CAA2DBA2ECA25F2C402E1DA365
:10027000322E232EA8A689A22A968EAC9FAC2A974E
:1002800096014E2D5F2D602F712F832D922DA0E0B2
:100290000E94C11809F04CC092FC42C080E38983DF
:1002A000E89484F866246394712C81FC92C0C401A4
:1002B0008170992728962EAD3FAD2897232BA9F062
:1002C000009709F486C038A5311105C094012C703F
:1002D0003327232B51F028964EAD5FAD2897415020
:1002E000510928965FAF4EAF2897E1E0F0E0EC0FA0
:1002F000FD1FE60DF71D830120E3009709F46AC096
:1003000028964EAD5FAD28970417150708F062C018
:100310000032110509F45EC00F5F1F4F2193EDCF2E
:1003200029A1203111F4E89484F8712C612CBDCFFF
:1003300081E485FE81E6AE014F5F5F4F5FA34EA370
:10034000712C612C8A508FA7A9A0B12CC12CD12C63
:10035000E12CF12C00E010E02AA13BA14CA1552D8D
:10036000642D7DA1832D922D0E9420182A3074F5D2
:10037000205D8FEF681A780AEEA1FFA12193FFA3F9
:10038000EEA3A9A0B12CC12CD12CE12CF12C00E0C2
:1003900010E02AA13BA14CA1552D642D7DA1832DF8
:1003A000922D0E9422182AA33BA34CA3552E462E21
:1003B0007DA3382E292EA0E00E94C11809F475CF24
:1003C000F0E26F16710409F0BFCF6FCF5FA5250F64
:1003D000D0CF8301E1E0F0E0EC0FFD1FE00FF11F53
:1003E00080E326962EAD3FAD26970217130738F40B
:1003F0000032110520F40F5F1F4F8193F2CF39A116
:10040000383029F46016710610F4E89484F8C401B9
:1004100080719071892B09F447C092FC25C00115A9
:10042000110511F126964EAD5FAD26974017510785
:1004300039F028968EAD9FAD289708171907A1F4BB
:100440006016710608F099C0C801019759F0E9A13A
:10045000E03109F06EC0025011096816790640F0CB
:100460008C0106C010E000E0F9A1F03109F062C093
:1004700085FC54C00032110540F5E1E0F0E0EC0FDE
:10048000FD1FE00FF11F88E780830F5F1F4F0032D1
:100490001105D8F4E1E0F0E0EC0FFD1FE00FF11FD3
:1004A00080E380830F5F1F4F0032110570F438A581
:1004B000332309F44EC0E1E0F0E0EC0FFD1FE00F44
:1004C000F11F8DE280830F5F1F4F64012896EEAC11
:1004D000FFAC28979E012F5F3F4F4DA55EA56BA5F2
:1004E0007CA589A59AA50E948800AF960FB6F894BE
:1004F000DEBF0FBECDBFDF91CF911F910F91FF9057
:10050000EF90DF90CF90BF90AF909F908F907F90B3
:100510006F905F904F903F902F900895003211059B
:10052000A0F6E1E0F0E0EC0FFD1FE00FF11F88E521
:10053000ABCF8C0129A1223009F0A9CF00321105DF
:1005400020F6E1E0F0E0EC0FFD1FE00FF11F82E686
:100550009BCF82FE08C0E1E0F0E0EC0FFD1FE00F52
:10056000F11F8BE2AFCF83FEB0CFE1E0F0E0EC0F04
:10057000FD1FE00FF11F80E2A5CF49A14031D1F668
:1005800077CF2F923F924F925F926F927F928F928E
:100590009F92AF92BF92CF92DF92EF92FF920F9312
:1005A0001F93CF93DF93CDB7DEB76E970FB6F89456
:1005B000DEBF0FBECDBF09871A872B873C874D87CB
:1005C0005E876F87788B23964EAC5FAC23978C8ABF
:1005D0009D8AAE8ABF8AC88ED98EEA8EFB8E8C8F9A
:1005E00029AD3AAD232B09F49EC00A8B1B8B6B847B
:1005F0007C844A011B01EDADFEADF3FF3EC0E4FD7E
:100600003CC0202F312FA301B401C101A0E00E9402
:10061000C11809F00CF49AC02AE0A22EB12CC12C0A
:10062000D12CE12CF12C00E010E02A893B89A301B8
:10063000B401C1010E94EF17A0E00E94C11899F413
:1006400029AD3AAD215031093AAF29AF2A893B890A
:10065000A301B401C1010E94F1172A8B3B8B3A011F
:100660004B011C01D9CF2A893B89A301B401C101E7
:10067000A0E00E94C11809F469C021968EAD9FAD1B
:100680002197840D951D9E8F8D8F90E24916510400
:1006900008F096C0E9ADFAAD3197FAAFE9AFFFEFD8
:1006A0004F1A5F0A9AE0A92EB12CC12CD12CE12C53
:1006B000F12C00E010E02A893B89A301B401C101BB
:1006C0000E94EF17205DED8DFE8D2193FE8FED8F43
:1006D0002A893B89A301B401C1010E94F1172A8B29
:1006E0003B8B3A014B011C01A0E00E94C11869F646
:1006F0002196EEADFFAD2197E40DF51D80E320E2DC
:100700004216510409F45CC03FEF431A530A29AD65
:100710003AAD2115310509F4DAC081932150310930
:100720003AAF29AFECCF3DAD34FF10C080E24816A0
:10073000510408F045C02196EEADFFAD2197E40DC0
:10074000F51D8EE28083F20131962F0121966EAC69
:100750007FAC2197640C751CF0E24F16510480F5B4
:100760002FEF421A520A8AE0A82EB12CC12CD12CAC
:10077000E12CF12C00E010E02C893D894E895F8945
:10078000688D798D8A8D9B8D0E94EF17205DF30116
:1007900021933F012C893D894E895F89688D798D30
:1007A0008A8D9B8D0E94F1172C8B3D8B4E8B5F8B1E
:1007B000688F798F8A8F9B8FA0E00E94C11861F6A5
:1007C000FDADF1FD29C0F0FF27C02BAD3CAD232BC3
:1007D00019F13C8D311106C08DAD9EAD8C709927FD
:1007E000892B29F08BAD9CAD01979CAF8BAF2196E7
:1007F000EEADFFAD2197E40DF51D80E32BAD3CADD3
:100800004216530648F430E243165104C0F49FEFF9
:10081000491A590A8193F2CFE0E24E16510478F456
:10082000FC8DFF23B1F12196EEADFFAD2197E40DD4
:10083000F51D8DE2808392012F5F3F4F2901CDACE2
:10084000DEACEBACFCAC820121962EAD3FAD219726
:100850004FA958AD6DA97EA98BA99CA90E948800BB
:100860006E960FB6F894DEBF0FBECDBFDF91CF916D
:100870001F910F91FF90EF90DF90CF90BF90AF90BE
:100880009F908F907F906F905F904F903F902F90B0
:1008900008953DAD32FF0CC02196EEADFFAD21971E
:1008A000E40DF51D8BE28083C20101962C01C7CFB8
:1008B0009DAD93FFC4CF2196EEADFFAD2197E40D22
:1008C000F51D80E28083F20131962F01B8CF8EE2D0
:1008D00080833CCF3FB7F89480911804909119041D
:1008E000A0911A04B0911B0426B5A89B05C02F3F08
:1008F00019F00196A11DB11D3FBFBA2FA92F982F46
:100900008827BC01CD01620F711D811D911D42E040
:10091000660F771F881F991F4A95D1F70895AF92E8
:10092000BF92CF92DF92EF92FF920F931F93CF93DC
:10093000DF936C017B018B01040F151FEB015E013E
:10094000AE18BF08C017D10759F06991D601ED91D3
:10095000FC910190F081E02DC6010995892B79F772
:10096000C501DF91CF911F910F91FF90EF90DF9024
:10097000CF90BF90AF900895FC01538D448D252FEB
:1009800030E0842F90E0821B930B541710F0CF9629
:10099000089501970895FC01918D828D981761F05B
:1009A000A28DAE0FBF2FB11D5D968C91928D9F5F72
:1009B0009F73928F90E008958FEF9FEF0895FC0151
:1009C000918D828D981731F0828DE80FF11D858D04
:1009D00090E008958FEF9FEF0895FC01918D228D97
:1009E000892F90E0805C9F4F821B91098F7399271C
:1009F00008958CE194E00E94ED0421E0892B09F434
:100A000020E0822F089580E090E0892B29F00E9459
:100A1000F90481110C9400000895FC01A48DA80F25
:100A2000B92FB11DA35ABF4F2C91848D90E0019630
:100A30008F739927848FA689B7892C93A089B18950
:100A40008C91837080648C93938D848D981306C0F1
:100A50000288F389E02D80818F7D80830895EF9255
:100A6000FF920F931F93CF93DF93EC0181E0888F68
:100A70009B8D8C8D98131AC0E889F989808185FF38
:100A800015C09FB7F894EE89FF896083E889F989DA
:100A900080818370806480839FBF81E090E0DF91DC
:100AA000CF911F910F91FF90EF900895F62E0B8D2F
:100AB00010E00F5F1F4F0F731127E02E8C8D8E11EA
:100AC0000CC00FB607FCFACFE889F989808185FF51
:100AD000F5CFCE010E940D05F1CFEB8DEC0FFD2F70
:100AE000F11DE35AFF4FF0829FB7F8940B8FEA890C
:100AF000FB8980818062CFCFCF93DF93EC01888D1B
:100B00008823B9F0AA89BB89E889F9898C9185FD88
:100B100003C0808186FD0DC00FB607FCF7CF8C9116
:100B200085FFF2CF808185FFEDCFCE010E940D05BC
:100B3000E9CFDF91CF910895089508952F923F92C4
:100B40004F925F926F927F928F929F92AF92BF92DD
:100B5000CF92DF92EF92FF920F931F93CF93DF9389
:100B6000CDB7DEB760970FB6F894DEBF0FBECDBF2E
:100B7000988B8F876A017B013E872D87DB01CA0135
:100B80008827B7FD83959927AA27BB27282F21708F
:100B9000EF85F889208B892B21F0F7FAF094F7F88C
:100BA000F094C701B6010E94B21929833A834B839E
:100BB0005C836D837E838F839887AF85B8892C9300
:100BC00011963C93119712964C93129713965C933F
:100BD000139714966C93149715967C9315978F81A1
:100BE00016968C931697988517969C93ED85FE859F
:100BF000EE0FFF1FEE0FFF1FEC5EFE4F8081918115
:100C0000A281B38189879A87AB87BC878F819885BA
:100C10000E94241A9B01AC01C701B6010E94D3189F
:100C200029853A854B855C850E94E4162B013C01A1
:100C30000E94B219822E232E342E952E5B018C0138
:100C4000AF85B88918962C93189719963C931997E5
:100C50001A964C931A971B965C931B971C966C9351
:100C60001C971D96BC921D971E968C931E971F96DF
:100C70001C930E94241A9B01AC01C301B2010E9483
:100C8000D3182B013C0120E030E040E05FE30E94FC
:100C9000781A18160CF0D0C0282D322D432D592D5E
:100CA000B501C801A1E00E94B51839014A015B01F4
:100CB0008C010E94241A9B01AC0169857A858B8581
:100CC0009C850E947E1618160CF087C0EF85F88967
:100CD0006086718682869386A486B5860687178786
:100CE000ED85FE85EF2B09F05DC0AF85B8891C91BD
:100CF00011966C90119712967C90129713968C9087
:100D0000139714969C9014971596AC901597169679
:100D1000BC90169717960C91212F362D472D582DE4
:100D2000692D7A2D8B2D902F0E94241A9B01AC01E6
:100D3000C701B6010E94D3186B017C0120E030E0AE
:100D400040E05FE30E947E1687FF0AC020E030E0AB
:100D500040E05FE3C701B6010E94781A181614F547
:100D6000212F217030E040E050E060E070E080E052
:100D700090E0A0E00E94C118A9F0212F362D472D48
:100D8000582D692D7A2D8B2D902FA1E00E94B5183A
:100D9000EF85F8892083318342835383648375838D
:100DA000868397838F85988960960FB6F894DEBF07
:100DB0000FBECDBFDF91CF911F910F91FF90EF90AC
:100DC000DF90CF90BF90AF909F908F907F906F906B
:100DD0005F904F903F902F900895AF85B8891896F7
:100DE0001C92189719961C9219971A961C921A978A
:100DF0001B961C921B971C961C921C971D961C926E
:100E00001D971E961C921E971F961C9229813A814F
:100E10004B815C816D817E818F819885A1E00E94EC
:100E2000B518EF85F8892083318342835383648327
:100E300075838683978354CF20E030E040E05FE302
:100E4000C301B2010E947E1681114ACF282D322D96
:100E5000432D592DB501C801A0E00E94C11861F0D1
:100E6000217030E040E050E060E070E080E090E031
:100E70000E94C11809F434CF282D322D432D592D4D
:100E8000B501C801A1E00E94B518AF85B8891896D0
:100E90002C93189719963C9319971A964C931A9776
:100EA0001B965C931B971C966C931C971D967C93CA
:100EB0001D971E968C931E971F969C9311CF2F9271
:100EC0003F924F925F926F927F928F929F92AF92DA
:100ED000BF92CF92DF92EF92FF920F931F93CF9327
:100EE000DF93CDB7DEB7E6970FB6F894DEBF0FBE3F
:100EF000CDBF9CA78BA76DA77EA758AB4FA70A8B2A
:100F00001B8B2C8B3D8BFF8EEE8EDAAAC9AAB9A65D
:100F1000A8A68BAA9CAA2C962FAD2C972DAB2D960C
:100F20003FAD2D973EAB8A899B89AC89BD898827C7
:100F3000B7FD83959927AA27BB278E8B9F8BA88FF8
:100F4000B98F0E891F890115110549F02A893B893E
:100F50004C895D8950582A8B3B8B4C8B5D8B20E0F4
:100F600030E0A9016A897B898C899D890E947E165F
:100F7000312C212C882309F40FC18A899B89AC89E3
:100F8000BD89E7E1B695A79597958795EA95D1F73D
:100F900099278F579109BC01990F880B990B0E94D3
:100FA00085162BE930E24AE95EE30E94E41624E468
:100FB00031E544E35EE30E94D4186B017C016A8949
:100FC0007B898C899D898F77992780689F6320E032
:100FD00030E040EC5FE30E94D3182BE33DE344E9AB
:100FE0005EE30E94E4169B01AC01C701B6010E94BA
:100FF000D4180E94EE196A8F7B8F8C8F9D8F2A8C5C
:101000003B8CB101032C000C880B990B0E948516B8
:101010006B017C0128E73AE944E550E40E94E416BC
:1010200020E030E040E05FE30E94D4180E94EE1917
:101030004B012EE83DE543E150E4C701B6010E94B3
:10104000E4166B017C01092C000CAA08BB08C50141
:10105000B4010E94851628E132E741E35FE30E9474
:10106000E4169B01AC01C701B6010E94D3182B0105
:101070003C01AC019B010E94E4166B017C01A301C1
:101080009201C301B2010E94D41868A379A38AA374
:101090009BA320E030E040E651E4C701B6010E9486
:1010A000401920E030E040E251E40E94D4189B0156
:1010B000AC01C701B6010E94401920E030E040ECCD
:1010C00050E40E94D4189B01AC01C701B6010E94F4
:1010D00040196B017C01A301920160E070E080E0A7
:1010E00090E40E94D3189B01AC01C701B6010E9495
:1010F000D4189B01AC0168A179A18AA19BA10E948F
:10110000401920E030E040E85FE30E94D4183FE758
:10111000830E911CA11CB11CA5019401F7E1220FC3
:10112000331F441F551FFA95D1F70E94E4162B0177
:101130003C01AC019B016A897B898C899D890E9455
:101140007E1687FF0DC041E0241A310820E030E010
:1011500040E251E4C301B2010E9440192B013C015D
:10116000C101419651E05AA78332910508F01AA6B1
:10117000839790F4C10137FE04C08827992782190C
:101180009309880F991F880F991FFC01EC5EFE4F91
:10119000408051806280738088A599A593FF8DC19E
:1011A000AE8DBF8D9D01AB2B11F421E030E08E8D13
:1011B0009F8D0197BCEF2B16BFEF3B060CF467C069
:1011C000221633060CF063C082199309AA24A39453
:1011D0009F8F8E8F97FF02C01F8E1E8EE8A5F9A5E8
:1011E000F460F9A7E8A737FE1AA6A110C1C121141F
:1011F000310409F475C18E898170898BFAA5FF23AA
:1012000009F463C1A30192016A897B898C899D8954
:101210000E94E4161AA50E94B2192E8B3A8F48A399
:101220005CA36DA37EA3882E9FA30E94241A2AA5E7
:10123000A301222371F192010E9440199B01AC018C
:101240006A897B898C899D890E94D3186B017C01F6
:10125000EE8DFF8DEE0FFF1FEE0FFF1FEC5EFE4FBA
:1012600080819181A281B3818A8B9B8BAC8BBD8B5A
:10127000112399F0A3019201BC01CD010E94E41653
:101280009B01AC01C701B6010E94E4163DC0A12C30
:101290009FCF92010E94E416D1CFD301C20157E142
:1012A000B695A795979587955A95D1F799279C015B
:1012B0002F57310937FF03C03195219531098A89AC
:1012C0009B89AC89BD8947E1B695A7959795879588
:1012D0004A95D1F799278F57910997FF03C09195A8
:1012E00081959109821793070CF07DC02A893B896B
:1012F0004C895D89C301B2010E9440199B01AC0178
:10130000C701B6010E9440192B013C01AE8DBF8D73
:10131000AB2B09F071C011E020E030E040E05FE36A
:101320000E94781A87FD10E0212F30E040E050E065
:1013300060E070E080E090E0AE88BA8CC8A0DCA0ED
:10134000EDA0FEA0082D1FA10E94AC182E8B3A8F95
:1013500048A35CA36DA37EA3882E9FA320E030E06A
:1013600040E05FE3C301B2010E947E16811103C019
:10137000BE89BE7FBE8B10E0B12CC12C912CD12C2C
:10138000E12CF12C00E02E893A8D48A15CA16DA1E1
:101390007EA1882D9FA1A9E00E94C118A9F0A4F008
:1013A0003FEF231A330A10E0B12CC12C912CD12C21
:1013B000E12CF12C00E041E04E8B1A8E18A21CA209
:1013C0001DA21EA2812C1FA2C1018D599F4F512C1D
:1013D00025E0622E712C873C910508F027C184E03E
:1013E000682E712C23C1A30192016A897B898C89A3
:1013F0009D890E94401944CF0E94B21959016A0187
:101400007B01082F992E0E94241A9B01AC01C30175
:10141000B2010E94D3182B013C0111E020E030E022
:1014200040E05FE30E94781A87FD10E0212F30E052
:1014300040E050E060E070E080E090E0192D0E9414
:10144000AC18122FB32EC42E952ED62EE72EF82EC2
:10145000092F20E030E040E05FE3C301B2010E94C9
:101460007E16811101C01E7F212F3B2D4C2D592D41
:101470006D2D7E2D8F2D902F0E94241A9B01AC0183
:101480006A897B898C899D890E947E1618160CF4C6
:101490007ACF2E893A8D48A15CA16DA17EA1882DBD
:1014A0009FA1A1E00E94B5182E8B3A8F48A35CA3A0
:1014B0006DA37EA3882E9FA35ECF37FC98CE211408
:1014C000310471F08E898170898BA30192016A8940
:1014D0007B898C899D890E94401910E01AA69BCEB9
:1014E000A12C012B09F046C02E8D3F8D4A895B89C6
:1014F0006C897D89CE0101960E949E05F981FE8B43
:101500002A812A8F3B8138A34C814CA35D815DA346
:101510008E818EA38F8098859FA31985BA84CB84F2
:101520009C84DD84EE84FF8408892DCF2E8D3F8D31
:101530004A895B896C897D89CE0101960E949E054E
:10154000A981AE8BBA81BA8FEB81E8A3FC81FCA3A1
:101550002D812DA33E813EA38F8048854FA3198501
:10156000BA84CB849C84DD84EE84FF84088927C000
:10157000012BE1F24A895B896C897D8970582E8D37
:101580003F8DCE0101960E949E05E981EE8BFA8186
:10159000FA8F2B8128A33C813CA34D814DA35E8112
:1015A0005EA38F8088858FA31985BA84CB849C84A1
:1015B000DD84EE84FF840889AA2009F4E4CE68A4BF
:1015C00079A4662498E07922A8A5B9A55524539456
:1015D000B3FF2CC0BFEF2B163B0624F13101EFEF18
:1015E0006E1A7E0A2E893A8D48A15CA16DA17EA15A
:1015F000882D9FA10E94241AF301EE0FFF1FEE0F0A
:10160000FF1FEC5EFE4F20813181428153810E9499
:101610007E16811107C02E8D3F8D215031093F8FDD
:101620002E8F130155245394712C612C88A599A5F4
:10163000827099279B8B8A8B98A591FF03C06114B8
:10164000710441F4A9A9BAA9CD01861997096A16AE
:101650007B0610F090E080E0BE89B983EA8DEA83D2
:10166000F8A1FB832CA12C833DA13D834EA14E8389
:101670008F825FA158871987BA86CB869C86DD86C4
:10168000EE86FF86088BAEA9AF93BDA9BF93ECA9E8
:10169000EF93FBA9FF9329A52F9338A53F939F9321
:1016A0008F934F8D4F935E8D5F9388A98F939FA5E6
:1016B0009F93AEA5AF93BDA5BF93ECA5EF93FBA5FC
:1016C000FF9389809A80AB80BC80CD80DE80EF80E4
:1016D000F88409851A852B853C854D855E856F8547
:1016E000788989890E94C1020FB6F894DEBF0FBEC7
:1016F000CDBF511067C02C013FEF431A530A48A5D4
:10170000E5E445FFE5E62FEF3FEFAC016DA57EA5D3
:101710008E2FEBA5FCA50995A32CAA1CAA24AA1C14
:101720006101E32CEE0CEE08FE2C0E2D1E2DFE2D7D
:10173000EE2D91014E2D5E2D6E2D7E2D8E2D9E2D2A
:10174000A0E00E94C1183CF40E947F1869017A0150
:101750008B01F82FE92F1F9285E08F9321E0621A09
:1017600071087F926F921F921F929AE0892E2F2FFD
:101770003E2FA2016DA57EA58BA59CA50E941201FE
:101780000F900F900F900F900F900F904A895B89E8
:10179000452BC1F09C01AFA5B8A92A1B3B0BE9A9B9
:1017A000FAA92E173F0770F48C010F5F1F4F2FEF20
:1017B0003FEFAC016DA57EA580E2EBA5FCA50995E8
:1017C000C801E8CFE6960FB6F894DEBF0FBECDBFD6
:1017D000DF91CF911F910F91FF90EF90DF90CF900D
:1017E000BF90AF909F908F907F906F905F904F9041
:1017F0003F902F9008952F923F924F925F926F9259
:101800007F928F929F92AF92BF92CF92DF92EF9290
:10181000FF920F931F93CF93DF93CDB7DEB7E79778
:101820000FB6F894DEBF0FBECDBF1C016AAB7BAB19
:101830004CAB5DAB28013901CEAADFAA6501B82CFB
:10184000A9019801C301B8010E947E16882331F1D5
:10185000EEA8FFA803E010E027E731E04CA95DA95E
:101860006AA97BA9C1010E948800E7960FB6F89487
:10187000DEBF0FBECDBFDF91CF911F910F91FF90C3
:10188000EF90DF90CF90BF90AF909F908F907F9020
:101890006F905F904F903F902F9008952FEF3FEF04
:1018A0004FE75FEFC301B8010E947E1687FF07C0B4
:1018B000EEA8FFA804E010E02BE731E0CFCF2FEF38
:1018C0003FEF4FE75FE7C301B8010E94781A18168F
:1018D0006CF404E010E02EE631E0C2FC04C003E04A
:1018E00010E023E731E0EEA8FFA8B8CF9E012F5FFC
:1018F0003F4F4901B11025C028E23BE64EE65EE4C9
:10190000C301B8010E94781A181654F028E23BE689
:101910004EE65EECC301B8010E947E1687FF11C03F
:101920001F921F925601CEA8DFA8930182014CA9F5
:101930005DA96AA97BA9C1010E945F070F900F9062
:1019400094CFD2FC03C086E0E82EF12CF40110E025
:1019500000E080E332E1E316F10448F00F5F1F4F2F
:10196000819391E0E91AF1080032110599F7BB2043
:1019700019F01F930F93D6CF9701B301A201CE01A7
:1019800081960E949E051F930F939F928F92DF92E4
:10199000CF922FA92F933EA93F93FF92EF928DA94B
:1019A0008F939CA99F932BA92F933AA93F933F9282
:1019B0002F9289A09AA0ABA0BCA0CDA0DEA0EFA0E2
:1019C000F8A409A51AA52BA53CA54DA55EA56FA554
:1019D00078A989A90E94C1020FB6F894DEBF0FBE94
:1019E000CDBF43CF882329F0682F8CE194E00C947D
:1019F0002F0508959F92AF92BF92CF92DF92EF9200
:101A0000FF920F931F93CF93DF935C017B018B01B8
:101A1000D0E0C0E0F80191908F016501CC0EDD1E91
:101A2000C6010E94A217981621F0692DC6010E94D6
:101A3000AA172196C430D10569F7C701DF91CF916C
:101A40001F910F91FF90EF90DF90CF90BF90AF90DC
:101A50009F9008952F923F924F925F926F927F9244
:101A60008F929F92AF92BF92CF92DF92EF92FF92AE
:101A70000F931F93CF93DF93CDB7DEB72F970FB69A
:101A8000F894DEBF0FBECDBFFE01B4966190719099
:101A90008F01312C212CD3018C91882309F4F1C3BF
:101AA000BFEF6B1A7B0A7101EFEFEE1AFE0A853267
:101AB00009F0C6C0B12CA12C07C08D3271F1803362
:101AC00061F46894A0F83F01F30181918B3241F1F8
:101AD000A4F7803241F1833249F190ED980F9A30AA
:101AE00040F51B821A82F301819190ED980F9A3094
:101AF00098F54AE02A813B81429F7001439FF00C98
:101B0000112490E3E91AF108D701A80FB11D87FD50
:101B1000BA95BB83AA833F01E6CF6894A1F8D3CFDF
:101B20006894A2F8D0CF6894A3F8CDCF6894A4F8B5
:101B3000CACF8A32D9F5C8010296D801ED90FC903F
:101B4000F7FE31C06894A1F8222733272E193F09E8
:101B50003B832A838C013F01D3018C918E3209F0A3
:101B600048C0C30101966894B2F811962C9130EDEB
:101B7000320F3A30F0F4512C412CFC01219130ED20
:101B8000320F3A3098F5BAE0B49D7001B59DF00C73
:101B9000112430E3E31AF1082701420E511C27FDFE
:101BA0005A94CF01EACFFB82EA82D4CF1B821A82F9
:101BB000D3CF2A32E9F4C8010296D8014D905C9047
:101BC00057FE02C0512C412CB2E06B0E711C8C01EF
:101BD00093012F5F3F4FF30180818C36A1F064F4B5
:101BE0008836D9F18A3661F0930112C03C01F0CFFA
:101BF0003C01512C412CECCF843711F08A37A1F7EE
:101C00006894B1F805C081818C3609F16894B0F808
:101C1000D9018D913D01853609F4EAC10CF0A4C0CB
:101C2000873409F4E5C114F5853409F4E1C10CF0F9
:101C3000C1C1853209F4FBC27101BFEFEB1AFB0A87
:101C40002FEF3FEFA101BE016F5F7F4FFBC2B3E0FB
:101C5000BB2A93012E5F3F4FDBCF8181883619F07D
:101C60006894A7F8D5CFF0ECAF2AF3CF823609F409
:101C700034C33CF46894A5F88835F1F6F0E18F2E72
:101C80000DC0833609F4CBC18436B1F6E894A4F8CC
:101C9000AAE08A2E893621F0843611F0B3EFAB2208
:101CA000B2FE02C0E894A0F895012227327089366E
:101CB00019F0843609F023C1232B09F49CC0F801E4
:101CC0003896F987E887D801CC901196DC90119767
:101CD0001296EC9012971396FC90139714969C9082
:101CE00014971596AC91F801F681FC83F801F78101
:101CF000FA879601A701692D7A2F8C819F2F0FE318
:101D00000E949118B22F092D1A2FFC81EA859601A5
:101D1000A701B8018F2F9E2FA0E00E94C1183CF4AC
:101D20000E947F1869017A018B01F82FE92FBF9279
:101D3000AF922B812F933A813F935F924F92AB2EBC
:101D40002F2F3E2FA101BE016F5F7F4F82EF9CE0DE
:101D50000E9412011C010F900F900F900F900F9096
:101D60000F900885198597CE8F3609F4B3C29CF47D
:101D7000873609F43DC10CF41DC1893609F486CFBC
:101D80008E3609F059CFD801ED91FD918D01A6FE57
:101D90005DC2208280CE833709F490C12CF5803754
:101DA00009F04ACF65016894C0F8D4F8F80132967A
:101DB000FB83EA83D8010D911C910115110509F0EF
:101DC00015C246E0E42EF12C05E010E027E831E0F2
:101DD000A101BE016F5F7F4F82EF9CE00E948800EF
:101DE0001C010A811B8157CE853709F44FCF8837F4
:101DF00009F444CF21CFB0FE48C0C80104969987AA
:101E00008887D801CD90DD90ED90FC90D701C60178
:101E10008827B7FD83959927AA27BB278C879D879D
:101E2000AE87BF87D701C601BB0F880B982FDC0197
:101E30008C839D83AE83BF83BC2D9D2CEA86FB865D
:101E40000C81102FF02FE02F9601A7016F2F702F1C
:101E5000802F9F2FA0E00E94C1184CF40E947F1891
:101E6000B22F932E4A875B878B01F82FE92FBF9201
:101E7000AF929B819F93AA81AF935F924F92AC8464
:101E8000CB2ED92CEA84FB845BCFF8013296F987FC
:101E9000E887D801A6FE30C0EC910E2E000CFF0B97
:101EA000BF2FBB1FBB27BB1FBC836F01EF2EEE0CE8
:101EB000EE08FE2C0E2D1E2D9E2CBE2D9F014E2DAC
:101EC0005E2D6E2D7E2D8E2D9E2DA0E00E94C118C0
:101ED0003CF40E947F1869017A018B01982EB92F7A
:101EE000BF92AF92EB81EF93FA81FF935F924F9293
:101EF000AC80292D3B2F26CFED91FC91D1CF232B08
:101F000039F19801285F3F4F39872887D801CC9055
:101F10001196DC9011971296EC9012971396FC9004
:101F2000139714969C91149715968C911597169665
:101F30002C91169717963C91BF92AF92BB81BF939D
:101F4000EA81EF935F924F92A12C092F182FFACEBE
:101F50009801B0FE19C02C5F3F4F39872887D80100
:101F60000D911D912D913C91BF92AF92BB81BF937A
:101F7000EA81EF935F924F92A12C6801790100E012
:101F800010E020E030E0DECE2E5F3F4F398728871B
:101F9000D8010D911C91A6FC1127BF92AF92BB8175
:101FA000BF93EA81EF935F924F92A12C6801E12CDD
:101FB000F12CE5CF863411F46894A5F898012C5FD4
:101FC0003F4F3D832C83D8010D911D912D913C9164
:101FD000812CCA80DB807201A101BE016F5F7F4F3F
:101FE00082EF9CE00E94FB0B1C010C811D8153CDF4
:101FF000982F9F7D973419F46894B3F88D7F8534BA
:1020000011F46894A5F8F8013496FD83EC83D801A7
:102010000D911D912D913C9188248394DACF450137
:10202000B2E08B229924A101CC24C394D12CA1FC31
:102030001AC0F12CE12CA1014E0D5F1D6701E2E0F9
:10204000CE0ED11CFFEFEF1AFF0A2A813B81E21668
:10205000F30648F42FEF3FEFBE016F5F7F4F80E242
:102060000E94F20CE8CF1A013FEF231A330A7801DD
:1020700082E0E80EF11C2FEF3FEFBE016F5F7F4F54
:10208000D8018C910E94F20C8928B1F0EA81FB8181
:10209000CE16DF0688F481010F5F1F4F2FEF3FEF51
:1020A000A101BE016F5F7F4F80E20E94F20CFFEF43
:1020B000CF1ADF0A1801EACF8701EDCC98012E5F15
:1020C0003F4F39872887D8010D911C9101151105C3
:1020D00089F46501EA80FB8006E010E020E831E049
:1020E000A101BE016F5F7F4F82EF9CE00E948800DC
:1020F0001C0137CE92014114510411F42FEF3FEF30
:10210000F80190E080E0AF014F5F5F4F6081662390
:1021100031F08217930719F00196FA01F4CFE01B12
:10212000F10B9501222734703D832C83B2FE04C04D
:102130004E165F0608F4F201450132E0832299242D
:102140007F01A101A1FC18C02E1A3F0AA1014E0F68
:102150005F1F7F018FEFE81AF80AAA81BB81EA1797
:10216000FB0750F42FEF3FEFBE016F5F7F4F80E220
:102170000E94F20CF701EACF6A01C01AD10AA60147
:10218000400F511FF80181918F01882391F02C811C
:102190003D81232B31F0920121503109452849F02E
:1021A00029012FEF3FEFBE016F5F7F4F0E94F20CBE
:1021B000E6CF1A01892809F4D4CDE41AF50AC7013B
:1021C000820D931DAA81BB818A179B0708F0C9CD98
:1021D00081010F5F1F4F2FEF3FEFA101BE016F5F26
:1021E0007F4F80E20E94F20C1801E9CFDF92CF927C
:1021F0001F92B6E0BF935F924F9230E1832EA12CE5
:102200006801E12CF12C00E010E020E030E0A101B9
:10221000BE016F5F7F4F82EF9CE00E9412011C01A4
:102220000F900F900F900F900F900F90DACD7101DB
:10223000EFEFEE1AFE0A2FEF3FEFA101BE016F5F35
:102240007F4F85E20E94F20C170125CCA7FE03C048
:102250003182208220CCB0FE08C0C101B0E0A0E0F5
:1022600080839183A283B38316CCB1FEF1CF410169
:102270002082918212821382148215821682178222
:102280000ACCA101EFEF2E163E0611F44EEF5FEFE0
:102290002FEF3FEFBE016F5F7F4F80E00E94F20C97
:1022A000C1012F960FB6F894DEBF0FBECDBFDF91F0
:1022B000CF911F910F91FF90EF90DF90CF90BF9043
:1022C000AF909F908F907F906F905F904F903F90D6
:1022D0002F90089528E0822EE1CC92E0892EDECC6A
:1022E0001F920F920FB60F9211242F933F938F934B
:1022F0009F93AF93BF938091140490911504A09184
:102300001604B09117043091130423E0230F2D37E6
:1023100058F50196A11DB11D209313048093140458
:1023200090931504A0931604B09317048091180499
:1023300090911904A0911A04B0911B040196A11D5B
:10234000B11D8093180490931904A0931A04B093BC
:102350001B04BF91AF919F918F913F912F910F904F
:102360000FBE0F901F90189526E8230F0296A11D0F
:10237000B11DD2CF1F920F920FB60F9211242F933F
:102380003F934F935F936F937F938F939F93AF93FD
:10239000BF93EF93FF938CE194E00E940D05FF91B2
:1023A000EF91BF91AF919F918F917F916F915F91CD
:1023B0004F913F912F910F900FBE0F901F90189546
:1023C0001F920F920FB60F9211242F938F939F930A
:1023D000EF93FF93E0912C04F0912D048081E09124
:1023E0003204F091330482FD1BC09081809135044A
:1023F0008F5F8F7320913604821741F0E09135048E
:10240000F0E0E45EFB4F958F80933504FF91EF91F0
:102410009F918F912F910F900FBE0F901F90189545
:102420008081F4CF1F920F920FB60F9211240F905C
:102430000FBE0F901F90189590E0FC01EC55FF4FD8
:102440002491FC01E057FF4F3491FC01E458FF4F09
:10245000E491EE23C9F0222339F0233001F1A8F4EE
:10246000213019F1223029F1F0E0EE0FFF1FEE5874
:10247000FF4FA591B4918FB7F894EC91611126C0EC
:1024800030953E233C938FBF08952730A9F0283024
:10249000C9F0243049F7809180008F7D03C080917E
:1024A00080008F7780938000DFCF84B58F7784BDE5
:1024B000DBCF84B58F7DFBCF8091B0008F77809389
:1024C000B000D2CF8091B0008F7DF9CF3E2BDACF14
:1024D000CF93DF9390E0FC01E057FF4F24918458A5
:1024E0009F4FFC0184918823C9F090E0880F991FC9
:1024F000FC01E859FF4FA591B491FC01EE58FF4F44
:10250000C591D49161110DC09FB7F8948C9120951D
:1025100082238C938881282328839FBFDF91CF91CA
:102520000895623051F49FB7F8943C91822F8095C2
:1025300083238C93E8812E2BEFCF8FB7F894EC9107
:102540002E2B2C938FBFEACFEF92FF920F931F9306
:10255000CF93DF93EC017B01198218821B821A82D0
:102560001D821C82FB0101900020E9F731978F0149
:10257000061B170BB8016F5F7F4F90E080E00E9451
:10258000A21B0097B9F0998388831B830A832C814F
:102590003D81232B11F4FC0110821D830C83B701B4
:1025A00088819981DF91CF911F910F91FF90EF90DA
:1025B0000C94681C88819981009711F00E94191B66
:1025C000198218821D821C821B821A82DF91CF9190
:1025D0001F910F91FF90EF9008950F931F93CF934A
:1025E000DF9310921F0410921E0488EE93E0A0E087
:1025F000B0E08093200490932104A0932204B09330
:10260000230480E691E090931D0480931C0485ECE4
:1026100090E0909329048093280484EC90E09093B8
:102620002B0480932A0480EC90E090932D048093F7
:102630002C0481EC90E090932F0480932E0482EC84
:1026400090E0909331048093300486EC90E0909376
:1026500033048093320410923504109236041092A1
:1026600037041092380482E390E09093DE04809364
:10267000DD0480E991E09093E0048093DF0480E240
:1026800093E09093E2048093E10488EE93E09093CA
:10269000E4048093E3041092E6041092E50410929F
:1026A000E8041092E7041092EA041092E9041092F0
:1026B000EC041092EB041092EE041092ED041092D0
:1026C000F0041092EF041092F2041092F1041092B0
:1026D000F4041092F3041092F6041092F504109290
:1026E000F8041092F7041092FA041092F904109270
:1026F000FC041092FB041092FE041092FD04109250
:1027000000051092FF04109202051092010510922C
:10271000040510920305109206051092050510920B
:1027200008051092070510920A05109209051092EB
:102730000C0510920B0510920E0510920D051092CB
:102740000F058FEF9FEF90931105809310059093E5
:10275000130580931205109214051092150510921E
:10276000160510921705109218051092190510926F
:102770001A0510921B0510921C0510921D0510924F
:102780001E0510921F05109221051092200581E070
:1027900090E09093230580932205109225051092D6
:1027A00024051092260510922705109228051092F4
:1027B000290584E090E09093DC048093DB0462E0E0
:1027C0000E9468126DE871E089EC94E00E94A41206
:1027D00061E971E08FEC94E00E94A41265E971E078
:1027E00085ED94E00E94A412C8E0D1E003EC14E06F
:1027F0008991F80181938F0161E00E946812F1E0F4
:10280000CE30DF07A9F787E08093BD0488E080938E
:10281000BE0489E08093BF0461E087E00E946812F3
:1028200061E08091BE040E94681261E08091BF0463
:102830000E9468121092C0041092C1041092C20447
:1028400060E08091BD040E941C126091C1048091DF
:10285000BE040E941C126091C2048091BF040E94B9
:102860001C120E946A046093B9047093BA048093A6
:10287000BB049093BC04DF91CF911F910F910895F9
:10288000CF93DF93CDB7DEB763970FB6F894DEBF73
:102890000FBECDBF789484B5826084BD84B581605D
:1028A00084BD85B5826085BD85B5816085BD80911B
:1028B0006E00816080936E00109281008091810093
:1028C000826080938100809181008160809381008B
:1028D000809180008160809380008091B10084604D
:1028E0008093B1008091B00081608093B0008091AE
:1028F0007A00846080937A0080917A00826080936D
:102900007A0080917A00816080937A0080917A00C9
:10291000806880937A001092C100E0912C04F091BD
:102920002D0482E08083E0912804F0912904108234
:10293000E0912A04F0912B0488E080831092340403
:10294000E0913004F091310486E08083E0912E0420
:10295000F0912F04808180618083E0912E04F091BA
:102960002F04808188608083E0912E04F0912F04F1
:10297000808180688083E0912E04F0912F04808113
:102980008F7D80838AE991E09F938F930E942A0D27
:1029900080E094E09E838D8384E08F931F928CEA85
:1029A00091E09F938F930E942A0D0F900F900F90AC
:1029B0000F900F900F9010E000E0CE0101967C0187
:1029C0005E0195E0A90EB11C8D819E8104970817C8
:1029D000190708F0A9C0670138016E187F08C30104
:1029E0008C0D9D1D0E94A217F6018683FFEFCF1A62
:1029F000DF0ACA14DB0499F78F819885A985BA8507
:102A000086369646A646B64609F08BC01C830B83D5
:102A1000C80108969A8389831F930F9388EC91E0ED
:102A20009F938F930E942A0D0F900F900F900F90FD
:102A30008FE0F701A4E0B4E001900D928A95E1F7F0
:102A40001F921F9206E312E01F930F930E942A0D1C
:102A5000109205041092040483E080930004809196
:102A6000000490910104A0910204B0910304888BAA
:102A7000998BAA8BBB8B0F900F900F900F9080912A
:102A8000080490910904089708F06BC088E592E06B
:102A90009F938F930E942A0D0F900F9082EB93E0EB
:102AA0009F938F930E942A0D0F900F9002EC13E0DA
:102AB00090E0A92E90E0B92E0E946A042B013C01FF
:102AC00088EEC82E83E0D82EE12CF12C0E946A04F7
:102AD0006419750986099709683E73408105910557
:102AE000A8F391E0C91AD108E108F108E8EE4E0E0A
:102AF000E3E05E1E611C711CC114D104E104F10409
:102B000029F71F930F930E942A0D0F900F90A11485
:102B1000B10491F20E94F904882371F20E9400002E
:102B2000CBCF0C5F1F4F50CF1B862FB7F8948091EF
:102B3000140490911504A0911604B09117042FBFAE
:102B40008C879D87AE87BF871A8219821C821B8261
:102B50008AEF91E09F938F930E942A0D0F900F9020
:102B600067CF809107048F93809106048F9384E947
:102B700092E09F938F930E942A0D83E393E3DC01FD
:102B800089839A83AB83BC83B701809106049091BB
:102B900007040E94FA0C2091040430910504285F78
:102BA0003F4F809108049091090408970F900F906F
:102BB0000F900F9082179307B0F48BEB92E09F93E6
:102BC0008F930E942A0D1F921F921F930F930E94B2
:102BD0002A0D10920504109204040F900F900F908C
:102BE0000F900F900F90809105048F9380910404B3
:102BF0008F938BE093E09F938F930E942A0D86E63C
:102C000096E6DC0189839A83AB83BC83B70180910C
:102C10000404909105040E94FA0C809104049091A0
:102C200005049C01285F3F4F3F932F9304969F9389
:102C30008F9382E393E09F938F930E942A0DE090FD
:102C40000404F090050487010C5F1F4F6E0180E1C2
:102C5000C80ED11C98E0E90EF11C0FB6F894DEBF47
:102C60000FBECDBFF601B1906F01C8010E94A2173F
:102C7000B81621F06B2DC8010E94AA170F5F1F4FD5
:102C8000E016F10679F78091040490910504909381
:102C90000704809306049C01285F3F4F309305048E
:102CA000209304049F938F9382E693E09F938F93E6
:102CB0000E942A0D809105048F93809104048F93C4
:102CC0008AE893E09F938F930E942A0D0FB6F894A1
:102CD000DEBF0FBECDBFE2CECF93DF93CBEDD4E00E
:102CE000269788819981009711F00E94191B84E032
:102CF000C93CD807A9F7DF91CF9108950E94C0166B
:102D000008F481E00895E89409C097FB3EF490959B
:102D10008095709561957F4F8F4F9F4F9923A9F0B4
:102D2000F92F96E9BB279395F69587957795679543
:102D3000B795F111F8CFFAF4BB0F11F460FF1BC087
:102D40006F5F7F4F8F4F9F4F16C0882311F096E91A
:102D500011C0772321F09EE8872F762F05C06623C8
:102D600071F096E8862F70E060E02AF09A95660F81
:102D7000771F881FDAF7880F9695879597F908953A
:102D8000990F0008550FAA0BE0E8FEEF161617067C
:102D9000E807F907C0F012161306E407F50798F0E4
:102DA000621B730B840B950B39F40A2661F0232BFD
:102DB000242B252B21F408950A2609F4A140A69579
:102DC0008FEF811D811D08950E94F7160C946817DE
:102DD0000E945A1738F00E94611720F0952311F0D5
:102DE0000C9451170C94571711240C949C170E94A3
:102DF000791770F3959FC1F3950F50E0551F629FAF
:102E0000F001729FBB27F00DB11D639FAA27F00D43
:102E1000B11DAA1F649F6627B00DA11D661F829F6A
:102E20002227B00DA11D621F739FB00DA11D621F4F
:102E3000839FA00D611D221F749F3327A00D611D6C
:102E4000231F849F600D211D822F762F6A2F11244E
:102E50009F5750409AF0F1F088234AF0EE0FFF1F81
:102E6000BB1F661F771F881F91505040A9F79E3FD8
:102E7000510580F00C9451170C949C175F3FE4F3BC
:102E8000983ED4F3869577956795B795F795E7952E
:102E90009F5FC1F7FE2B880F911D9695879597F937
:102EA000089597F99F6780E870E060E008959FEFCC
:102EB00080EC089500240A941616170618060906D1
:102EC000089500240A9412161306140605060895A0
:102ED000092E0394000C11F4882352F0BB0F40F428
:102EE000BF2B11F460FF04C06F5F7F4F8F4F9F4F68
:102EF000089557FD9058440F551F59F05F3F71F0EA
:102F00004795880F97FB991F61F09F3F79F0879550
:102F10000895121613061406551FF2CF4695F1DFD9
:102F200008C0161617061806991FF1CF8695710569
:102F3000610508940895E894BB2766277727CB019D
:102F400097F90895F999FECF92BD81BDF89A992716
:102F500080B50895262FF999FECF1FBA92BD81BD85
:102F600020BD0FB6F894FA9AF99A0FBE019608950B
:102F70002F923F924F925F926F927F928F929F9289
:102F8000AF92BF92CF92DF92EF92FF920F931F9377
:102F9000CF93DF93CDB7DEB7CA1BDB0B0FB6F89428
:102FA000DEBF0FBECDBF09942A88398848885F8468
:102FB0006E847D848C849B84AA84B984C884DF80D9
:102FC000EE80FD800C811B81AA81B981CE0FD11DBD
:102FD0000FB6F894DEBF0FBECDBFED010895689423
:102FE00001C0E894F92FF12B12F00C942318A0E003
:102FF000B0E0EDEFF7E10C94BE17092E059422F432
:103000000E947F18112392F4F0E80F26FFEFE0945E
:10301000F09400951095B094C094D094A194BF0AF8
:10302000CF0ADF0AEF0AFF0A0F0B1F0B0E942E18B0
:1030300007FC0E947F18CDB7DEB7ECE00C94DA17DE
:10304000689401C0E8948F929F92CF93DF930E947F
:103050002E18DF91CF919F908F9008958824992406
:10306000F401E401B0E49F93AA279A158B049C0411
:10307000ED05FE05CF05D007A10798F4AD2FDC2F95
:10308000CF2FFE2FE92D982C892E982F872F762F62
:10309000652F542F432F322F2227B85031F7BF917D
:1030A00027C01B2EBF91BB27220F331F441F551F64
:1030B000661F771F881F991F881C991CEE1FFF1F12
:1030C000CC1FDD1FAA1FBB1F8A149B04EC05FD0546
:1030D000CE05DF05A007B10748F08A189B08EC0968
:1030E000FD09CE09DF09A00BB10B21601A94E1F6AE
:1030F0002EF49401AF01BE01CD01000C089560953E
:1031000070958095909530954095509521953F4FBD
:103110004F4F5F4F6F4F7F4F8F4F9F4F089597FDDA
:103120001094002E083098F00850232F342F452F8C
:10313000562F672F782F892F912DF4CF15949795BF
:1031400087957795679557954795379527950A956C
:10315000AAF71124002D08952A0D3B1D4C1D5D1D5D
:103160006E1D7F1D801F911F08950024A7FD0094F0
:103170002A0F301D401D501D601D701D801D901DAB
:1031800008950024A7FD00942A1730054005500536
:1031900060057005800590050895EE0FFF1F0590EE
:1031A000F491E02D09945058BB27AA270E94EB18F0
:1031B0000C9468170E945A1738F00E94611720F08B
:1031C00039F49F3F19F426F40C9457170EF4E09548
:1031D000E7FB0C945117E92F0E94791758F3BA179F
:1031E000620773078407950720F079F4A6F50C941D
:1031F0009B170EF4E0950B2EBA2FA02D0B01B901F1
:1032000090010C01CA01A0011124FF27591B99F05C
:10321000593F50F4503E68F11A16F040A22F232F68
:10322000342F4427585FF3CF469537952795A795B8
:10323000F0405395C9F77EF41F16BA0B620B730B5F
:10324000840BBAF09150A1F0FF0FBB1F661F771FD0
:10325000881FC2F70EC0BA0F621F731F841F48F485
:10326000879577956795B795F7959E3F08F0B0CF0E
:103270009395880F08F09927EE0F979587950895F5
:103280000E9454190C9468170E94611758F00E940C
:103290005A1740F029F45F3F29F00C94511751114F
:1032A0000C949C170C9457170E94791768F3992374
:1032B000B1F3552391F3951B550BBB27AA27621732
:1032C0007307840738F09F5F5F4F220F331F441F3F
:1032D000AA1FA9F335D00E2E3AF0E0E832D0915073
:1032E0005040E695001CCAF72BD0FE2F29D0660F60
:1032F000771F881FBB1F261737074807AB07B0E8A3
:1033000009F0BB0B802DBF01FF2793585F4F3AF0A8
:103310009E3F510578F00C9451170C949C175F3F19
:10332000E4F3983ED4F3869577956795B795F7952E
:103330009F5FC9F7880F911D9695879597F9089516
:10334000E1E0660F771F881FBB1F621773078407B2
:10335000BA0720F0621B730B840BBA0BEE1F88F7C1
:10336000E0950895BEE304D008F490E80895BFE323
:1033700022273327A9010E94811760F19F5748F146
:10338000B91740F1BFE3B91B9927B8503AF4660F5B
:10339000771F881F991FB395D2F316C0B8504AF013
:1033A000232F342F452F562F672F782F8827B8507B
:1033B000BAF7B85F49F08695779567955795479521
:1033C00037952795BA95B9F716F40E94681A88942C
:1033D0000895889460E070E0CB0108950E94F5198B
:1033E0006894B1110C949C1708950E94811788F07D
:1033F0009F5798F0B92F9927B751B0F0E1F0660FB9
:10340000771F881F991F1AF0BA95C9F714C0B130F9
:1034100091F00E949B17B1E008950C949B17672FC1
:10342000782F8827B85F39F0B93FCCF38695779528
:103430006795B395D9F73EF4909580957095619511
:103440007F4F8F4F9F4F089597FB16F40E94681A85
:103450000C942B1AE894F92F96EBFF2381F01216A7
:1034600013061406440B9395F69587957795679503
:1034700057954040FF23B9F71BC09927089588232B
:1034800051F49850D2F7872B762F652F542F432F66
:10349000322F20E0B1F3121613061406440B8823D2
:1034A0003AF09A95440F551F661F771F881FCAF779
:1034B00055234AF4440F551F11F460FF04C06F5F99
:1034C0007F4F8F4F9F4F880F9695879597F9089557
:1034D0009095809570956095509540953095219583
:1034E0003F4F4F4F5F4F6F4F7F4F8F4F9F4F08950D
:1034F0000E94C01608F48FEF08950F931F93CF9387
:10350000DF938230910510F482E090E0E0912C0589
:10351000F0912D0530E020E0B0E0A0E0309799F484
:103520002115310509F44AC0281B390B2430310517
:10353000D8F58A819B816115710589F1FB0193831F
:103540008283FE0111C0408151810281138148179D
:103550005907E0F04817590799F4109761F012964F
:103560000C93129713961C933296CF01DF91CF9153
:103570001F910F91089500932C0510932D05F4CF02
:103580002115310551F04217530738F0A901DB012D
:103590009A01BD01DF01F801C1CFEF01F9CF90938E
:1035A0002D0580932C05CDCFFE01E20FF31F8193F3
:1035B00091932250310939832883D7CF20912A054E
:1035C00030912B05232B41F42091100130911101F2
:1035D00030932B0520932A0520910E0130910F0185
:1035E0002115310541F42DB73EB74091120150919C
:1035F0001301241B350BE0912A05F0912B05E217EE
:10360000F307A0F42E1B3F0B2817390778F0AC0105
:103610004E5F5F4F2417350748F04E0F5F1F5093E2
:103620002B0540932A05819391939FCFF0E0E0E032
:103630009CCFCF93DF930097E9F0FC013297138280
:103640001282A0912C05B0912D05ED0130E020E013
:103650001097A1F420813181820F931F20912A05B8
:1036600030912B052817390709F061C0F0932B051D
:10367000E0932A05DF91CF910895EA01CE17DF0785
:10368000E8F54A815B819E0141155105B1F7E901D9
:10369000FB83EA8349915991C40FD51FEC17FD07AD
:1036A00061F4808191810296840F951FE9019983CD
:1036B0008883828193819B838A83F0E0E0E0129685
:1036C0008D919C9113970097B9F52D913C9111978D
:1036D000CD010296820F931F20912A0530912B0570
:1036E0002817390739F6309751F510922D051092A9
:1036F0002C05B0932B05A0932A05BCCFD383C2839E
:1037000040815181840F951FC817D90761F44E5F1E
:103710005F4F88819981480F591F518340838A8167
:103720009B81938382832115310509F0B0CFF093FB
:103730002D05E0932C059ECFFD01DC01C0CF138247
:103740001282D7CFB0E0A0E0E8EAFBE10C94BA1710
:103750008C01009751F4CB010E947D1A8C01C801A5
:10376000CDB7DEB7E0E10C94D617FC01E60FF71FEA
:103770009C0122503109E217F30708F49DC0D901DA
:10378000CD91DC911197C617D70798F0C530D105B8
:1037900030F3CE0104978617970708F3C61BD70BA3
:1037A0002297C193D1936D937C93CF010E94191BF3
:1037B000D6CF5B01AC1ABD0A4C018C0E9D1EA091A8
:1037C0002C05B0912D05512C412CF12CE12C10979A
:1037D00031F580912A0590912B058815990509F0FE
:1037E0005CC04616570608F058C080910E019091B3
:1037F0000F01009741F48DB79EB74091120150918F
:103800001301841B950BE817F90708F055C0F093D6
:103810002B05E0932A05F90171836083A0CF8D9178
:103820009C91119712966C90129713967C90139717
:10383000A815B90559F56C0142E0C40ED11CCA1493
:10384000DB0420F1AC014A195B09DA0112961597E5
:1038500080F06282738251834083D9016D937C939F
:10386000E114F10471F0D7011396FC93EE931297D3
:1038700076CF22968C0F9D1FF90191838083F301EF
:10388000EFCFF0932D05E0932C0569CF481659062C
:1038900008F42C017D01D3019ACFCB010E947D1A3F
:1038A0007C01009749F0AE01B8010E945F1CC8017D
:1038B0000E94191B870153CF10E000E050CFFB019D
:1038C000DC0102C001900D9241505040D8F708959C
:1038D000FB01DC0101900D920020E1F7089510E05A
:1038E000CDE5D0E004C0FE010E94CD182196CE3572
:0838F000D107C9F7F894FFCFDE
:1038F800B0710B000102000107080906030500006A
:103908002E0580000000803F000020410000C842D2
:1039180000007A4400401C460050C3470024744904
:103928008096184B20BCBE4C286B6E4EF902155081
:10393800B743BA51A5D46853E784115521E6B55663
:10394800A95F6358CA1B0E5ABCA2B15B00000000F5
:103958002F058F04BC047C05ED04CB04DF04666EE0
:10396800692B00666E69006E616E00666E692D00D7
:10397800296C6C756E2800296C696E2800444956BC
:10398800004F4E45004D554C5400426567696E2006
:103998006F6620536574757028290A006565707212
:1039A8006F6D3A2073697A65206F6620656570725D
:1039B8006F6D3A2025640A00656570726F6D3A2054
:1039C800696E697420666F756E64207374617274B1
:1039D800206164647265737320666F72207265611A
:1039E80064696E673A2025640A00656570726F6DB8
:1039F8003A20696E6974206F6620656570726F6D14
:103A0800206F626A6563742066696E6973686564AD
:103A1800206174207374617274206F66206565700C
:103A2800726F6D2E0A00656570726F6D3A2073654E
:103A38007420737461727420616464726573732096
:103A4800746F3A2025640A004572726F722077728B
:103A58006974696E67206461746120746F2065659C
:103A680070726F6D2E204461746120646F657320DD
:103A78006E6F742066697420696E20656570726F58
:103A88006D2E0A00656570726F6D3A2065726173FC
:103A9800696E67204D41524B455220617420616424
:103AA80064726573733A2025640A00656570726FE5
:103AB8006D3A2063616E206E6F7420777269746549
:103AC8002064617461207061737420746865206576
:103AD8006E64206F662074686520454550524F4DCE
:103AE8003B20626567696E6E696E6720617420614C
:103AF80064647265737320302E0A00656570726F96
:103B08006D3A2077726974696E67204D41524B4552
:103B18005220746F20616464726573733A2025645F
:103B28000A00656570726F6D3A2077726974696E04
:103B38006720646174612066726F6D2061646472CD
:103B48006573733A20256420756E74696C2025644A
:103B58000A00656570726F6D20726561642020616E
:103B68006464726573732061667465722077726924
:103B780074696E673A2025640A00656570726F6D16
:103B8800207772697465206164647265737320615B
:103B9800667465722077726974696E673A20256465
:103BA8000A00456E64206F66205365747570282975
:103BB8000A005265636F6D70696C6520616E6420E0
:103BC80075706C6F6164207769746820756E6465C0
:103BD80066696E656420494E49545F454550524FA9
:043BE8004D0A000082
:00000001FF
