:100000000C9463000C942D190C9406190C948B001D
:100010000C948B000C948B000C948B000C948B0034
:100020000C948B000C948B000C948B000C948B0024
:100030000C948B000C94AC190C948B000C948B00DA
:100040000C94BC180C948B000C947A190C945419D1
:100050000C948B000C948B000C948B000C948B00F4
:100060000C948B000C948B000000000024002700EF
:100070002A0000000000250028002B0000000000DE
:1000800023002600290004040404040404040202DA
:100090000202020203030303030301020408102007
:1000A0004080010204081020010204081020000012
:1000B0000008000201000003040700000000000027
:1000C0000000D319A32111241FBECFEFD8E0DEBF5B
:1000D000CDBF15E0A0E0B1E0EAE3F0E502C0059095
:1000E0000D92A23BB107D9F727E0A2EBB5E001C022
:1000F0001D92AA36B207E1F710E0C2E6D0E004C0D4
:100100002197FE010E946E24C136D107C9F70E94D3
:10011000631B0C9410280C9400002F923F924F9276
:100120005F926F927F928F929F92AF92BF92CF9287
:10013000DF92EF92FF920F931F93CF93DF9300D044
:1001400000D0CDB7DEB71C014B015A0139012701A0
:100150009601227033273A83298333E0C322DD24BA
:100160005C834B83CD2851F46801C41AD50A8B8176
:100170009C818C0D9D1D84159505B0F07301E00EDA
:10018000F11E4B815C81E614F704F1F06A01FFEF88
:10019000CF1ADF0A2FEF3FEFB401F70182917F0101
:1001A000F1010995A601EFCFEB80FC808FEFE81AF3
:1001B000F80A2FEF3FEF4B815C81B40180E2F1013F
:1001C0000995FC82EB82D3CF8B819C81800F911F9C
:1001D00029813A81232BA1F09C012A193B0924157E
:1001E000350570F4FC013196FA83E9832FEF3FEF78
:1001F000AC01B40180E2F101099589819A81ECCFCB
:100200000F900F900F900F90DF91CF911F910F9152
:10021000FF90EF90DF90CF90BF90AF909F908F9026
:100220007F906F905F904F903F902F9008952F9206
:100230003F924F925F926F927F928F929F92AF9276
:10024000BF92CF92DF92EF92FF920F931F93CF93C3
:10025000DF93CDB7DEB7AF970FB6F894DEBF0FBE12
:10026000CDBF9AA789A77CA76BA75EA74DA7CAA2F7
:10027000DBA2ECA25F2C402E1DA3322E232EA8A6BB
:1002800089A22A968EAC9FAC2A9796014E2D5F2D9F
:10029000602F712F832D922DA0E00E94622409F01F
:1002A0004CC092FC42C080E38983E89484F86624C1
:1002B0006394712C81FC92C0C401817099272896A7
:1002C0002EAD3FAD2897232BA9F0009709F486C0E7
:1002D00038A5311105C094012C703327232B51F020
:1002E00028964EAD5FAD28974150510928965FAFD3
:1002F0004EAF2897E1E0F0E0EC0FFD1FE60DF71D93
:10030000830120E3009709F46AC028964EAD5FADE3
:1003100028970417150708F062C00032110509F488
:100320005EC00F5F1F4F2193EDCF29A1203111F443
:10033000E89484F8712C612CBDCF81E485FE81E6C0
:10034000AE014F5F5F4F5FA34EA3712C612C8A50AB
:100350008FA7A9A0B12CC12CD12CE12CF12C00E04D
:1003600010E02AA13BA14CA1552D642D7DA1832D28
:10037000922D0E94C1232A3074F5205D8FEF681AF8
:10038000780AEEA1FFA12193FFA3EEA3A9A0B12CAF
:10039000C12CD12CE12CF12C00E010E02AA13BA1D2
:1003A0004CA1552D642D7DA1832D922D0E94C32338
:1003B0002AA33BA34CA3552E462E7DA3382E292ECF
:1003C000A0E00E94622409F475CFF0E26F16710478
:1003D00009F0BFCF6FCF5FA5250FD0CF8301E1E03C
:1003E000F0E0EC0FFD1FE00FF11F80E326962EAD2D
:1003F0003FAD26970217130738F40032110520F499
:100400000F5F1F4F8193F2CF39A1383029F4601666
:10041000710610F4E89484F8C40180719071892BFE
:1004200009F447C092FC25C00115110511F126966B
:100430004EAD5FAD26974017510739F028968EAD27
:100440009FAD289708171907A1F46016710608F0E8
:1004500099C0C801019759F0E9A1E03109F06EC0D7
:10046000025011096816790640F08C0106C010E0B0
:1004700000E0F9A1F03109F062C085FC54C00032FF
:10048000110540F5E1E0F0E0EC0FFD1FE00FF11F7A
:1004900088E780830F5F1F4F00321105D8F4E1E039
:1004A000F0E0EC0FFD1FE00FF11F80E380830F5F92
:1004B0001F4F0032110570F438A5332309F44EC0E4
:1004C000E1E0F0E0EC0FFD1FE00FF11F8DE2808313
:1004D0000F5F1F4F64012896EEACFFAC28979E017A
:1004E0002F5F3F4F4DA55EA56BA57CA589A59AA55D
:1004F0000E948D00AF960FB6F894DEBF0FBECDBF41
:10050000DF91CF911F910F91FF90EF90DF90CF90EF
:10051000BF90AF909F908F907F906F905F904F9023
:100520003F902F90089500321105A0F6E1E0F0E031
:10053000EC0FFD1FE00FF11F88E5ABCF8C0129A167
:10054000223009F0A9CF0032110520F6E1E0F0E0F9
:10055000EC0FFD1FE00FF11F82E69BCF82FE08C06B
:10056000E1E0F0E0EC0FFD1FE00FF11F8BE2AFCFF9
:1005700083FEB0CFE1E0F0E0EC0FFD1FE00FF11FD4
:1005800080E2A5CF49A14031D1F677CF2F923F929B
:100590004F925F926F927F928F929F92AF92BF9293
:1005A000CF92DF92EF92FF920F931F93CF93DF933F
:1005B000CDB7DEB76E970FB6F894DEBF0FBECDBFD6
:1005C00009871A872B873C874D875E876F87788BD3
:1005D00023964EAC5FAC23978C8A9D8AAE8ABF8AE5
:1005E000C88ED98EEA8EFB8E8C8F29AD3AAD232B27
:1005F00009F49EC00A8B1B8B6B847C844A011B010F
:10060000EDADFEADF3FF3EC0E4FD3CC0202F312F29
:10061000A301B401C101A0E00E94622409F00CF41E
:100620009AC02AE0A22EB12CC12CD12CE12CF12CA5
:1006300000E010E02A893B89A301B401C1010E94B6
:100640009023A0E00E94622499F429AD3AAD215094
:1006500031093AAF29AF2A893B89A301B401C1010D
:100660000E9492232A8B3B8B3A014B011C01D9CF6C
:100670002A893B89A301B401C101A0E00E94622440
:1006800009F469C021968EAD9FAD2197840D951D0B
:100690009E8F8D8F90E24916510408F096C0E9AD07
:1006A000FAAD3197FAAFE9AFFFEF4F1A5F0A9AE060
:1006B000A92EB12CC12CD12CE12CF12C00E010E0A2
:1006C0002A893B89A301B401C1010E949023205DC6
:1006D000ED8DFE8D2193FE8FED8F2A893B89A3013D
:1006E000B401C1010E9492232A8B3B8B3A014B013A
:1006F0001C01A0E00E94622469F62196EEADFFADD8
:100700002197E40DF51D80E320E24216510409F41F
:100710005CC03FEF431A530A29AD3AAD21153105AC
:1007200009F4DAC08193215031093AAF29AFECCFF7
:100730003DAD34FF10C080E24816510408F045C0BA
:100740002196EEADFFAD2197E40DF51D8EE280837D
:10075000F20131962F0121966EAC7FAC2197640C8B
:10076000751CF0E24F16510480F52FEF421A520A21
:100770008AE0A82EB12CC12CD12CE12CF12C00E068
:1007800010E02C893D894E895F89688D798D8A8D2D
:100790009B8D0E949023205DF30121933F012C89C2
:1007A0003D894E895F89688D798D8A8D9B8D0E94E8
:1007B00092232C8B3D8B4E8B5F8B688F798F8A8F2A
:1007C0009B8FA0E00E94622461F6FDADF1FD29C07F
:1007D000F0FF27C02BAD3CAD232B19F13C8D31111F
:1007E00006C08DAD9EAD8C709927892B29F08BADFD
:1007F0009CAD01979CAF8BAF2196EEADFFAD2197DD
:10080000E40DF51D80E32BAD3CAD4216530648F4D4
:1008100030E243165104C0F49FEF491A590A8193FC
:10082000F2CFE0E24E16510478F4FC8DFF23B1F1D3
:100830002196EEADFFAD2197E40DF51D8DE280838D
:1008400092012F5F3F4F2901CDACDEACEBACFCAC8D
:10085000820121962EAD3FAD21974FA958AD6DA9CC
:100860007EA98BA99CA90E948D006E960FB6F89464
:10087000DEBF0FBECDBFDF91CF911F910F91FF90D3
:10088000EF90DF90CF90BF90AF909F908F907F9030
:100890006F905F904F903F902F9008953DAD32FF45
:1008A0000CC02196EEADFFAD2197E40DF51D8BE256
:1008B0008083C20101962C01C7CF9DAD93FFC4CFA9
:1008C0002196EEADFFAD2197E40DF51D80E280830A
:1008D000F20131962F01B8CF8EE280833CCF833076
:1008E00081F028F4813099F08230A9F008958730A2
:1008F000A9F08830C9F08430B1F4809180008F7DF8
:1009000003C0809180008F7780938000089584B524
:100910008F7784BD089584B58F7DFBCF8091B00023
:100920008F778093B00008958091B0008F7DF9CFCC
:10093000CF93DF93282F30E0F901E255FF4F8491E8
:10094000F901E656FF4FD491F901EA57FF4FC491E0
:10095000CC23A1F081110E946F04EC2FF0E0EE0F88
:10096000FF1FE458FF4FA591B491EC91ED2381E076
:1009700090E009F480E0DF91CF91089580E090E06D
:10098000FACF1F93CF93DF93282F30E0F901E25580
:10099000FF4F8491F901E656FF4FD491F901EA57D0
:1009A000FF4FC491CC23A9F0162F81110E946F0430
:1009B000EC2FF0E0EE0FFF1FEE58FF4FA591B49122
:1009C0008FB7F894EC91111108C0D095DE23DC9319
:1009D0008FBFDF91CF911F910895DE2BF8CFCF937A
:1009E000DF9390E0FC01E656FF4F24918A579F4F1A
:1009F000FC0184918823C9F090E0880F991FFC01C5
:100A0000E859FF4FA591B491FC01EE58FF4FC591F5
:100A1000D49161110DC09FB7F8948C9120958223D9
:100A20008C938881282328839FBFDF91CF910895DD
:100A3000623051F49FB7F8943C91822F80958323C4
:100A40008C93E8812E2BEFCF8FB7F894EC912E2B5F
:100A50002C938FBFEACF8E50806480937C0080916E
:100A60007A00806480937A0080917A0086FDFCCFC2
:100A7000809178009091790008953FB7F894809123
:100A8000CD059091CE05A091CF05B091D00526B5AA
:100A9000A89B05C02F3F19F00196A11DB11D3FBFB6
:100AA000BA2FA92F982F8827BC01CD01620F711D85
:100AB000811D911D42E0660F771F881F991F4A957F
:100AC000D1F708958F929F92AF92BF92CF92DF920B
:100AD000EF92FF924B015C010E943D056B017C018E
:100AE0000E943D056C197D098E099F09683E73407F
:100AF00081059105A8F321E0821A9108A108B108A7
:100B000088EEC80E83E0D81EE11CF11C811491040C
:100B1000A104B10429F7FF90EF90DF90CF90BF9030
:100B2000AF909F908F900895CF93DF93C82FD0E020
:100B3000CD50D94F61E088810E94C10462E370E02A
:100B400080E090E00E94620560E088810E94C1041C
:100B500069E170E080E090E0DF91CF910C94620554
:100B60002FB7F8946091C9057091CA058091CB05A3
:100B70009091CC052FBF0895CF93DF93EC0168834C
:100B8000198288E1EBE2F1E0DE01139601900D920B
:100B90008A95E1F70E94B0056B8F7C8F8D8F9E8FB9
:100BA0001A82DF91CF9108958091BD058F5F809368
:100BB000BD0560911C0185E00E94C10480911C016B
:100BC00091E0892780931C012091BD0580911D0132
:100BD00090911E01880F991F2817190621F01CF00B
:100BE00080E18093810008950895AF92BF92CF92E3
:100BF000DF92EF92FF920F931F93CF93DF936C01DD
:100C00007B018B01040F151FEB015E01AE18BF08BD
:100C1000C017D10759F06991D601ED91FC9101906F
:100C2000F081E02DC6010995892B79F7C501DF9187
:100C3000CF911F910F91FF90EF90DF90CF90BF90D9
:100C4000AF900895FC01538D448D252F30E0842F03
:100C500090E0821B930B541710F0CF9608950197E4
:100C60000895FC01918D828D981761F0A28DAE0FD1
:100C7000BF2FB11D5D968C91928D9F5F9F73928F58
:100C800090E008958FEF9FEF0895FC01918D828D84
:100C9000981731F0828DE80FF11D858D90E0089551
:100CA0008FEF9FEF0895FC01918D228D892F90E0A9
:100CB000805C9F4F821B91098F739927089580EE66
:100CC00095E00E94530621E0892B09F420E0822F51
:100CD000089580E090E0892B29F00E945F06811141
:100CE0000C9400000895FC01A48DA80FB92FB11D2C
:100CF000A35ABF4F2C91848D90E001968F73992752
:100D0000848FA689B7892C93A089B1898C9183702F
:100D100080648C93938D848D981306C00288F38928
:100D2000E02D80818F7D80830895EF92FF920F9355
:100D30001F93CF93DF93EC0181E0888F9B8D8C8D87
:100D400098131AC0E889F989808185FF15C09FB77B
:100D5000F894EE89FF896083E889F989808183703E
:100D6000806480839FBF81E090E0DF91CF911F91ED
:100D70000F91FF90EF900895F62E0B8D10E00F5F0E
:100D80001F4F0F731127E02E8C8D8E110CC00FB6E4
:100D900007FCFACFE889F989808185FFF5CFCE017C
:100DA0000E947306F1CFEB8DEC0FFD2FF11DE35A7E
:100DB000FF4FF0829FB7F8940B8FEA89FB898081FF
:100DC0008062CFCFCF93DF93EC01888D8823B9F079
:100DD000AA89BB89E889F9898C9185FD03C0808146
:100DE00086FD0DC00FB607FCF7CF8C9185FFF2CFC3
:100DF000808185FFEDCFCE010E947306E9CFDF91A0
:100E0000CF910895089508952F923F924F925F9247
:100E10006F927F928F929F92AF92BF92CF92DF920A
:100E2000EF92FF920F931F93CF93DF93CDB7DEB76F
:100E300060970FB6F894DEBF0FBECDBF988B8F873B
:100E40006A017B013E872D87DB01CA018827B7FD38
:100E500083959927AA27BB27282F2170EF85F8892A
:100E6000208B892B21F0F7FAF094F7F8F094C70162
:100E7000B6010E94532529833A834B835C836D839B
:100E80007E838F839887AF85B8892C9311963C9386
:100E9000119712964C93129713965C93139714968E
:100EA0006C93149715967C9315978F8116968C9357
:100EB0001697988517969C93ED85FE85EE0FFF1F7C
:100EC000EE0FFF1FED5BFE4F80819181A281B38108
:100ED00089879A87AB87BC878F8198850E94C525B3
:100EE0009B01AC01C701B6010E94742429853A8593
:100EF0004B855C850E941B222B013C010E945325DF
:100F0000822E232E342E952E5B018C01AF85B8895D
:100F100018962C93189719963C9319971A964C93F8
:100F20001A971B965C931B971C966C931C971D96A7
:100F3000BC921D971E968C931E971F961C930E9421
:100F4000C5259B01AC01C301B2010E9474242B0191
:100F50003C0120E030E040E05FE30E9419261816D3
:100F60000CF0D0C0282D322D432D592DB501C801CC
:100F7000A1E00E94562439014A015B018C010E94C4
:100F8000C5259B01AC0169857A858B859C850E946E
:100F9000B52118160CF087C0EF85F8896086718638
:100FA00082869386A486B58606871787ED85FE859B
:100FB000EF2B09F05DC0AF85B8891C9111966C903C
:100FC000119712967C90129713968C901397149603
:100FD0009C9014971596AC9015971696BC90169702
:100FE00017960C91212F362D472D582D692D7A2DCE
:100FF0008B2D902F0E94C5259B01AC01C701B60126
:101000000E9474246B017C0120E030E040E05FE34B
:101010000E94B52187FF0AC020E030E040E05FE396
:10102000C701B6010E941926181614F5212F217048
:1010300030E040E050E060E070E080E090E0A0E070
:101040000E946224A9F0212F362D472D582D692D9D
:101050007A2D8B2D902FA1E00E945624EF85F889E0
:10106000208331834283538364837583868397838C
:101070008F85988960960FB6F894DEBF0FBECDBFFE
:10108000DF91CF911F910F91FF90EF90DF90CF9064
:10109000BF90AF909F908F907F906F905F904F9098
:1010A0003F902F900895AF85B88918961C92189795
:1010B00019961C9219971A961C921A971B961C92B5
:1010C0001B971C961C921C971D961C921D971E9692
:1010D0001C921E971F961C9229813A814B815C813C
:1010E0006D817E818F819885A1E00E945624EF85D5
:1010F000F889208331834283538364837583868395
:10110000978354CF20E030E040E05FE3C301B201B9
:101110000E94B52181114ACF282D322D432D592D02
:10112000B501C801A0E00E94622461F0217030E0A6
:1011300040E050E060E070E080E090E00E946224D7
:1011400009F434CF282D322D432D592DB501C80176
:10115000A1E00E945624AF85B88918962C93189761
:1011600019963C9319971A964C931A971B965C9371
:101170001B971C966C931C971D967C931D971E962F
:101180008C931E971F969C9311CF2F923F924F9254
:101190005F926F927F928F929F92AF92BF92CF9207
:1011A000DF92EF92FF920F931F93CF93DF93CDB710
:1011B000DEB7E6970FB6F894DEBF0FBECDBF9CA793
:1011C0008BA76DA77EA758AB4FA70A8B1B8B2C8BC9
:1011D0003D8BFF8EEE8EDAAAC9AAB9A6A8A68BAA65
:1011E0009CAA2C962FAD2C972DAB2D963FAD2D970D
:1011F0003EAB8A899B89AC89BD898827B7FD8395D9
:101200009927AA27BB278E8B9F8BA88FB98F0E8912
:101210001F890115110549F02A893B894C895D898F
:1012200050582A8B3B8B4C8B5D8B20E030E0A90122
:101230006A897B898C899D890E94B521312C212C5A
:10124000882309F40FC18A899B89AC89BD89E7E1AC
:10125000B695A79597958795EA95D1F799278F57D2
:101260009109BC01990F880B990B0E94BC212BE9B5
:1012700030E24AE95EE30E941B2224E431E544E3C4
:101280005EE30E9475246B017C016A897B898C89ED
:101290009D898F77992780689F6320E030E040EC3C
:1012A0005FE30E9474242BE33DE344E95EE30E9484
:1012B0001B229B01AC01C701B6010E9475240E944C
:1012C0008F256A8F7B8F8C8F9D8F2A8C3B8CB101F1
:1012D000032C000C880B990B0E94BC216B017C0134
:1012E00028E73AE944E550E40E941B2220E030E080
:1012F00040E05FE30E9475240E948F254B012EE899
:101300003DE543E150E4C701B6010E941B226B0199
:101310007C01092C000CAA08BB08C501B4010E947D
:10132000BC2128E132E741E35FE30E941B229B01DD
:10133000AC01C701B6010E9474242B013C01AC0131
:101340009B010E941B226B017C01A3019201C3013E
:10135000B2010E94752468A379A38AA39BA320E00D
:1013600030E040E651E4C701B6010E94E12420E0EC
:1013700030E040E251E40E9475249B01AC01C701BA
:10138000B6010E94E12420E030E040EC50E40E94ED
:1013900075249B01AC01C701B6010E94E1246B01D9
:1013A0007C01A301920160E070E080E090E40E9483
:1013B00074249B01AC01C701B6010E9475249B01F6
:1013C000AC0168A179A18AA19BA10E94E12420E03F
:1013D00030E040E85FE30E9475243FE7830E911CF4
:1013E000A11CB11CA5019401F7E1220F331F441F7A
:1013F000551FFA95D1F70E941B222B013C01AC012D
:101400009B016A897B898C899D890E94B52187FF10
:101410000DC041E0241A310820E030E040E251E400
:10142000C301B2010E94E1242B013C01C10141969C
:1014300051E05AA78332910508F01AA6839790F4D9
:10144000C10137FE04C08827992782199309880FA4
:10145000991F880F991FFC01ED5BFE4F4080518062
:101460006280738088A599A593FF8DC1AE8DBF8DD5
:101470009D01AB2B11F421E030E08E8D9F8D019703
:10148000BCEF2B16BFEF3B060CF467C022163306E9
:101490000CF063C082199309AA24A3949F8F8E8FA6
:1014A00097FF02C01F8E1E8EE8A5F9A5F460F9A76C
:1014B000E8A737FE1AA6A110C1C12114310409F40E
:1014C00075C18E898170898BFAA5FF2309F463C1E8
:1014D000A30192016A897B898C899D890E941B22C4
:1014E0001AA50E9453252E8B3A8F48A35CA36DA3A7
:1014F0007EA3882E9FA30E94C5252AA5A30122238F
:1015000071F192010E94E1249B01AC016A897B89FF
:101510008C899D890E9474246B017C01EE8DFF8D66
:10152000EE0FFF1FEE0FFF1FED5BFE4F80819181DD
:10153000A281B3818A8B9B8BAC8BBD8B112399F0DD
:10154000A3019201BC01CD010E941B229B01AC01B1
:10155000C701B6010E941B223DC0A12C9FCF920162
:101560000E941B22D1CFD301C20157E1B695A795A6
:10157000979587955A95D1F799279C012F5731094F
:1015800037FF03C03195219531098A899B89AC8940
:10159000BD8947E1B695A795979587954A95D1F767
:1015A00099278F57910997FF03C0919581959109CC
:1015B000821793070CF07DC02A893B894C895D898D
:1015C000C301B2010E94E1249B01AC01C701B60135
:1015D0000E94E1242B013C01AE8DBF8DAB2B09F0A5
:1015E00071C011E020E030E040E05FE30E94192686
:1015F00087FD10E0212F30E040E050E060E070E037
:1016000080E090E0AE88BA8CC8A0DCA0EDA0FEA07F
:10161000082D1FA10E944D242E8B3A8F48A35CA356
:101620006DA37EA3882E9FA320E030E040E05FE31F
:10163000C301B2010E94B521811103C0BE89BE7FE2
:10164000BE8B10E0B12CC12C912CD12CE12CF12CB3
:1016500000E02E893A8D48A15CA16DA17EA1882D64
:101660009FA1A9E00E946224A9F0A4F03FEF231AF1
:10167000330A10E0B12CC12C912CD12CE12CF12C8F
:1016800000E041E04E8B1A8E18A21CA21DA21EA2E1
:10169000812C1FA2C1018D599F4F512C25E0622E34
:1016A000712C873C910508F027C184E0682E712CCD
:1016B00023C1A30192016A897B898C899D890E943B
:1016C000E12444CF0E94532559016A017B01082F70
:1016D000992E0E94C5259B01AC01C301B2010E9455
:1016E00074242B013C0111E020E030E040E05FE396
:1016F0000E94192687FD10E0212F30E040E050E0E5
:1017000060E070E080E090E0192D0E944D24122FDF
:10171000B32EC42E952ED62EE72EF82E092F20E0BC
:1017200030E040E05FE3C301B2010E94B5218111C6
:1017300001C01E7F212F3B2D4C2D592D6D2D7E2D4F
:101740008F2D902F0E94C5259B01AC016A897B8952
:101750008C899D890E94B52118160CF47ACF2E89A8
:101760003A8D48A15CA16DA17EA1882D9FA1A1E029
:101770000E9456242E8B3A8F48A35CA36DA37EA3B0
:10178000882E9FA35ECF37FC98CE2114310471F0D0
:101790008E898170898BA30192016A897B898C89EA
:1017A0009D890E94E12410E01AA69BCEA12C012B5A
:1017B00009F046C02E8D3F8D4A895B896C897D89F1
:1017C000CE0101960E940407F981FE8B2A812A8F9F
:1017D0003B8138A34C814CA35D815DA38E818EA398
:1017E0008F8098859FA31985BA84CB849C84DD84DF
:1017F000EE84FF8408892DCF2E8D3F8D4A895B8929
:101800006C897D89CE0101960E940407A981AE8B67
:10181000BA81BA8FEB81E8A3FC81FCA32D812DA3B3
:101820003E813EA38F8048854FA31985BA84CB841F
:101830009C84DD84EE84FF84088927C0012BE1F2BB
:101840004A895B896C897D8970582E8D3F8DCE01C8
:1018500001960E940407E981EE8BFA81FA8F2B81B1
:1018600028A33C813CA34D814DA35E815EA38F8064
:1018700088858FA31985BA84CB849C84DD84EE840B
:10188000FF840889AA2009F4E4CE68A479A4662418
:1018900098E07922A8A5B9A555245394B3FF2CC08C
:1018A000BFEF2B163B0624F13101EFEF6E1A7E0AD3
:1018B0002E893A8D48A15CA16DA17EA1882D9FA1A2
:1018C0000E94C525F301EE0FFF1FEE0FFF1FED5B1A
:1018D000FE4F20813181428153810E94B5218111C7
:1018E00007C02E8D3F8D215031093F8F2E8F130160
:1018F00055245394712C612C88A599A58270992741
:101900009B8B8A8B98A591FF03C06114710441F4ED
:10191000A9A9BAA9CD01861997096A167B0610F004
:1019200090E080E0BE89B983EA8DEA83F8A1FB8369
:101930002CA12C833DA13D834EA14E838F825FA1BC
:1019400058871987BA86CB869C86DD86EE86FF8609
:10195000088BAEA9AF93BDA9BF93ECA9EF93FBA9E8
:10196000FF9329A52F9338A53F939F938F934F8D76
:101970004F935E8D5F9388A98F939FA59F93AEA58C
:10198000AF93BDA5BF93ECA5EF93FBA5FF93898013
:101990009A80AB80BC80CD80DE80EF80F8840985A2
:1019A0001A852B853C854D855E856F85788989896B
:1019B0000E94C6020FB6F894DEBF0FBECDBF511015
:1019C00067C02C013FEF431A530A48A5E5E445FFE1
:1019D000E5E62FEF3FEFAC016DA57EA58E2FEBA5C1
:1019E000FCA50995A32CAA1CAA24AA1C6101E32C1E
:1019F000EE0CEE08FE2C0E2D1E2DFE2DEE2D91016F
:101A00004E2D5E2D6E2D7E2D8E2D9E2DA0E00E94E2
:101A100062243CF40E94202469017A018B01F82F92
:101A2000E92F1F9285E08F9321E0621A71087F925F
:101A30006F921F921F929AE0892E2F2F3E2FA201A4
:101A40006DA57EA58BA59CA50E9417010F900F90F8
:101A50000F900F900F900F904A895B89452BC1F032
:101A60009C01AFA5B8A92A1B3B0BE9A9FAA92E171F
:101A70003F0770F48C010F5F1F4F2FEF3FEFAC015A
:101A80006DA57EA580E2EBA5FCA50995C801E8CF70
:101A9000E6960FB6F894DEBF0FBECDBFDF91CF91B3
:101AA0001F910F91FF90EF90DF90CF90BF90AF907C
:101AB0009F908F907F906F905F904F903F902F906E
:101AC00008952F923F924F925F926F927F928F92E2
:101AD0009F92AF92BF92CF92DF92EF92FF920F93BD
:101AE0001F93CF93DF93CDB7DEB7E7970FB6F89488
:101AF000DEBF0FBECDBF1C016AAB7BAB4CAB5DAB99
:101B000028013901CEAADFAA6501B82CA9019801E4
:101B1000C301B8010E94B521882331F1EEA8FFA8C6
:101B200003E010E026EA31E04CA95DA96AA97BA98F
:101B3000C1010E948D00E7960FB6F894DEBF0FBE7C
:101B4000CDBFDF91CF911F910F91FF90EF90DF906C
:101B5000CF90BF90AF909F908F907F906F905F904D
:101B60004F903F902F9008952FEF3FEF4FE75FEF9B
:101B7000C301B8010E94B52187FF07C0EEA8FFA8E6
:101B800004E010E02AEA31E0CFCF2FEF3FEF4FE73C
:101B90005FE7C301B8010E94192618166CF404E02F
:101BA00010E02DE931E0C2FC04C003E010E022EABD
:101BB00031E0EEA8FFA8B8CF9E012F5F3F4F49014B
:101BC000B11025C028E23BE64EE65EE4C301B80151
:101BD0000E941926181654F028E23BE64EE65EEC09
:101BE000C301B8010E94B52187FF11C01F921F9247
:101BF0005601CEA8DFA8930182014CA95DA96AA96C
:101C00007BA9C1010E94C5080F900F9094CFD2FC10
:101C100003C086E0E82EF12CF40110E000E080E340
:101C200032E1E316F10448F00F5F1F4F819391E01A
:101C3000E91AF1080032110599F7BB2019F01F933A
:101C40000F93D6CF9701B301A201CE0181960E94D6
:101C500004071F930F939F928F92DF92CF922FA929
:101C60002F933EA93F93FF92EF928DA98F939CA94A
:101C70009F932BA92F933AA93F933F922F9289A02C
:101C80009AA0ABA0BCA0CDA0DEA0EFA0F8A409A5AF
:101C90001AA52BA53CA54DA55EA56FA578A989A978
:101CA0000E94C6020FB6F894DEBF0FBECDBF43CF71
:101CB000882329F0682F80EE95E00C94950608950E
:101CC0008091C405813059F41092BD0580E1809364
:101CD000810010921C0160E085E00C94C10408951D
:101CE000EF92FF920F931F93CF93DF938C01EB0141
:101CF00080E10E942B057C018FE00E942B058E1550
:101D00009F05C4F480E10E942B059801DC010E942C
:101D1000812320E034E040E050E00E94EF22C20F37
:101D2000D31F888190E0DF91CF911F910F91FF9099
:101D3000EF9008958FE0E7CF0F931F93CF93DF933A
:101D4000EC019981923050F4888160E0911161E05A
:101D5000DF91CF911F910F910C94C1040E94B005A7
:101D60000B8D1C8D2D8D3E8D601B710B820B930B8B
:101D7000E98124E0E29FF0011124EC0FFD1F0381B3
:101D8000148125813681061717072807390760F463
:101D90000E94B0056B8F7C8F8D8F9E8F6A8181E052
:101DA00068276A838881D4CFDF91CF911F910F91EB
:101DB000089528E1EBE2F1E0DC01139601900D9229
:101DC0002A95E1F708954F925F926F927F928F92DA
:101DD0009F92AF92BF92CF92DF92EF92FF92FC015F
:101DE0009B01C080D180E280F380812C912C540132
:101DF00090E080E0B701A601AAE076956795579537
:101E00004795AA95D1F726013701BEE176946794EC
:101E100057944794BA95D1F74425552566257725DB
:101E20004C255D256E257F2526013701442477FC4E
:101E30004394552466247724442555256625772523
:101E40004170552766277727F694E794D794C7946F
:101E50002A013B0177244694779466245524442430
:101E6000C428D528E628F728880C991CAA1CBB1C76
:101E700026013701A1E04A225524662477248428CC
:101E80009528A628B72801962817390709F0B2CF58
:101E900080869186A286B386C082D182E282F38256
:101EA0004483558366837783C501B401FF90EF9027
:101EB000DF90CF90BF90AF909F908F907F906F906A
:101EC0005F904F9008958F929F92AF92BF92CF9262
:101ED000DF92EF92FF92CF93DF938091C40583301E
:101EE00081F46BE071E086E090E0DF91CF91FF90AC
:101EF000EF90DF90CF90BF90AF909F908F900C9419
:101F0000700E8091C405843009F055C080E10E94B4
:101F10002B05EC018FE00E942B057C0126E030E0D0
:101F2000DE010E948923812C24E0922EA12CB12C69
:101F3000A50194010E94EF22255F3E4FF901C08167
:101F400026E030E0D7010E948923A50194010E9478
:101F5000EF22255F3E4FF901C080D12CFFEFCF1A51
:101F6000DF0AD0E0CC15DD05D4F4CC1ADD0A0D2C47
:101F7000000CEE08FF08C114D104E104F10469F07B
:101F800064E070E08091C1059091C2050E94E30E6B
:101F9000A70196010E9450236B01CC0DDD1DCE01DF
:101FA000DF91CF91FF90EF90DF90CF90BF90AF90F7
:101FB0009F908F90089560E071E08BE090E095CF66
:101FC000CF92DF92EF92FF92CF93DF9381E10E9455
:101FD0002B05EC018EE00E942B058C179D076CF5FC
:101FE00081E10E942B05EC0167E070E08091C10562
:101FF0009091C2050E94E30E24E630E040E050E0FC
:102000000E9450236B0124E630E0DE010E94892308
:102010002FEF33E040E050E00E94EF22C216D306DB
:1020200074F461E086E00E94C10481E0DF91CF9109
:10203000FF90EF90DF90CF9008958EE0D2CF60E0D8
:1020400086E00E94C10480E0F1CFCF92DF92EF9250
:10205000FF92CF93DF9380E1809381000E943D0542
:102060006093B9057093BA058093BB059093BC0546
:102070008091B8058F5F8093B8058091B9059091E4
:10208000BA05A091BB05B091BC0540917D06509169
:102090007E0660917F0670918006C090B405D09056
:1020A000B505E090B605F090B7058C0D9D1DAE1DF1
:1020B000BF1D841B950BA60BB70B8093B4059093A3
:1020C000B505A093B605B093B7058091B905909179
:1020D000BA05A091BB05B091BC0580937D06909395
:1020E0007E06A0937F06B09380068091B805863067
:1020F00008F16091B4057091B5058091B605909195
:10210000B7052091B80530E050E040E00E94502330
:10211000209318013093190140931A0150931B0129
:102120001092B8051092B4051092B5051092B6053C
:102130001092B705609111018DE00E94C104809159
:102140001101C1E08C27809311010E94630F9093CD
:102150001E0180931D0180911D0190911E01892B0C
:1021600051F460E085E0DF91CF91FF90EF90DF9038
:10217000CF900C94C10480911D0190911E01019794
:1021800009F094C01092BD052091180130911901F9
:1021900040911A0150911B01569547953795279507
:1021A000A0EAB0E00E940E236B017C0124E130E044
:1021B00040E050E00E9450232115310581E048079E
:1021C000510560F5C093C0053093BF052093BE054F
:1021D0008091BE059091BF05909387008093860003
:1021E0008091C005806180938100109281001092DF
:1021F0008500109284008091C005806180938100E9
:1022000061E085E00E94C10481E080931C01DF91C0
:10221000CF91FF90EF90DF90CF9008952115310579
:1022200088E04807510560F482E08093C005C7014B
:10223000B60120EA30E040E050E00E945023C4CFD5
:102240002115310580E44807510550F483E080935F
:10225000C005C701B60120E035E040E050E0EDCF19
:1022600021153105410581E0580750F484E0809341
:10227000C005C701B60120E034E140E050E0DDCF09
:1022800085E08093C005211531054105544038F49F
:10229000C701B60120E030E540E050E0CECF8FEF3F
:1022A0009FEF9093BF058093BE0592CFD091C40558
:1022B000D13009F4EFC01092BD0561E085E00E94C5
:1022C000C104C0931C01D091C405D43009F079C079
:1022D000609118017091190180911A0190911B0170
:1022E00020911D0130911E019695879577956795F0
:1022F000032E000C440B550B0E945023A0EAB0E0C3
:102300000E940E236B017C0124E130E040E050E0AC
:102310000E9450232115310581E048075105F8F44A
:10232000C093C0053093BF052093BE058091BE05C4
:102330009091BF0590938700809386008091C0059F
:10234000806180938100109281001092850010922C
:1023500084008091C00580618093810058CF211551
:10236000310588E04807510560F482E08093C0059C
:10237000C701B60120EA30E040E050E00E9450235F
:10238000D1CF2115310580E44807510550F483E091
:102390008093C005C701B60120E035E040E050E081
:1023A000EDCF21153105410581E0580708F05CC0EB
:1023B000D093C005C701B60120E034E140E050E011
:1023C000DDCF0E94E00F882309F441C0609118011D
:1023D0007091190180911A0190911B0120911D01AA
:1023E00030911E019695879577956795032E000C81
:1023F000440B550B0E945023A0EAB0E00E940E232C
:102400006B017C0124E130E040E050E00E94502369
:102410002115310581E04807510508F481CF2115C8
:10242000310588E04807510508F49FCF2115310593
:1024300080E44807510508F4AACF2115310541056C
:1024400081E0580788F484E08093C005B3CF2091E1
:1024500018013091190140911A0150911B015695B4
:10246000479537952795C8CF85E08093C0052115FE
:1024700031054105544038F4C701B60120E030E58C
:1024800040E050E07BCF8FEF9FEF9093BF058093AC
:10249000BE054CCF8091BD058F5F8093BD050E9426
:1024A000E00F882309F45DCE2091BD0580911D01C8
:1024B00090911E01281719060CF453CE1092BD05F9
:1024C000D0931C0161E04ECECF93DF93EC010E94CC
:1024D000B0056C837D838E839F831886DF91CF91B7
:1024E0000895CF92DF92EF92FF920F931F93CF93B5
:1024F000DF93EB017B0124E0E20EF11C8B016C0108
:10250000C61AD70AC601800F911F0E94D922F8016E
:1025100081938F01EE15FF05A9F7CE01DF91CF91D1
:102520001F910F91FF90EF90DF90CF9008959F92B1
:10253000AF92BF92CF92DF92EF92FF920F931F93D1
:10254000CF93DF935C017B018B01D0E0C0E0F80109
:1025500091908F016501CC0EDD1EC6010E94D9222B
:10256000981621F0692DC6010E94E1222196C430FF
:10257000D10569F7C701DF91CF911F910F91FF90AE
:10258000EF90DF90CF90BF90AF909F900895EF9223
:10259000FF920F931F93CF93DF93EC017B0119827E
:1025A00018821B821A821D821C82FB01019000206E
:1025B000E9F731978F01061B170BB8016F5F7F4F4B
:1025C00090E080E00E9443270097B9F099838883C8
:1025D0001B830A832C813D81232B11F4FC01108283
:1025E0001D830C83B70188819981DF91CF911F9161
:1025F0000F91FF90EF900C940928888199810097A2
:1026000011F00E94BA26198218821D821C821B8238
:102610001A82DF91CF911F910F91FF90EF90089553
:102620002F923F924F925F926F927F928F929F92E2
:10263000AF92BF92CF92DF92EF92FF920F931F93D0
:10264000CF93DF93CDB7DEB72F970FB6F894DEBFE9
:102650000FBECDBFFE01B496619071908F01312CF9
:10266000212CD3018C91882309F4F1C3BFEF6B1A9D
:102670007B0A7101EFEFEE1AFE0A853209F0C6C03F
:10268000B12CA12C07C08D3271F1803361F46894B4
:10269000A0F83F01F30181918B3241F1A4F7803220
:1026A00041F1833249F190ED980F9A3040F51B8249
:1026B0001A82F301819190ED980F9A3098F54AE0D3
:1026C0002A813B81429F7001439FF00C112490E3CB
:1026D000E91AF108D701A80FB11D87FDBA95BB8390
:1026E000AA833F01E6CF6894A1F8D3CF6894A2F8FB
:1026F000D0CF6894A3F8CDCF6894A4F8CACF8A321B
:10270000D9F5C8010296D801ED90FC90F7FE31C0D2
:102710006894A1F8222733272E193F093B832A8387
:102720008C013F01D3018C918E3209F048C0C30166
:1027300001966894B2F811962C9130ED320F3A3030
:10274000F0F4512C412CFC01219130ED320F3A3044
:1027500098F5BAE0B49D7001B59DF00C112430E3FA
:10276000E31AF1082701420E511C27FD5A94CF01AC
:10277000EACFFB82EA82D4CF1B821A82D3CF2A32DD
:10278000E9F4C8010296D8014D905C9057FE02C052
:10279000512C412CB2E06B0E711C8C0193012F5F08
:1027A0003F4FF30180818C36A1F064F48836D9F173
:1027B0008A3661F0930112C03C01F0CF3C01512CEC
:1027C000412CECCF843711F08A37A1F76894B1F827
:1027D00005C081818C3609F16894B0F8D9018D91DA
:1027E0003D01853609F4EAC10CF0A4C0873409F430
:1027F000E5C114F5853409F4E1C10CF0C1C185329D
:1028000009F4FBC27101BFEFEB1AFB0A2FEF3FEF98
:10281000A101BE016F5F7F4FFBC2B3E0BB2A9301F2
:102820002E5F3F4FDBCF8181883619F06894A7F87F
:10283000D5CFF0ECAF2AF3CF823609F434C33CF4A1
:102840006894A5F88835F1F6F0E18F2E0DC0833637
:1028500009F4CBC18436B1F6E894A4F8AAE08A2E34
:10286000893621F0843611F0B3EFAB22B2FE02C0FC
:10287000E894A0F8950122273270893619F0843641
:1028800009F023C1232B09F49CC0F8013896F9877D
:10289000E887D801CC901196DC9011971296EC90B5
:1028A00012971396FC90139714969C901497159674
:1028B000AC91F801F681FC83F801F781FA87960163
:1028C000A701692D7A2F8C819F2F0FE30E9432245C
:1028D000B22F092D1A2FFC81EA859601A701B801B4
:1028E0008F2F9E2FA0E00E9462243CF40E9420249F
:1028F00069017A018B01F82FE92FBF92AF922B81EA
:102900002F933A813F935F924F92AB2E2F2F3E2F02
:10291000A101BE016F5F7F4F88E59EE00E94170115
:102920001C010F900F900F900F900F900F90088543
:10293000198597CE8F3609F4B3C29CF4873609F413
:102940003DC10CF41DC1893609F486CF8E3609F0DD
:1029500059CFD801ED91FD918D01A6FE5DC2208277
:1029600080CE833709F490C12CF5803709F04ACF27
:1029700065016894C0F8D4F8F8013296FB83EA83C5
:10298000D8010D911C910115110509F015C246E001
:10299000E42EF12C05E010E026EB31E0A101BE01B0
:1029A0006F5F7F4F88E59EE00E948D001C010A81C9
:1029B0001B8157CE853709F44FCF883709F444CFB0
:1029C00021CFB0FE48C0C801049699878887D801F6
:1029D000CD90DD90ED90FC90D701C6018827B7FD22
:1029E00083959927AA27BB278C879D87AE87BF87AA
:1029F000D701C601BB0F880B982FDC018C839D8308
:102A0000AE83BF83BC2D9D2CEA86FB860C81102FE4
:102A1000F02FE02F9601A7016F2F702F802F9F2F8F
:102A2000A0E00E9462244CF40E942024B22F932E36
:102A30004A875B878B01F82FE92FBF92AF929B816A
:102A40009F93AA81AF935F924F92AC84CB2ED92CE7
:102A5000EA84FB845BCFF8013296F987E887D801D6
:102A6000A6FE30C0EC910E2E000CFF0BBF2FBB1F3B
:102A7000BB27BB1FBC836F01EF2EEE0CEE08FE2CB4
:102A80000E2D1E2D9E2CBE2D9F014E2D5E2D6E2DCA
:102A90007E2D8E2D9E2DA0E00E9462243CF40E948B
:102AA000202469017A018B01982EB92FBF92AF9231
:102AB000EB81EF93FA81FF935F924F92AC80292DC7
:102AC0003B2F26CFED91FC91D1CF232B39F19801EB
:102AD000285F3F4F39872887D801CC901196DC902A
:102AE00011971296EC9012971396FC9013971496E8
:102AF0009C91149715968C91159716962C91169774
:102B000017963C91BF92AF92BB81BF93EA81EF933E
:102B10005F924F92A12C092F182FFACE9801B0FE88
:102B200019C02C5F3F4F39872887D8010D911D911F
:102B30002D913C91BF92AF92BB81BF93EA81EF93FD
:102B40005F924F92A12C6801790100E010E020E033
:102B500030E0DECE2E5F3F4F39872887D8010D91B8
:102B60001C91A6FC1127BF92AF92BB81BF93EA8153
:102B7000EF935F924F92A12C6801E12CF12CE5CFED
:102B8000863411F46894A5F898012C5F3F4F3D837B
:102B90002C83D8010D911D912D913C91812CCA80DF
:102BA000DB807201A101BE016F5F7F4F88E59EE06F
:102BB0000E94610D1C010C811D8153CD982F9F7DBA
:102BC000973419F46894B3F88D7F853411F46894C0
:102BD000A5F8F8013496FD83EC83D8010D911D9181
:102BE0002D913C9188248394DACF4501B2E08B2269
:102BF0009924A101CC24C394D12CA1FC1AC0F12C9E
:102C0000E12CA1014E0D5F1D6701E2E0CE0ED11C4B
:102C1000FFEFEF1AFF0A2A813B81E216F30648F420
:102C20002FEF3FEFBE016F5F7F4F80E20E94580E93
:102C3000E8CF1A013FEF231A330A780182E0E80E49
:102C4000F11C2FEF3FEFBE016F5F7F4FD8018C91DA
:102C50000E94580E8928B1F0EA81FB81CE16DF066A
:102C600088F481010F5F1F4F2FEF3FEFA101BE01DD
:102C70006F5F7F4F80E20E94580EFFEFCF1ADF0A8E
:102C80001801EACF8701EDCC98012E5F3F4F3987BD
:102C90002887D8010D911C910115110589F4650152
:102CA000EA80FB8006E010E02FEA31E0A101BE01DE
:102CB0006F5F7F4F88E59EE00E948D001C0137CE3C
:102CC00092014114510411F42FEF3FEFF80190E00D
:102CD00080E0AF014F5F5F4F6081662331F0821764
:102CE000930719F00196FA01F4CFE01BF10B95015F
:102CF000222734703D832C83B2FE04C04E165F063B
:102D000008F4F201450132E0832299247F01A101F8
:102D1000A1FC18C02E1A3F0AA1014E0F5F1F7F01B0
:102D20008FEFE81AF80AAA81BB81EA17FB0750F473
:102D30002FEF3FEFBE016F5F7F4F80E20E94580E82
:102D4000F701EACF6A01C01AD10AA601400F511F4C
:102D5000F80181918F01882391F02C813D81232BF3
:102D600031F0920121503109452849F029012FEF16
:102D70003FEFBE016F5F7F4F0E94580EE6CF1A01F2
:102D8000892809F4D4CDE41AF50AC701820D931DF0
:102D9000AA81BB818A179B0708F0C9CD81010F5F0B
:102DA0001F4F2FEF3FEFA101BE016F5F7F4F80E20A
:102DB0000E94580E1801E9CFDF92CF921F92B6E021
:102DC000BF935F924F9230E1832EA12C6801E12CDA
:102DD000F12C00E010E020E030E0A101BE016F5FC7
:102DE0007F4F88E59EE00E9417011C010F900F9015
:102DF0000F900F900F900F90DACD7101EFEFEE1A58
:102E0000FE0A2FEF3FEFA101BE016F5F7F4F85E20A
:102E10000E94580E170125CCA7FE03C031822082E4
:102E200020CCB0FE08C0C101B0E0A0E08083918357
:102E3000A283B38316CCB1FEF1CF410120829182EF
:102E40001282138214821582168217820ACCA10183
:102E5000EFEF2E163E0611F44EEF5FEF2FEF3FEF30
:102E6000BE016F5F7F4F80E00E94580EC1012F9618
:102E70000FB6F894DEBF0FBECDBFDF91CF911F918B
:102E80000F91FF90EF90DF90CF90BF90AF909F9009
:102E90008F907F906F905F904F903F902F9008950C
:102EA00028E0822EE1CC92E0892EDECC823031F116
:102EB00088F48823C9F08130F1F01F928F938CEB56
:102EC00091E09F938F930E9410130F900F900F909B
:102ED0000F9008958330B1F0843079F71092D506C1
:102EE0001092970682E013C0109297061092B606D1
:102EF0001092D506089580939706F8CF81E08093CD
:102F0000D50608951092D5061092970681E0809319
:102F1000B6060895BF92CF92DF92EF92FF920F9381
:102F20001F93CF93DF93CDB7DEB728970FB6F894F2
:102F3000DEBF0FBECDBF6D837E838F839887809168
:102F4000D5059091D605089708F4B7C08091D405AF
:102F50008F938091D3058F9389ED91E09F938F9309
:102F60000E94101383E393E3DC0189839A83AB838C
:102F7000BC83BE016F5F7F4F8091D3059091D405D4
:102F80000E9497122091D1053091D205285F3F4FC2
:102F90008091D5059091D60508970F900F900F90CE
:102FA0000F9082179307C0F480E092E09F938F9375
:102FB0000E9410131F921F9280E592E09F938F93BF
:102FC0000E9410131092D2051092D1050F900F900D
:102FD0000F900F900F900F908091D2058F9380915A
:102FE000D1058F9382E792E09F938F930E941013F5
:102FF00086E696E6DC0189839A83AB83BC83BE01B7
:103000006F5F7F4F8091D1059091D2050E949712FA
:103010008091D1059091D2059C01285F3F4F3F934D
:103020002F9304969F938F9389E992E09F938F93B8
:103030000E941013E090D105F090D20587010C5F3B
:103040001F4F6E0185E0C80ED11C98E0E90EF11CFF
:103050000FB6F894DEBF0FBECDBFF601B1906F0181
:10306000C8010E94D922B81621F06B2DC8010E9418
:10307000E1220F5F1F4F0E151F0579F78091D105D3
:103080009091D2059093D4058093D30508969093A0
:10309000D2058093D10588E090E028960FB6F89489
:1030A000DEBF0FBECDBFDF91CF911F910F91FF907B
:1030B000EF90DF90CF90BF9008958FEF9FEFEDCF0F
:1030C0008091C405813051F18091C405833039F578
:1030D00084E08093C4058093C30561E086E00E948C
:1030E000C1048091C4050E9456178DEA91E09F9318
:1030F0008F930E94101381E08093DB050E94B0053E
:103100006053784F8F4F9F4F6093DC057093DD05C0
:103110008093DE059093DF050F900F90089583E074
:103120008093C4058093C305DCCF8091C4058130B2
:1031300009F58091C3058093C4058DEA91E09F93C2
:103140008F930E94101381E08093DB050E94B005ED
:103150006053784F8F4F9F4F6093DC057093DD0570
:103160008093DE059093DF058091C4050F900F904A
:103170000C94561781E0DFCF1F920F920FB60F927B
:1031800011242F933F938F939F93AF93BF9380917D
:10319000C9059091CA05A091CB05B091CC0530919D
:1031A000C80523E0230F2D3758F50196A11DB11D49
:1031B0002093C8058093C9059093CA05A093CB05B9
:1031C000B093CC058091CD059091CE05A091CF050F
:1031D000B091D0050196A11DB11D8093CD059093AE
:1031E000CE05A093CF05B093D005BF91AF919F912D
:1031F0008F913F912F910F900FBE0F901F901895B8
:1032000026E8230F0296A11DB11DD2CF1F920F9267
:103210000FB60F9211242F933F934F935F936F93A9
:103220007F938F939F93AF93BF93EF93FF93E0911F
:103230001401F09115010995FF91EF91BF91AF91A4
:103240009F918F917F916F915F914F913F912F91BE
:103250000F900FBE0F901F9018951F920F920FB6F0
:103260000F9211242F933F934F935F936F937F930C
:103270008F939F93AF93BF93EF93FF93E0911201CE
:10328000F09113010995FF91EF91BF91AF919F913B
:103290008F917F916F915F914F913F912F910F90FF
:1032A0000FBE0F901F9018951F920F920FB60F929E
:1032B00011242F933F934F935F936F937F938F933B
:1032C0009F93AF93BF93EF93FF9380EE95E00E949F
:1032D0007306FF91EF91BF91AF919F918F917F9175
:1032E0006F915F914F913F912F910F900FBE0F9073
:1032F0001F9018951F920F920FB60F9211242F93C3
:103300008F939F93EF93FF93E091F005F091F10578
:103310008081E091F605F091F70582FD1BC0908158
:103320008091F9058F5F8F732091FA05821741F024
:10333000E091F905F0E0E052FA4F958F8093F9059E
:10334000FF91EF919F918F912F910F900FBE0F9052
:103350001F9018958081F4CF1F920F920FB60F9295
:1033600011242F933F934F935F936F937F938F938A
:103370009F93AF93BF93EF93FF93E0911601F0916A
:1033800017010995FF91EF91BF91AF919F918F9197
:103390007F916F915F914F913F912F910F900FBE51
:1033A0000F901F901895EF92FF920F931F93CF935A
:1033B000DF93CDB7DEB76F970FB6F894DEBF0FBEC1
:1033C000CDBF1092E3051092E20588EE93E0A0E0F5
:1033D000B0E08093E4059093E505A093E605B093F3
:1033E000E7058FE891E09093E1058093E00585EC97
:1033F00090E09093ED058093EC0584EC90E0909341
:10340000EF058093EE0580EC90E09093F1058093BA
:10341000F00581EC90E09093F3058093F20582EC47
:1034200090E09093F5058093F40586EC90E09093FE
:10343000F7058093F6051092F9051092FA0510929F
:10344000FB051092FC0582E390E090931A078093AD
:10345000190780E991E090931C0780931B0780E295
:1034600093E090931E0780931D0788EE93E090935E
:10347000200780931F0710922207109221071092B5
:103480002407109223071092260710922507109206
:1034900028071092270710922A07109229071092E6
:1034A0002C0710922B0710922E0710922D071092C6
:1034B000300710922F0710923207109231071092A6
:1034C0003407109233071092360710923507109286
:1034D00038071092370710923A0710923907109266
:1034E0003C0710923B0710923E0710923D07109246
:1034F000400710923F071092420710924107109226
:103500004407109243071092460710924507109205
:1035100048071092470710924A07109249071092E5
:103520004B078FEF9FEF90934D0780934C0790933D
:103530004F0780934E071092500710925107109238
:103540005207109253071092540710925507109289
:103550005607109257071092580710925907109269
:103560005A0710925B0710925D0710925C0781E08A
:1035700090E090935F0780935E071092610710922E
:10358000600710926207109263071092640710920E
:10359000650784E090E0909318078093170762E036
:1035A0000E94EF0469EC72E089EF96E00E94C71276
:1035B0006EEC72E08FEF96E00E94C71262ED72E04F
:1035C00085E097E00E94C7126AED72E08BE097E019
:1035D0000E94C71266ED72E081E197E00E94C71277
:1035E0000FE111E083EFE82E86E0F82EF8018191DB
:1035F0008F01F70181937F0161E00E94EF04F1E008
:1036000005321F0799F787E08093930688E080933F
:10361000940689E08093950686E996E00E94D90E8B
:1036200085EB96E00E94D90E84ED96E00E94D90EBB
:1036300060919306CE0101960E94BC058FE1FE01C8
:103640003196A6E9B6E001900D928A95E1F7609176
:103650009406CE0101960E94BC058FE1FE013196D1
:10366000A5EBB6E001900D928A95E1F76091950681
:10367000CE0101960E94BC058FE1FE013196A4EDBA
:10368000B6E001900D928A95E1F780E00E9456170E
:1036900010929206109289060E943D0560937D0665
:1036A00070937E0680937F06909380066F960FB688
:1036B000F894DEBF0FBECDBFDF91CF911F910F9168
:1036C000FF90EF900895CF93DF93CDB7DEB72F979C
:1036D0000FB6F894DEBF0FBECDBF789484B582607C
:1036E00084BD84B5816084BD85B5826085BD85B5A6
:1036F000816085BD80916E00816080936E00109224
:10370000810080918100826080938100809181009E
:10371000816080938100809180008160809380002F
:103720008091B10084608093B1008091B00081608D
:103730008093B00080917A00846080937A008091B9
:103740007A00826080937A0080917A008160809311
:103750007A0080917A00806880937A001092C1008C
:10376000E091F005F091F10582E08083E091EC05B5
:10377000F091ED051082E091EE05F091EF0588E003
:1037800080831092F805E091F405F091F50586E04C
:103790008083E091F205F091F30580818061808360
:1037A000E091F205F091F305808188608083E091DB
:1037B000F205F091F305808180688083E091F20545
:1037C000F091F30580818F7D80838FED92E09F9350
:1037D0008F930E94101380E094E09E838D8384E099
:1037E0008F931F9281EF92E09F938F930E9410130B
:1037F0000F900F900F900F900F900F9010E000E03F
:103800008D819E8104970817190708F059C0BE01E1
:10381000695F7F4FC8010E9471128F819885A985C9
:10382000BA8586369646A646B64609F046C01C833B
:103830000B83C80108969A8389831F930F938DE0A9
:1038400093E09F938F930E9410130F900F900F900F
:103850000F908FE0FE013196A1EDB5E001900D9241
:103860008A95E1F78091D3059091D4052091D105F7
:103870003091D20528173907B9F58BE793E09F936C
:103880008F930E94101383E08093C4056091C40558
:103890007091C5058091C6059091C7050E948A1751
:1038A0000F900F9097FFE0C28FE893E09F938F9364
:1038B0000E9410130F900F9041C00C5F1F4FA0CFBC
:1038C0001B860E94B0056C877D878E879F871A8232
:1038D00019821C821B828FE393E09F938F930E9437
:1038E00010130F900F90B5CF67ED75E00E94711225
:1038F0008091D7059091D805A091D905B091DA05AE
:1039000086369646A646B646C9F4E090D305F090B2
:10391000D40587010C5F1F4FF4ECCF2EF5E0DF2EAE
:1039200088E0E80EF11CC8010E94D922F6018193BB
:103930006F010F5F1F4FE016F106A9F7E091C40574
:103940008091C40536E0E39FF0011124E750F94F60
:1039500091819F9390819F931F928F938BE194E02D
:103960009F938F930E9410130F900F900F900F90C2
:103970000F900F9012E080E00E94940581E00E9479
:10398000940582E00E94940581E00E94940580E005
:103990000E94940581E00E94940583E00E949405B2
:1039A00084E00E94940585E00E94940584E00E94D2
:1039B000940583E00E94940581E00E9494051130F3
:1039C00009F070C28091C405813009F46DC2809104
:1039D000C4058093C3058091C405843021F461E05F
:1039E00086E00E94C10461E08DE00E94EF0460E087
:1039F0008FE00E94EF048FE00E942B0560E080E1E1
:103A00000E94EF0480E10E942B0560E08EE00E949E
:103A1000EF048EE00E942B0560E081E10E94EF043C
:103A200081E10E942B0561E086E00E94EF0460E0E6
:103A300082E00E94EF0460E083E00E94EF0485E9E9
:103A400098E1909324078093230780E698E1909370
:103A50002A078093290780915E0790915F07823043
:103A6000910514F482E090E090935F0780935E07E5
:103A70008091C4050E945617E091C4058091C40549
:103A800096E0E99FF0011124E750F94F91819F934F
:103A900090819F931F928F9383E394E09F938F93E2
:103AA0000E9410130E943D0560937D0670937E0670
:103AB00080937F069093800682E10E942B058C0103
:103AC0008CE090E00E941E26FC01A801110F660BFD
:103AD000770B4858594A6B4C7D4E40835183628323
:103AE00073831482158216821782108611861286BD
:103AF00013869093C2058093C1051F9202E00F9335
:103B00008AE494E09F938F930E94101385E290E1E2
:103B100090931301809312018091690083608093D8
:103B20006900E89A61E085E00E94EF041F9213E0CB
:103B30001F9380E894E09F938F930E94101380E678
:103B40009EE09093150180931401809169008C6030
:103B500080936900E99A10921C010E94630F909370
:103B60001E0180931D0180911D0190911E019F9364
:103B70008F9386EB94E09F938F930E941013609134
:103B800018017091190180911A0190911B012091E7
:103B90001D0130911E0140E1409381001092800090
:103BA0009695879577956795032E000C440B550BDA
:103BB0000E945023A0EAB0E00E940E236B017C011A
:103BC00024E130E040E050E00E9450230FB6F8942A
:103BD000DEBF0FBECDBF21153105F1E04F07510506
:103BE00008F064C181E08093C0053093BF05209345
:103BF000BE058091BE059091BF059093870080938C
:103C000086008091C0058061809381008091C40509
:103C1000813009F491C110928100109285001092B8
:103C200084008091C00580618093810061E085E01F
:103C30000E94C10484ED95E09093170180931601D2
:103C400081E080936F000E94B00504EF11E020E056
:103C500030E000938A0610938B0620938C063093F5
:103C60008D0660938E0670938F06809390069093D6
:103C70009106109292068AE896E00E9464120E94D1
:103C8000B00504E610E020E030E0009381061093D8
:103C90008206209383063093840660938506709392
:103CA000860680938706909388061092890681E89D
:103CB00096E00E94641280EC94E09F938F930E94A0
:103CC00010130F900F9070ED472E74E0572E44E4C0
:103CD000642E45E0742E50E0852E55E0952E60E070
:103CE000262E60E0362E0E94B00500918E061091BF
:103CF0008F062091900630919106601B710B820B0C
:103D0000930B00918A0610918B0620918C063091BE
:103D10008D06061717072807390770F48DE00E94F3
:103D2000980461E0892B09F060E08DE00E94C104F5
:103D30008AE896E00E9464120E94B0050091850610
:103D4000109186062091870630918806601B710BC2
:103D5000820B930B009181061091820620918306BD
:103D6000309184060617170728073907A0F40E9428
:103D7000630F90931E0180931D0180911D0190910E
:103D80001E01019709F0DAC082E00E94561781E80F
:103D900096E00E946412809117079091180797FD92
:103DA0002DC10E9498048C010E94B005DC01CB015A
:103DB0008093540790935507A0935607B0935707E5
:103DC00020914E0730914F070217130709F0B9C031
:103DD00040915007509151076091520770915307DD
:103DE0006C017D01C41AD50AE60AF70A4091190749
:103DF00050911A0770E060E0C416D506E606F70693
:103E000020F010934D0700934C0700914C07109140
:103E10004D07E0902107F0902207409158075091FC
:103E2000590760915A0770915B075C016D01A41AF4
:103E3000B50AC60AD70AB601A501209149073091F3
:103E40004A072230310509F492C10CF087C02115D0
:103E5000310509F49BC02130310509F451C110929C
:103E60004A0710924907CAC08091D4058F93809168
:103E7000D3058F938BEC93E09F938F930E94101345
:103E80008091D2058F938091D1058F9383EF93E03A
:103E90009F938F930E9410130FB6F894DEBF0FBE4E
:103EA000CDBF4CCD11E067CD83E093CD2115310519
:103EB00088E04807510558F40093C005C701B601D2
:103EC00020EA30E040E050E00E9450238ECE2115E1
:103ED000310590E44907510548F41093C005C70126
:103EE000B60120E035E040E050E0EECF211531058D
:103EF0004105E1E05E0750F484E08093C005C7010E
:103F0000B60120E034E140E050E0DECF85E0809370
:103F1000C005211531054105544038F4C701B601EB
:103F200020E030E540E050E0CFCF8FEF9FEF90935F
:103F3000BF058093BE055DCE80E176CE8091C4053D
:103F400024CF8093500790935107A0935207B093CA
:103F5000530710934F0700934E0757CF2630310574
:103F600009F47CC12730310509F4BEC12330310585
:103F700009F075CFE016F10609F009C1AA24A3944F
:103F8000B12CB0924A07A0924907C3C080914B0759
:103F9000811116C080911F0790912007B0E0A0E02A
:103FA00084179507A607B70758F4E0914707F091E3
:103FB0004807309729F0BB24B394B0924B0709957A
:103FC000E016F106D9F4CC24C394D12CD0924A0740
:103FD000C09249078091540790915507A0915607C8
:103FE000B09157078093580790935907A0935A07A9
:103FF000B0935B0710925D0710925C078091DB0520
:10400000882309F465C00E94B0050091DC05109179
:10401000DD052091DE053091DF050617170728071B
:10402000390708F055C01092DB051F9284E08F938A
:104030005F924F920E9410136091C4057091C50564
:104040008091C6059091C7050E948A170F900F9026
:104050000F900F9097FF5BC19F928F920E94101359
:104060000F900F90E091C4058091C40526E0E29F77
:10407000F0011124E750F94F91819F9390819F9314
:104080001F928F9386E995E09F938F930E94101360
:104090008DE00E94980461E0892B09F060E08DE0DA
:1040A0000E94C10464E670E080E090E00E94620536
:1040B0008DE00E94980461E0892B09F060E08DE0BA
:1040C0000E94C1040F900F900F900F900F900F90CF
:1040D00086E996E00E949C0E85EB96E00E949C0E7D
:1040E00084ED96E00E949C0E2114310409F4FBCD6E
:1040F0000E945F06882309F4EACD0E940000E7CD04
:10410000E016F10679F022E030E030934A07209380
:1041100049078093580790935907A0935A07B09383
:104120005B076CCF80911D0790911E07B0E0A0E067
:1041300084179507A607B70708F060CFE091350709
:10414000F0913607309709F00995E0913707F09123
:104150003807309729F08091390790913A070995EF
:1041600086E090E090934A078093490747CF80917B
:104170005C0790915D07019690935D0780935C07C3
:10418000E3E0F0E0F0934A07E093490737CF8091EE
:104190005C0790915D0700911B0710911C0730E0B0
:1041A00020E0401751076207730740F420915E0733
:1041B00030915F072817390709F020CF813091052A
:1041C00031F5E0912307F0912407309709F0099524
:1041D000E0912507F0912607809127079091280705
:1041E000309741F510924A071092490710925D07E7
:1041F00010925C070E94B0056093580770935907AE
:1042000080935A0790935B0710924B07F7CE029763
:1042100099F4E0912907F0912A07309709F0099560
:10422000E0912B07F0912C0780912D0790912E079C
:104230003097C1F20995D6CFE0912F07F091300762
:10424000309709F00995E0913107F091320780919C
:10425000330790913407309769F7C4CFE016F10621
:1042600041F087E0C82ED12CD0924A07C09249076E
:10427000C5CE4091620750916307609164077091C9
:104280006507841B950BA60BB70B409160075091F7
:10429000610770E060E084179507A607B70708F488
:1042A000ADCEE0914107F0914207309709F00995B2
:1042B000E0914307F0914407309729F0809145073A
:1042C0009091460709958091540790915507A091C8
:1042D0005607B09157078093620790936307A093A6
:1042E0006407B09365078ACEE0913B07F0913C07E5
:1042F000309709F00995E0913D07F0913E0730971E
:1043000009F470CF80913F079091400793CF80913F
:10431000D4058F938091D3058F937F926F920E94E3
:1043200010138091D2058F938091D1058F932DE644
:1043300035E03F932F930E9410130FB6F894DEBF21
:104340000FBECDBF8FCECF93DF93C7E1D7E02697C7
:1043500088819981009711F00E94BA2686E0C93FB2
:10436000D807A9F7DF91CF9108950E94F72108F4AB
:1043700081E00895E89409C097FB3EF490958095FC
:10438000709561957F4F8F4F9F4F9923A9F0F92F1B
:1043900096E9BB279395F695879577956795B79599
:1043A000F111F8CFFAF4BB0F11F460FF1BC06F5F7F
:1043B0007F4F8F4F9F4F16C0882311F096E911C091
:1043C000772321F09EE8872F762F05C0662371F0B2
:1043D00096E8862F70E060E02AF09A95660F771FC6
:1043E000881FDAF7880F9695879597F90895990FA2
:1043F0000008550FAA0BE0E8FEEF16161706E807AF
:10440000F907C0F012161306E407F50798F0621BCF
:10441000730B840B950B39F40A2661F0232B242BA4
:10442000252B21F408950A2609F4A140A6958FEFC3
:10443000811D811D08950E942E220C949F220E94AE
:10444000912238F00E94982220F0952311F00C94CC
:1044500088220C948E2211240C94D3220E94B02224
:1044600070F3959FC1F3950F50E0551F629FF001C7
:10447000729FBB27F00DB11D639FAA27F00DB11DE0
:10448000AA1F649F6627B00DA11D661F829F222769
:10449000B00DA11D621F739FB00DA11D621F839FF0
:1044A000A00D611D221F749F3327A00D611D231FC6
:1044B000849F600D211D822F762F6A2F11249F5714
:1044C00050409AF0F1F088234AF0EE0FFF1FBB1F17
:1044D000661F771F881F91505040A9F79E3F5105D6
:1044E00080F00C9488220C94D3225F3FE4F3983E32
:1044F000D4F3869577956795B795F795E7959F5F80
:10450000C1F7FE2B880F911D9695879597F9089511
:1045100097F99F6780E870E060E008959FEF80EC76
:10452000089500240A941616170618060906089519
:1045300000240A9412161306140605060895092E7F
:104540000394000C11F4882352F0BB0F40F4BF2BEE
:1045500011F460FF04C06F5F7F4F8F4F9F4F08952E
:1045600057FD9058440F551F59F05F3F71F0479524
:10457000880F97FB991F61F09F3F79F08795089509
:10458000121613061406551FF2CF4695F1DF08C028
:10459000161617061806991FF1CF86957105610545
:1045A00008940895E894BB2766277727CB0197F9ED
:1045B0000895F999FECF92BD81BDF89A992780B5EB
:1045C0000895262FF999FECF1FBA92BD81BD20BD57
:1045D0000FB6F894FA9AF99A0FBE01960895052E2F
:1045E00097FB1EF400940E94062357FD07D00E94FB
:1045F000502307FC03D04EF40C94062350954095AD
:10460000309521953F4F4F4F5F4F0895909580957E
:10461000709561957F4F8F4F9F4F08950E94722331
:10462000A59F900DB49F900DA49F800D911D112406
:1046300008952F923F924F925F926F927F928F9246
:104640009F92AF92BF92CF92DF92EF92FF920F9321
:104650001F93CF93DF93CDB7DEB7CA1BDB0B0FB62B
:10466000F894DEBF0FBECDBF09942A8839884888E8
:104670005F846E847D848C849B84AA84B984C8847E
:10468000DF80EE80FD800C811B81AA81B981CE0F75
:10469000D11D0FB6F894DEBF0FBECDBFED0108955A
:1046A000A1E21A2EAA1BBB1BFD010DC0AA1FBB1F36
:1046B000EE1FFF1FA217B307E407F50720F0A21BA8
:1046C000B30BE40BF50B661F771F881F991F1A9415
:1046D00069F760957095809590959B01AC01BD013F
:1046E000CF010895A29FB001B39FC001A39F700D99
:1046F000811D1124911DB29F700D811D1124911DEA
:1047000008950E947223332312F48A1B9B0B0C948E
:104710008B230E947223B7FF0895821B930B089589
:10472000689401C0E894F92FF12B12F00C94C42383
:10473000A0E0B0E0EEE9F3E20C941F23092E05940B
:1047400022F40E942024112392F4F0E80F26FFEFB8
:10475000E094F09400951095B094C094D094A194F6
:10476000BF0ACF0ADF0AEF0AFF0A0F0B1F0B0E94D6
:10477000CF2307FC0E942024CDB7DEB7ECE00C94D9
:104780003B23689401C0E8948F929F92CF93DF936C
:104790000E94CF23DF91CF919F908F90089588241E
:1047A0009924F401E401B0E49F93AA279A158B049D
:1047B0009C04ED05FE05CF05D007A10798F4AD2FA9
:1047C000DC2FCF2FFE2FE92D982C892E982F872FA5
:1047D000762F652F542F432F322F2227B85031F7D1
:1047E000BF9127C01B2EBF91BB27220F331F441F31
:1047F000551F661F771F881F991F881C991CEE1F65
:10480000FF1FCC1FDD1FAA1FBB1F8A149B04EC05D2
:10481000FD05CE05DF05A007B10748F08A189B0803
:10482000EC09FD09CE09DF09A00BB10B21601A9438
:10483000E1F62EF49401AF01BE01CD01000C089504
:1048400060957095809590953095409550952195FF
:104850003F4F4F4F5F4F6F4F7F4F8F4F9F4F089589
:1048600097FD1094002E083098F00850232F342F15
:10487000452F562F672F782F892F912DF4CF159420
:104880009795879577956795579547953795279588
:104890000A95AAF71124002D08952A0D3B1D4C1DE1
:1048A0005D1D6E1D7F1D801F911F08950024A7FDB3
:1048B00000942A0F301D401D501D601D701D801D6D
:1048C000901D08950024A7FD00942A173005400587
:1048D000500560057005800590050895EE0FFF1FD7
:1048E0000590F491E02D09945058BB27AA270E9407
:1048F0008C240C949F220E94912238F00E949822CE
:1049000020F039F49F3F19F426F40C948E220EF413
:10491000E095E7FB0C948822E92F0E94B02258F31F
:10492000BA17620773078407950720F079F4A6F594
:104930000C94D2220EF4E0950B2EBA2FA02D0B0171
:10494000B90190010C01CA01A0011124FF27591BD4
:1049500099F0593F50F4503E68F11A16F040A22FDA
:10496000232F342F4427585FF3CF4695379527954B
:10497000A795F0405395C9F77EF41F16BA0B620B4A
:10498000730B840BBAF09150A1F0FF0FBB1F661F91
:10499000771F881FC2F70EC0BA0F621F731F841FD4
:1049A00048F4879577956795B795F7959E3F08F0FA
:1049B000B0CF9395880F08F09927EE0F97958795BC
:1049C00008950E94F5240C949F220E94982258F08A
:1049D0000E94912240F029F45F3F29F00C94882234
:1049E00051110C94D3220C948E220E94B02268F3B1
:1049F0009923B1F3552391F3951B550BBB27AA2798
:104A000062177307840738F09F5F5F4F220F331FD1
:104A1000441FAA1FA9F335D00E2E3AF0E0E832D099
:104A200091505040E695001CCAF72BD0FE2F29D09C
:104A3000660F771F881FBB1F261737074807AB076E
:104A4000B0E809F0BB0B802DBF01FF2793585F4FE3
:104A50003AF09E3F510578F00C9488220C94D322B2
:104A60005F3FE4F3983ED4F3869577956795B795C5
:104A7000F7959F5FC9F7880F911D9695879597F9D0
:104A80000895E1E0660F771F881FBB1F6217730749
:104A90008407BA0720F0621B730B840BBA0BEE1F5E
:104AA00088F7E0950895BEE304D008F490E80895EF
:104AB000BFE322273327A9010E94B82260F19F5744
:104AC00048F1B91740F1BFE3B91B9927B8503AF440
:104AD000660F771F881F991FB395D2F316C0B85081
:104AE0004AF0232F342F452F562F672F782F8827F2
:104AF000B850BAF7B85F49F086957795679557959E
:104B0000479537952795BA95B9F716F40E94092667
:104B100088940895889460E070E0CB0108950E9425
:104B200096256894B1110C94D32208950E94B8225E
:104B300088F09F5798F0B92F9927B751B0F0E1F05E
:104B4000660F771F881F991F1AF0BA95C9F714C00E
:104B5000B13091F00E94D222B1E008950C94D2229B
:104B6000672F782F8827B85F39F0B93FCCF3869547
:104B700077956795B395D9F73EF4909580957095A4
:104B800061957F4F8F4F9F4F089597FB16F40E94BA
:104B900009260C94CC25E894F92F96EBFF2381F09D
:104BA000121613061406440B9395F6958795779580
:104BB000679557954040FF23B9F71BC09927089583
:104BC000882351F49850D2F7872B762F652F542FD6
:104BD000432F322F20E0B1F3121613061406440BB4
:104BE00088233AF09A95440F551F661F771F881F38
:104BF000CAF755234AF4440F551F11F460FF04C04F
:104C00006F5F7F4F8F4F9F4F880F9695879597F9CE
:104C10000895909580957095609550954095309544
:104C200021953F4F4F4F5F4F6F4F7F4F8F4F9F4F9C
:104C300008950E94F72108F48FEF08950F931F93B2
:104C4000CF93DF938230910510F482E090E0E09101
:104C50006807F091690730E020E0B0E0A0E030970D
:104C600099F42115310509F44AC0281B390B243069
:104C70003105D8F58A819B816115710589F1FB01A8
:104C800093838283FE0111C040815181028113818F
:104C900048175907E0F04817590799F4109761F041
:104CA00012960C93129713961C933296CF01DF91B4
:104CB000CF911F910F910895009368071093690792
:104CC000F4CF2115310551F04217530738F0A901EF
:104CD000DB019A01BD01DF01F801C1CFEF01F9CF7E
:104CE0009093690780936807CDCFFE01E20FF31F11
:104CF000819391932250310939832883D7CF209112
:104D0000660730916707232B41F4209127013091EA
:104D10002801309367072093660720912501309181
:104D200026012115310541F42DB73EB740912901E7
:104D300050912A01241B350BE0916607F09167071B
:104D4000E217F307A0F42E1B3F0B2817390778F062
:104D5000AC014E5F5F4F2417350748F04E0F5F1FC1
:104D60005093670740936607819391939FCFF0E03C
:104D7000E0E09CCFCF93DF930097E9F0FC013297FE
:104D800013821282A0916807B0916907ED0130E0AB
:104D900020E01097A1F420813181820F931F209190
:104DA0006607309167072817390709F061C0F0934B
:104DB0006707E0936607DF91CF910895EA01CE1768
:104DC000DF07E8F54A815B819E0141155105B1F786
:104DD000E901FB83EA8349915991C40FD51FEC1770
:104DE000FD0761F4808191810296840F951FE9018E
:104DF00099838883828193819B838A83F0E0E0E0BA
:104E000012968D919C9113970097B9F52D913C9135
:104E10001197CD010296820F931F20916607309162
:104E200067072817390739F6309751F51092690747
:104E300010926807B0936707A0936607BCCFD3832F
:104E4000C28340815181840F951FC817D90761F42F
:104E50004E5F5F4F88819981480F591F518340836E
:104E60008A819B81938382832115310509F0B0CF1C
:104E7000F0936907E09368079ECFFD01DC01C0CF86
:104E800013821282D7CFB0E0A0E0E9E4F7E20C94FD
:104E90001B238C01009751F4CB010E941E268C012C
:104EA000C801CDB7DEB7E0E10C943723FC01E60F73
:104EB000F71F9C0122503109E217F30708F49DC047
:104EC000D901CD91DC911197C617D70798F0C5305D
:104ED000D10530F3CE0104978617970708F3C61B58
:104EE000D70B2297C193D1936D937C93CF010E94EE
:104EF000BA26D6CF5B01AC1ABD0A4C018C0E9D1EA2
:104F0000A0916807B0916907512C412CF12CE12C3C
:104F1000109731F58091660790916707881599057C
:104F200009F05CC04616570608F058C0809125016C
:104F300090912601009741F48DB79EB740912901C9
:104F400050912A01841B950BE817F90708F055C00A
:104F5000F0936707E0936607F90171836083A0CF40
:104F60008D919C91119712966C90129713967C904C
:104F70001397A815B90559F56C0142E0C40ED11C70
:104F8000CA14DB0420F1AC014A195B09DA0112965C
:104F9000159780F06282738251834083D9016D93AB
:104FA0007C93E114F10471F0D7011396FC93EE9316
:104FB000129776CF22968C0F9D1FF90191838083E3
:104FC000F301EFCFF0936907E093680769CF4816C4
:104FD000590608F42C017D01D3019ACFCB010E9420
:104FE0001E267C01009749F0AE01B8010E940028FE
:104FF000C8010E94BA26870153CF10E000E050CFCD
:10500000FB01DC0102C001900D9241505040D8F7E5
:105010000895FB01DC0101900D920020E1F7089555
:1050200010E0C2E6D0E004C0FE010E946E2421968A
:0A503000C336D107C9F7F894FFCF8B
:10503A00000102030405060708091000010203041F
:10504A000501F405F4050207B0710B00010200071F
:10505A00080906030500006A07800000000000E84E
:10506A00030000F4010000FA0000008200000019A9
:10507A000000000000803F000020410000C84200FC
:10508A00007A4400401C460050C3470024744980FB
:10509A0096184B20BCBE4C286B6E4EF9021550B7C1
:1050AA0043BA51A5D46853E784115521E6B556A9E8
:1050BA005F6358CA1B0E5ABCA2B15B000000009580
:1050CA0006F5052206E206530631064506666E69AE
:1050DA002B00666E69006E616E00666E692D00298E
:1050EA006C6C756E2800296C696E28007365744DA6
:1050FA006F646520756E6B6E6F776E206D6F646579
:10510A003A2025307830320A00656570726F6D3A40
:10511A002065726173696E67204D41524B4552207A
:10512A00617420616464726573733A2025640A00AD
:10513A00656570726F6D3A2063616E206E6F7420C0
:10514A007772697465206461746120706173742078
:10515A0074686520656E64206F66207468652045F2
:10516A004550524F4D3B20626567696E6E696E67A6
:10517A00206174206164647265737320302E0A00A2
:10518A00656570726F6D3A2073657420737461720D
:10519A0074206164647265737320746F3A202564A5
:1051AA000A00656570726F6D3A2077726974696E6C
:1051BA0067204D41524B455220746F2061646472DE
:1051CA006573733A2025640A00656570726F6D3ADB
:1051DA002077726974696E672064617461206672EF
:1051EA006F6D20616464726573733A20256420755B
:1051FA006E74696C2025640A00494E49540044497A
:10520A0056004F4E45004D41585F4D554C54004293
:10521A006567696E206F6620536574757028290A60
:10522A0000656570726F6D3A2073697A65206F66E2
:10523A0020656570726F6D3A2025640A0065657095
:10524A00726F6D3A20696E697420666F756E64209C
:10525A007374617274206164647265737320666F1B
:10526A00722072656164696E673A2025640A006576
:10527A006570726F6D3A20696E6974206F66206579
:10528A006570726F6D206F626A6563742066696EFD
:10529A006973686564206174207374617274206F25
:1052AA006620656570726F6D2E0A00466F756E64B2
:1052BA0020656D70747920454550524F4D2E00453A
:1052CA0072726F722077726974696E672064617492
:1052DA006120746F20656570726F6D2E2044617451
:1052EA006120646F6573206E6F742066697420692B
:1052FA006E20656570726F6D2E0A00656570726F3B
:10530A006D20726561642020616464726573732024
:10531A0061667465722077726974696E673A2025CE
:10532A00640A00656570726F6D2077726974652012
:10533A006164647265737320616674657220777242
:10534A006974696E673A2025640A004D6F646520A6
:10535A00286174207365747570293A2025642025A4
:10536A00730A0053657474696E67206D6F646520F3
:10537A00746F2025642025730A0041747461636880
:10538A00696E6720696E7465727275707420302058
:10539A00746F2070696E2044256420666F722065E0
:1053AA00787465726E616C20636C6F636B2E0A0091
:1053BA00417474616368696E6720696E746572729C
:1053CA00757074203120746F2070696E20442564D2
:1053DA0020666F722065787465726E616C207265E2
:1053EA007365742E0A00467261633A2025640A00C6
:1053FA00456E64206F6620536574757028290A000B
:10540A000A656570726F6D3A2077726974696E67A2
:10541A002073657474696E67732028256420627925
:10542A007465732920746F20454550524F4D2E00E4
:10543A00656570726F6D3A206572726F722077724D
:10544A006974696E67206461746120746F20656590
:10545A0070726F6D2E204461746120646F657320D1
:10546A006E6F742066697420696E20656570726F4C
:10547A006D2E0A00656570726F6D3A2072656164FF
:10548A00202061646472657373206166746572209A
:10549A0077726974696E673A2025640A00656570D7
:1054AA00726F6D3A207772697465206164647265FF
:1054BA0073732061667465722077726974696E67A6
:1054CA003A2025640A00656570726F6D3A2064653A
:1054DA0076696365206D6F64653A202564202573BB
:0254EA000A00B6
:00000001FF
