:100000000C9463000C94AC170C9485170C948B0023
:100010000C948B000C948B000C948B000C948B0034
:100020000C948B000C948B000C948B000C948B0024
:100030000C948B000C942B180C948B000C948B005C
:100040000C943B170C948B000C94F9170C94D31759
:100050000C948B000C948B000C948B000C948B00F4
:100060000C948B000C948B000000000024002700EF
:100070002A0000000000250028002B0000000000DE
:1000800023002600290004040404040404040202DA
:100090000202020203030303030301020408102007
:1000A0004080010204081020010204081020000012
:1000B0000008000201000003040700000000000027
:1000C00000009B18E61F11241FBECFEFD8E0DEBF53
:1000D000CDBF15E0A0E0B1E0E0ECFCE402C005908B
:1000E0000D92AA38B107D9F726E0AAE8B5E001C019
:1000F0001D92AB3DB207E1F710E0C2E6D0E004C0CC
:100100002197FE010E94B122C136D107C9F70E9492
:10011000DE190C9453260C9400002F923F924F92BC
:100120005F926F927F928F929F92AF92BF92CF9287
:10013000DF92EF92FF920F931F93CF93DF9300D044
:1001400000D0CDB7DEB71C014B015A0139012701A0
:100150009601227033273A83298333E0C322DD24BA
:100160005C834B83CD2851F46801C41AD50A8B8176
:100170009C818C0D9D1D84159505B0F07301E00EDA
:10018000F11E4B815C81E614F704F1F06A01FFEF88
:10019000CF1ADF0A2FEF3FEFB401F70182917F0101
:1001A000F1010995A601EFCFEB80FC808FEFE81AF3
:1001B000F80A2FEF3FEF4B815C81B40180E2F1013F
:1001C0000995FC82EB82D3CF8B819C81800F911F9C
:1001D00029813A81232BA1F09C012A193B0924157E
:1001E000350570F4FC013196FA83E9832FEF3FEF78
:1001F000AC01B40180E2F101099589819A81ECCFCB
:100200000F900F900F900F90DF91CF911F910F9152
:10021000FF90EF90DF90CF90BF90AF909F908F9026
:100220007F906F905F904F903F902F9008952F9206
:100230003F924F925F926F927F928F929F92AF9276
:10024000BF92CF92DF92EF92FF920F931F93CF93C3
:10025000DF93CDB7DEB7AF970FB6F894DEBF0FBE12
:10026000CDBF9AA789A77CA76BA75EA74DA7CAA2F7
:10027000DBA2ECA25F2C402E1DA3322E232EA8A6BB
:1002800089A22A968EAC9FAC2A9796014E2D5F2D9F
:10029000602F712F832D922DA0E00E94A52209F0DE
:1002A0004CC092FC42C080E38983E89484F86624C1
:1002B0006394712C81FC92C0C401817099272896A7
:1002C0002EAD3FAD2897232BA9F0009709F486C0E7
:1002D00038A5311105C094012C703327232B51F020
:1002E00028964EAD5FAD28974150510928965FAFD3
:1002F0004EAF2897E1E0F0E0EC0FFD1FE60DF71D93
:10030000830120E3009709F46AC028964EAD5FADE3
:1003100028970417150708F062C00032110509F488
:100320005EC00F5F1F4F2193EDCF29A1203111F443
:10033000E89484F8712C612CBDCF81E485FE81E6C0
:10034000AE014F5F5F4F5FA34EA3712C612C8A50AB
:100350008FA7A9A0B12CC12CD12CE12CF12C00E04D
:1003600010E02AA13BA14CA1552D642D7DA1832D28
:10037000922D0E9404222A3074F5205D8FEF681AB6
:10038000780AEEA1FFA12193FFA3EEA3A9A0B12CAF
:10039000C12CD12CE12CF12C00E010E02AA13BA1D2
:1003A0004CA1552D642D7DA1832D922D0E940622F6
:1003B0002AA33BA34CA3552E462E7DA3382E292ECF
:1003C000A0E00E94A52209F475CFF0E26F16710437
:1003D00009F0BFCF6FCF5FA5250FD0CF8301E1E03C
:1003E000F0E0EC0FFD1FE00FF11F80E326962EAD2D
:1003F0003FAD26970217130738F40032110520F499
:100400000F5F1F4F8193F2CF39A1383029F4601666
:10041000710610F4E89484F8C40180719071892BFE
:1004200009F447C092FC25C00115110511F126966B
:100430004EAD5FAD26974017510739F028968EAD27
:100440009FAD289708171907A1F46016710608F0E8
:1004500099C0C801019759F0E9A1E03109F06EC0D7
:10046000025011096816790640F08C0106C010E0B0
:1004700000E0F9A1F03109F062C085FC54C00032FF
:10048000110540F5E1E0F0E0EC0FFD1FE00FF11F7A
:1004900088E780830F5F1F4F00321105D8F4E1E039
:1004A000F0E0EC0FFD1FE00FF11F80E380830F5F92
:1004B0001F4F0032110570F438A5332309F44EC0E4
:1004C000E1E0F0E0EC0FFD1FE00FF11F8DE2808313
:1004D0000F5F1F4F64012896EEACFFAC28979E017A
:1004E0002F5F3F4F4DA55EA56BA57CA589A59AA55D
:1004F0000E948D00AF960FB6F894DEBF0FBECDBF41
:10050000DF91CF911F910F91FF90EF90DF90CF90EF
:10051000BF90AF909F908F907F906F905F904F9023
:100520003F902F90089500321105A0F6E1E0F0E031
:10053000EC0FFD1FE00FF11F88E5ABCF8C0129A167
:10054000223009F0A9CF0032110520F6E1E0F0E0F9
:10055000EC0FFD1FE00FF11F82E69BCF82FE08C06B
:10056000E1E0F0E0EC0FFD1FE00FF11F8BE2AFCFF9
:1005700083FEB0CFE1E0F0E0EC0FFD1FE00FF11FD4
:1005800080E2A5CF49A14031D1F677CF2F923F929B
:100590004F925F926F927F928F929F92AF92BF9293
:1005A000CF92DF92EF92FF920F931F93CF93DF933F
:1005B000CDB7DEB76E970FB6F894DEBF0FBECDBFD6
:1005C00009871A872B873C874D875E876F87788BD3
:1005D00023964EAC5FAC23978C8A9D8AAE8ABF8AE5
:1005E000C88ED98EEA8EFB8E8C8F29AD3AAD232B27
:1005F00009F49EC00A8B1B8B6B847C844A011B010F
:10060000EDADFEADF3FF3EC0E4FD3CC0202F312F29
:10061000A301B401C101A0E00E94A52209F00CF4DD
:100620009AC02AE0A22EB12CC12CD12CE12CF12CA5
:1006300000E010E02A893B89A301B401C1010E94B6
:10064000D321A0E00E94A52299F429AD3AAD215012
:1006500031093AAF29AF2A893B89A301B401C1010D
:100660000E94D5212A8B3B8B3A014B011C01D9CF2B
:100670002A893B89A301B401C101A0E00E94A522FF
:1006800009F469C021968EAD9FAD2197840D951D0B
:100690009E8F8D8F90E24916510408F096C0E9AD07
:1006A000FAAD3197FAAFE9AFFFEF4F1A5F0A9AE060
:1006B000A92EB12CC12CD12CE12CF12C00E010E0A2
:1006C0002A893B89A301B401C1010E94D321205D85
:1006D000ED8DFE8D2193FE8FED8F2A893B89A3013D
:1006E000B401C1010E94D5212A8B3B8B3A014B01F9
:1006F0001C01A0E00E94A52269F62196EEADFFAD97
:100700002197E40DF51D80E320E24216510409F41F
:100710005CC03FEF431A530A29AD3AAD21153105AC
:1007200009F4DAC08193215031093AAF29AFECCFF7
:100730003DAD34FF10C080E24816510408F045C0BA
:100740002196EEADFFAD2197E40DF51D8EE280837D
:10075000F20131962F0121966EAC7FAC2197640C8B
:10076000751CF0E24F16510480F52FEF421A520A21
:100770008AE0A82EB12CC12CD12CE12CF12C00E068
:1007800010E02C893D894E895F89688D798D8A8D2D
:100790009B8D0E94D321205DF30121933F012C8981
:1007A0003D894E895F89688D798D8A8D9B8D0E94E8
:1007B000D5212C8B3D8B4E8B5F8B688F798F8A8FE9
:1007C0009B8FA0E00E94A52261F6FDADF1FD29C03E
:1007D000F0FF27C02BAD3CAD232B19F13C8D31111F
:1007E00006C08DAD9EAD8C709927892B29F08BADFD
:1007F0009CAD01979CAF8BAF2196EEADFFAD2197DD
:10080000E40DF51D80E32BAD3CAD4216530648F4D4
:1008100030E243165104C0F49FEF491A590A8193FC
:10082000F2CFE0E24E16510478F4FC8DFF23B1F1D3
:100830002196EEADFFAD2197E40DF51D8DE280838D
:1008400092012F5F3F4F2901CDACDEACEBACFCAC8D
:10085000820121962EAD3FAD21974FA958AD6DA9CC
:100860007EA98BA99CA90E948D006E960FB6F89464
:10087000DEBF0FBECDBFDF91CF911F910F91FF90D3
:10088000EF90DF90CF90BF90AF909F908F907F9030
:100890006F905F904F903F902F9008953DAD32FF45
:1008A0000CC02196EEADFFAD2197E40DF51D8BE256
:1008B0008083C20101962C01C7CF9DAD93FFC4CFA9
:1008C0002196EEADFFAD2197E40DF51D80E280830A
:1008D000F20131962F01B8CF8EE280833CCF833076
:1008E00081F028F4813099F08230A9F008958730A2
:1008F000A9F08830C9F08430B1F4809180008F7DF8
:1009000003C0809180008F7780938000089584B524
:100910008F7784BD089584B58F7DFBCF8091B00023
:100920008F778093B00008958091B0008F7DF9CFCC
:10093000CF93DF93282F30E0F901E255FF4F8491E8
:10094000F901E656FF4FD491F901EA57FF4FC491E0
:10095000CC23A1F081110E946F04EC2FF0E0EE0F88
:10096000FF1FE458FF4FA591B491EC91ED2381E076
:1009700090E009F480E0DF91CF91089580E090E06D
:10098000FACF1F93CF93DF93282F30E0F901E25580
:10099000FF4F8491F901E656FF4FD491F901EA57D0
:1009A000FF4FC491CC23A9F0162F81110E946F0430
:1009B000EC2FF0E0EE0FFF1FEE58FF4FA591B49122
:1009C0008FB7F894EC91111108C0D095DE23DC9319
:1009D0008FBFDF91CF911F910895DE2BF8CFCF937A
:1009E000DF9390E0FC01E656FF4F24918A579F4F1A
:1009F000FC0184918823C9F090E0880F991FFC01C5
:100A0000E859FF4FA591B491FC01EE58FF4FC591F5
:100A1000D49161110DC09FB7F8948C9120958223D9
:100A20008C938881282328839FBFDF91CF910895DD
:100A3000623051F49FB7F8943C91822F80958323C4
:100A40008C93E8812E2BEFCF8FB7F894EC912E2B5F
:100A50002C938FBFEACF8E50806480937C0080916E
:100A60007A00806480937A0080917A0086FDFCCFC2
:100A7000809178009091790008953FB7F894809123
:100A8000A4059091A505A091A605B091A70526B54E
:100A9000A89B05C02F3F19F00196A11DB11D3FBFB6
:100AA000BA2FA92F982F8827BC01CD01620F711D85
:100AB000811D911D42E0660F771F881F991F4A957F
:100AC000D1F708958F929F92AF92BF92CF92DF920B
:100AD000EF92FF924B015C010E943D056B017C018E
:100AE0000E943D056C197D098E099F09683E73407F
:100AF00081059105A8F321E0821A9108A108B108A7
:100B000088EEC80E83E0D81EE11CF11C811491040C
:100B1000A104B10429F7FF90EF90DF90CF90BF9030
:100B2000AF909F908F900895CF93DF93C82FD0E020
:100B3000C059D94F61E088810E94C10462E370E02E
:100B400080E090E00E94620560E088810E94C1041C
:100B500069E170E080E090E0DF91CF910C94620554
:100B60002FB7F8946091A0057091A1058091A2051E
:100B70009091A3052FBF0895809195058F5F809375
:100B8000950560911C0185E00E94C10480911C01C3
:100B900091E0892780931C012091950580911D018A
:100BA00090911E01880F991F2817190621F01CF03B
:100BB00080E18093810008950895AF92BF92CF9213
:100BC000DF92EF92FF920F931F93CF93DF936C010D
:100BD0007B018B01040F151FEB015E01AE18BF08EE
:100BE000C017D10759F06991D601ED91FC910190A0
:100BF000F081E02DC6010995892B79F7C501DF91B8
:100C0000CF911F910F91FF90EF90DF90CF90BF9009
:100C1000AF900895FC01538D448D252F30E0842F33
:100C200090E0821B930B541710F0CF960895019714
:100C30000895FC01918D828D981761F0A28DAE0F01
:100C4000BF2FB11D5D968C91928D9F5F9F73928F88
:100C500090E008958FEF9FEF0895FC01918D828DB4
:100C6000981731F0828DE80FF11D858D90E0089581
:100C70008FEF9FEF0895FC01918D228D892F90E0D9
:100C8000805C9F4F821B91098F739927089587EB92
:100C900095E00E943B0621E0892B09F420E0822F99
:100CA000089580E090E0892B29F00E944706811189
:100CB0000C9400000895FC01A48DA80FB92FB11D5C
:100CC000A35ABF4F2C91848D90E001968F73992782
:100CD000848FA689B7892C93A089B1898C91837060
:100CE00080648C93938D848D981306C00288F38959
:100CF000E02D80818F7D80830895EF92FF920F9386
:100D00001F93CF93DF93EC0181E0888F9B8D8C8DB7
:100D100098131AC0E889F989808185FF15C09FB7AB
:100D2000F894EE89FF896083E889F989808183706E
:100D3000806480839FBF81E090E0DF91CF911F911D
:100D40000F91FF90EF900895F62E0B8D10E00F5F3E
:100D50001F4F0F731127E02E8C8D8E110CC00FB614
:100D600007FCFACFE889F989808185FFF5CFCE01AC
:100D70000E945B06F1CFEB8DEC0FFD2FF11DE35AC6
:100D8000FF4FF0829FB7F8940B8FEA89FB8980812F
:100D90008062CFCFCF93DF93EC01888D8823B9F0A9
:100DA000AA89BB89E889F9898C9185FD03C0808176
:100DB00086FD0DC00FB607FCF7CF8C9185FFF2CFF3
:100DC000808185FFEDCFCE010E945B06E9CFDF91E8
:100DD000CF910895089508952F923F924F925F9278
:100DE0006F927F928F929F92AF92BF92CF92DF923B
:100DF000EF92FF920F931F93CF93DF93CDB7DEB7A0
:100E000060970FB6F894DEBF0FBECDBF988B8F876B
:100E10006A017B013E872D87DB01CA018827B7FD68
:100E200083959927AA27BB27282F2170EF85F8895A
:100E3000208B892B21F0F7FAF094F7F8F094C70192
:100E4000B6010E94962329833A834B835C836D838A
:100E50007E838F839887AF85B8892C9311963C93B6
:100E6000119712964C93129713965C9313971496BE
:100E70006C93149715967C9315978F8116968C9387
:100E80001697988517969C93ED85FE85EE0FFF1FAC
:100E9000EE0FFF1FE55DFE4F80819181A281B3813E
:100EA00089879A87AB87BC878F8198850E940824A1
:100EB0009B01AC01C701B6010E94B72229853A8582
:100EC0004B855C850E945E202B013C010E9496238D
:100ED000822E232E342E952E5B018C01AF85B8898E
:100EE00018962C93189719963C9319971A964C9329
:100EF0001A971B965C931B971C966C931C971D96D8
:100F0000BC921D971E968C931E971F961C930E9451
:100F100008249B01AC01C301B2010E94B7222B013E
:100F20003C0120E030E040E05FE30E945C241816C2
:100F30000CF0D0C0282D322D432D592DB501C801FC
:100F4000A1E00E94992239014A015B018C010E94B3
:100F500008249B01AC0169857A858B859C850E945C
:100F6000F81F18160CF087C0EF85F8896086718627
:100F700082869386A486B58606871787ED85FE85CB
:100F8000EF2B09F05DC0AF85B8891C9111966C906C
:100F9000119712967C90129713968C901397149633
:100FA0009C9014971596AC9015971696BC90169732
:100FB00017960C91212F362D472D582D692D7A2DFE
:100FC0008B2D902F0E9408249B01AC01C701B60114
:100FD0000E94B7226B017C0120E030E040E05FE33B
:100FE0000E94F81F87FF0AC020E030E040E05FE386
:100FF000C701B6010E945C24181614F5212F217038
:1010000030E040E050E060E070E080E090E0A0E0A0
:101010000E94A522A9F0212F362D472D582D692D8C
:101020007A2D8B2D902FA1E00E949922EF85F889CF
:1010300020833183428353836483758386839783BC
:101040008F85988960960FB6F894DEBF0FBECDBF2E
:10105000DF91CF911F910F91FF90EF90DF90CF9094
:10106000BF90AF909F908F907F906F905F904F90C8
:101070003F902F900895AF85B88918961C921897C5
:1010800019961C9219971A961C921A971B961C92E5
:101090001B971C961C921C971D961C921D971E96C2
:1010A0001C921E971F961C9229813A814B815C816C
:1010B0006D817E818F819885A1E00E949922EF85C4
:1010C000F8892083318342835383648375838683C5
:1010D000978354CF20E030E040E05FE3C301B201EA
:1010E0000E94F81F81114ACF282D322D432D592DF2
:1010F000B501C801A0E00E94A52261F0217030E096
:1011000040E050E060E070E080E090E00E94A522C6
:1011100009F434CF282D322D432D592DB501C801A6
:10112000A1E00E949922AF85B88918962C93189750
:1011300019963C9319971A964C931A971B965C93A1
:101140001B971C966C931C971D967C931D971E965F
:101150008C931E971F969C9311CF2F923F924F9284
:101160005F926F927F928F929F92AF92BF92CF9237
:10117000DF92EF92FF920F931F93CF93DF93CDB740
:10118000DEB7E6970FB6F894DEBF0FBECDBF9CA7C3
:101190008BA76DA77EA758AB4FA70A8B1B8B2C8BF9
:1011A0003D8BFF8EEE8EDAAAC9AAB9A6A8A68BAA95
:1011B0009CAA2C962FAD2C972DAB2D963FAD2D973D
:1011C0003EAB8A899B89AC89BD898827B7FD839509
:1011D0009927AA27BB278E8B9F8BA88FB98F0E8943
:1011E0001F890115110549F02A893B894C895D89C0
:1011F00050582A8B3B8B4C8B5D8B20E030E0A90153
:101200006A897B898C899D890E94F81F312C212C49
:10121000882309F40FC18A899B89AC89BD89E7E1DC
:10122000B695A79597958795EA95D1F799278F5702
:101230009109BC01990F880B990B0E94FF1F2BE9A4
:1012400030E24AE95EE30E945E2024E431E544E3B3
:101250005EE30E94B8226B017C016A897B898C89DC
:101260009D898F77992780689F6320E030E040EC6C
:101270005FE30E94B7222BE33DE344E95EE30E9473
:101280005E209B01AC01C701B6010E94B8220E94FA
:10129000D2236A8F7B8F8C8F9D8F2A8C3B8CB101E0
:1012A000032C000C880B990B0E94FF1F6B017C0123
:1012B00028E73AE944E550E40E945E2020E030E06F
:1012C00040E05FE30E94B8220E94D2234B012EE847
:1012D0003DE543E150E4C701B6010E945E206B0189
:1012E0007C01092C000CAA08BB08C501B4010E94AE
:1012F000FF1F28E132E741E35FE30E945E209B018C
:10130000AC01C701B6010E94B7222B013C01AC0120
:101310009B010E945E206B017C01A3019201C3012D
:10132000B2010E94B82268A379A38AA39BA320E0FC
:1013300030E040E651E4C701B6010E94242320E0DA
:1013400030E040E251E40E94B8229B01AC01C701A9
:10135000B6010E94242320E030E040EC50E40E94DB
:10136000B8229B01AC01C701B6010E9424236B0186
:101370007C01A301920160E070E080E090E40E94B3
:10138000B7229B01AC01C701B6010E94B8229B01A4
:10139000AC0168A179A18AA19BA10E94242320E02D
:1013A00030E040E85FE30E94B8223FE7830E911CE3
:1013B000A11CB11CA5019401F7E1220F331F441FAA
:1013C000551FFA95D1F70E945E202B013C01AC011C
:1013D0009B016A897B898C899D890E94F81F87FF00
:1013E0000DC041E0241A310820E030E040E251E431
:1013F000C301B2010E9424232B013C01C10141968B
:1014000051E05AA78332910508F01AA6839790F409
:10141000C10137FE04C08827992782199309880FD4
:10142000991F880F991FFC01E55DFE4F4080518098
:101430006280738088A599A593FF8DC1AE8DBF8D05
:101440009D01AB2B11F421E030E08E8D9F8D019733
:10145000BCEF2B16BFEF3B060CF467C02216330619
:101460000CF063C082199309AA24A3949F8F8E8FD6
:1014700097FF02C01F8E1E8EE8A5F9A5F460F9A79C
:10148000E8A737FE1AA6A110C1C12114310409F43E
:1014900075C18E898170898BFAA5FF2309F463C118
:1014A000A30192016A897B898C899D890E945E20B3
:1014B0001AA50E9496232E8B3A8F48A35CA36DA396
:1014C0007EA3882E9FA30E9408242AA5A30122237D
:1014D00071F192010E9424239B01AC016A897B89EE
:1014E0008C899D890E94B7226B017C01EE8DFF8D56
:1014F000EE0FFF1FEE0FFF1FE55DFE4F8081918114
:10150000A281B3818A8B9B8BAC8BBD8B112399F00D
:10151000A3019201BC01CD010E945E209B01AC01A0
:10152000C701B6010E945E203DC0A12C9FCF920151
:101530000E945E20D1CFD301C20157E1B695A79595
:10154000979587955A95D1F799279C012F5731097F
:1015500037FF03C03195219531098A899B89AC8970
:10156000BD8947E1B695A795979587954A95D1F797
:1015700099278F57910997FF03C0919581959109FC
:10158000821793070CF07DC02A893B894C895D89BD
:10159000C301B2010E9424239B01AC01C701B60123
:1015A0000E9424232B013C01AE8DBF8DAB2B09F093
:1015B00071C011E020E030E040E05FE30E945C2475
:1015C00087FD10E0212F30E040E050E060E070E067
:1015D00080E090E0AE88BA8CC8A0DCA0EDA0FEA0B0
:1015E000082D1FA10E9490222E8B3A8F48A35CA346
:1015F0006DA37EA3882E9FA320E030E040E05FE350
:10160000C301B2010E94F81F811103C0BE89BE7FD1
:10161000BE8B10E0B12CC12C912CD12CE12CF12CE3
:1016200000E02E893A8D48A15CA16DA17EA1882D94
:101630009FA1A9E00E94A522A9F0A4F03FEF231AE0
:10164000330A10E0B12CC12C912CD12CE12CF12CBF
:1016500000E041E04E8B1A8E18A21CA21DA21EA211
:10166000812C1FA2C1018D599F4F512C25E0622E64
:10167000712C873C910508F027C184E0682E712CFD
:1016800023C1A30192016A897B898C899D890E946B
:10169000242344CF0E94962359016A017B01082F1D
:1016A000992E0E9408249B01AC01C301B2010E9443
:1016B000B7222B013C0111E020E030E040E05FE385
:1016C0000E945C2487FD10E0212F30E040E050E0D4
:1016D00060E070E080E090E0192D0E949022122FCF
:1016E000B32EC42E952ED62EE72EF82E092F20E0ED
:1016F00030E040E05FE3C301B2010E94F81F8111B6
:1017000001C01E7F212F3B2D4C2D592D6D2D7E2D7F
:101710008F2D902F0E9408249B01AC016A897B8940
:101720008C899D890E94F81F18160CF47ACF2E8997
:101730003A8D48A15CA16DA17EA1882D9FA1A1E059
:101740000E9499222E8B3A8F48A35CA36DA37EA39F
:10175000882E9FA35ECF37FC98CE2114310471F000
:101760008E898170898BA30192016A897B898C891A
:101770009D890E94242310E01AA69BCEA12C012B48
:1017800009F046C02E8D3F8D4A895B896C897D8921
:10179000CE0101960E94EC06F981FE8B2A812A8FE8
:1017A0003B8138A34C814CA35D815DA38E818EA3C8
:1017B0008F8098859FA31985BA84CB849C84DD840F
:1017C000EE84FF8408892DCF2E8D3F8D4A895B8959
:1017D0006C897D89CE0101960E94EC06A981AE8BB1
:1017E000BA81BA8FEB81E8A3FC81FCA32D812DA3E4
:1017F0003E813EA38F8048854FA31985BA84CB8450
:101800009C84DD84EE84FF84088927C0012BE1F2EB
:101810004A895B896C897D8970582E8D3F8DCE01F8
:1018200001960E94EC06E981EE8BFA81FA8F2B81FA
:1018300028A33C813CA34D814DA35E815EA38F8094
:1018400088858FA31985BA84CB849C84DD84EE843B
:10185000FF840889AA2009F4E4CE68A479A4662448
:1018600098E07922A8A5B9A555245394B3FF2CC0BC
:10187000BFEF2B163B0624F13101EFEF6E1A7E0A03
:101880002E893A8D48A15CA16DA17EA1882D9FA1D2
:101890000E940824F301EE0FFF1FEE0FFF1FE55D0E
:1018A000FE4F20813181428153810E94F81F8111B6
:1018B00007C02E8D3F8D215031093F8F2E8F130190
:1018C00055245394712C612C88A599A58270992771
:1018D0009B8B8A8B98A591FF03C06114710441F41E
:1018E000A9A9BAA9CD01861997096A167B0610F035
:1018F00090E080E0BE89B983EA8DEA83F8A1FB839A
:101900002CA12C833DA13D834EA14E838F825FA1EC
:1019100058871987BA86CB869C86DD86EE86FF8639
:10192000088BAEA9AF93BDA9BF93ECA9EF93FBA918
:10193000FF9329A52F9338A53F939F938F934F8DA6
:101940004F935E8D5F9388A98F939FA59F93AEA5BC
:10195000AF93BDA5BF93ECA5EF93FBA5FF93898043
:101960009A80AB80BC80CD80DE80EF80F8840985D2
:101970001A852B853C854D855E856F85788989899B
:101980000E94C6020FB6F894DEBF0FBECDBF511045
:1019900067C02C013FEF431A530A48A5E5E445FF11
:1019A000E5E62FEF3FEFAC016DA57EA58E2FEBA5F1
:1019B000FCA50995A32CAA1CAA24AA1C6101E32C4E
:1019C000EE0CEE08FE2C0E2D1E2DFE2DEE2D91019F
:1019D0004E2D5E2D6E2D7E2D8E2D9E2DA0E00E9413
:1019E000A5223CF40E94632269017A018B01F82F41
:1019F000E92F1F9285E08F9321E0621A71087F9290
:101A00006F921F921F929AE0892E2F2F3E2FA201D4
:101A10006DA57EA58BA59CA50E9417010F900F9028
:101A20000F900F900F900F904A895B89452BC1F062
:101A30009C01AFA5B8A92A1B3B0BE9A9FAA92E174F
:101A40003F0770F48C010F5F1F4F2FEF3FEFAC018A
:101A50006DA57EA580E2EBA5FCA50995C801E8CFA0
:101A6000E6960FB6F894DEBF0FBECDBFDF91CF91E3
:101A70001F910F91FF90EF90DF90CF90BF90AF90AC
:101A80009F908F907F906F905F904F903F902F909E
:101A900008952F923F924F925F926F927F928F9212
:101AA0009F92AF92BF92CF92DF92EF92FF920F93ED
:101AB0001F93CF93DF93CDB7DEB7E7970FB6F894B8
:101AC000DEBF0FBECDBF1C016AAB7BAB4CAB5DABC9
:101AD00028013901CEAADFAA6501B82CA901980115
:101AE000C301B8010E94F81F882331F1EEA8FFA8B6
:101AF00003E010E02EE831E04CA95DA96AA97BA9BA
:101B0000C1010E948D00E7960FB6F894DEBF0FBEAC
:101B1000CDBFDF91CF911F910F91FF90EF90DF909C
:101B2000CF90BF90AF909F908F907F906F905F907D
:101B30004F903F902F9008952FEF3FEF4FE75FEFCB
:101B4000C301B8010E94F81F87FF07C0EEA8FFA8D5
:101B500004E010E022E931E0CFCF2FEF3FEF4FE775
:101B60005FE7C301B8010E945C2418166CF404E01E
:101B700010E025E831E0C2FC04C003E010E02AE8F0
:101B800031E0EEA8FFA8B8CF9E012F5F3F4F49017B
:101B9000B11025C028E23BE64EE65EE4C301B80181
:101BA0000E945C24181654F028E23BE64EE65EECF8
:101BB000C301B8010E94F81F87FF11C01F921F9236
:101BC0005601CEA8DFA8930182014CA95DA96AA99C
:101BD0007BA9C1010E94AD080F900F9094CFD2FC59
:101BE00003C086E0E82EF12CF40110E000E080E371
:101BF00032E1E316F10448F00F5F1F4F819391E04B
:101C0000E91AF1080032110599F7BB2019F01F936A
:101C10000F93D6CF9701B301A201CE0181960E9406
:101C2000EC061F930F939F928F92DF92CF922FA972
:101C30002F933EA93F93FF92EF928DA98F939CA97A
:101C40009F932BA92F933AA93F933F922F9289A05C
:101C50009AA0ABA0BCA0CDA0DEA0EFA0F8A409A5DF
:101C60001AA52BA53CA54DA55EA56FA578A989A9A8
:101C70000E94C6020FB6F894DEBF0FBECDBF43CFA1
:101C8000882329F0682F87EB95E00C947D06089552
:101C90008F929F92AF92BF92CF92DF92EF92FF927C
:101CA0001F93CF93DF9381E10E942B05EC018EE01F
:101CB0000E942B058C179D0724F581E10E942B05BE
:101CC00024E630E0DC010E94CC2120E034E040E05A
:101CD00050E00E943221E9012B303105A4F460E08C
:101CE00086E00E94C10410E0812FDF91CF911F9107
:101CF000FF90EF90DF90CF90BF90AF909F908F902C
:101D000008958EE0DBCF2A35310534F061E086E0BE
:101D10000E94C10411E0E8CFE0919905F0919A0585
:101D2000408151816281738127E030E0C12CD12C48
:101D30007601DB01CA011AE0B695A79597958795BC
:101D40001A95D1F74A015B011EE1B694A7949794C6
:101D500087941A95D1F788259925AA25BB2584272C
:101D60009527A627B7274A015B018824B7FC8394EF
:101D70009924AA24BB2488259925AA25BB258170EE
:101D80009927AA27BB2776956795579547954C01C4
:101D90005D01BB248694B794AA24992488244829F9
:101DA00059296A297B29CC0CDD1CEE1CFF1C4A0139
:101DB0005B0111E081229924AA24BB24C828D928D8
:101DC000EA28FB282150310909F0B3CFC086D1861B
:101DD000E286F38640835183628373838483958391
:101DE000A683B783C701B6012EE430E040E050E09F
:101DF0000E949321655F7F4F11E06C177D070CF007
:101E000010E0612F86E00E94C1046ECFEF92FF9236
:101E10000F931F93CF93DF938C01EB0180E10E941E
:101E20002B057C018FE00E942B058E159F05C4F4C5
:101E300080E10E942B059801DC010E94C42120E072
:101E400034E040E050E00E943221C20FD31F88816D
:101E500090E0DF91CF911F910F91FF90EF90089547
:101E60008FE0E7CF80919B05833031F460E071E033
:101E700086E090E00C94060F66E071E08BE090E065
:101E8000F9CFCF92DF92EF92FF92CF93DF9380E171
:101E9000809381000E943D056093910570939205A7
:101EA0008093930590939405809190058F5F809324
:101EB00090058091910590919205A0919305B09124
:101EC00094054091540650915506609156067091C4
:101ED0005706C0908C05D0908D05E0908E05F0904F
:101EE0008F058C0D9D1DAE1DBF1D841B950BA60B74
:101EF000B70B80938C0590938D05A0938E05B093BE
:101F00008F058091910590919205A0919305B091D4
:101F100094058093540690935506A0935606B0936B
:101F2000570680919005863008F160918C0570917C
:101F30008D0580918E0590918F052091900530E060
:101F400050E040E00E949321209318013093190142
:101F500040931A0150931B011092900510928C052A
:101F600010928D0510928E0510928F0560911101CF
:101F70008DE00E94C10480911101C1E08C27809303
:101F800011010E94320F90931E0180931D018091D8
:101F90001D0190911E01892B51F461E085E0DF91D4
:101FA000CF91FF90EF90DF90CF900C94C10480917F
:101FB0001D0190911E01019709F094C010929505A2
:101FC000209118013091190140911A0150911B0183
:101FD0005695479537952795A0EAB0E00E94512184
:101FE0006B017C0124E130E040E050E00E9493214D
:101FF0002115310581E04807510560F5C09398052A
:1020000030939705209396058091960590919705BA
:1020100090938700809386008091980580618093DB
:1020200081001092810010928500109284008091AE
:10203000980580618093810061E085E00E94C10481
:1020400081E080931C01DF91CF91FF90EF90DF90B2
:10205000CF9008952115310588E04807510560F4B7
:1020600082E080939805C701B60120EA30E040E0A5
:1020700050E00E949321C4CF2115310580E4480728
:10208000510550F483E080939805C701B60120E024
:1020900035E040E050E0EDCF21153105410581E00C
:1020A000580750F484E080939805C701B60120E0FA
:1020B00034E140E050E0DDCF85E0809398052115C4
:1020C00031054105544038F4C701B60120E030E540
:1020D00040E050E0CECF8FEF9FEF90939705809335
:1020E000960592CFD0919B05D33009F0A8C01092ED
:1020F000950561E085E00E94C104C0931C010E9427
:10210000480E882309F447C06091180170911901A5
:1021100080911A0190911B0120911D0130911E01A7
:102120009695879577956795032E000C440B550B74
:102130000E949321A0EAB0E00E9451216B017C0132
:1021400024E130E040E050E00E9493212115310568
:1021500081E04807510560F5C093980530939705D5
:10216000209396058091960590919705909387000E
:102170008093860080919805806180938100109201
:1021800081001092850010928400809198058061F2
:102190008093810058CF209118013091190140910E
:1021A0001A0150911B015695479537952795C2CF37
:1021B0002115310588E04807510560F482E08093DD
:1021C0009805C701B60120EA30E040E050E00E94E7
:1021D0009321C4CF2115310580E44807510548F407
:1021E000D0939805C701B60120E035E040E050E00B
:1021F000EECF21153105410581E0580750F484E008
:1022000080939805C701B60120E034E140E050E03A
:10221000DECF85E0809398052115310541055440B6
:1022200038F4C701B60120E030E540E050E0CFCF00
:102230008FEF9FEF909397058093960593CF8091B2
:1022400095058F5F809395050E94480E882371F055
:102250002091950580911D0190911E012817190666
:102260002CF010929505C0931C0197CE60E096CE9D
:10227000CF93DF93EC010E94B0056C837D838E8346
:102280009F831886DF91CF910895CF92DF92EF92CE
:10229000FF920F931F93CF93DF93EB017B0124E019
:1022A000E20EF11C8B016C01C61AD70AC601800F21
:1022B000911F0E941C21F80181938F01EE15FF05EB
:1022C000A9F7CE01DF91CF911F910F91FF90EF9071
:1022D000DF90CF9008959F92AF92BF92CF92DF92FE
:1022E000EF92FF920F931F93CF93DF935C017B01DB
:1022F0008B01D0E0C0E0F80191908F016501CC0E18
:10230000DD1EC6010E941C21981621F0692DC60110
:102310000E9424212196C430D10569F7C701DF91BD
:10232000CF911F910F91FF90EF90DF90CF90BF90D2
:10233000AF909F9008952F923F924F925F926F922D
:102340007F928F929F92AF92BF92CF92DF92EF9245
:10235000FF920F931F93CF93DF93CDB7DEB72F97E5
:102360000FB6F894DEBF0FBECDBFFE01B4966190EC
:1023700071908F01312C212CD3018C91882309F489
:10238000F1C3BFEF6B1A7B0A7101EFEFEE1AFE0A81
:10239000853209F0C6C0B12CA12C07C08D3271F175
:1023A000803361F46894A0F83F01F30181918B328E
:1023B00041F1A4F7803241F1833249F190ED980F59
:1023C0009A3040F51B821A82F301819190ED980FAB
:1023D0009A3098F54AE02A813B81429F7001439FE1
:1023E000F00C112490E3E91AF108D701A80FB11DF0
:1023F00087FDBA95BB83AA833F01E6CF6894A1F815
:10240000D3CF6894A2F8D0CF6894A3F8CDCF6894C6
:10241000A4F8CACF8A32D9F5C8010296D801ED9046
:10242000FC90F7FE31C06894A1F8222733272E19BB
:102430003F093B832A838C013F01D3018C918E326B
:1024400009F048C0C30101966894B2F811962C9126
:1024500030ED320F3A30F0F4512C412CFC01219137
:1024600030ED320F3A3098F5BAE0B49D7001B59D69
:10247000F00C112430E3E31AF1082701420E511C3D
:1024800027FD5A94CF01EACFFB82EA82D4CF1B8288
:102490001A82D3CF2A32E9F4C8010296D8014D90AE
:1024A0005C9057FE02C0512C412CB2E06B0E711CA7
:1024B0008C0193012F5F3F4FF30180818C36A1F097
:1024C00064F48836D9F18A3661F0930112C03C0178
:1024D000F0CF3C01512C412CECCF843711F08A37DE
:1024E000A1F76894B1F805C081818C3609F1689430
:1024F000B0F8D9018D913D01853609F4EAC10CF09F
:10250000A4C0873409F4E5C114F5853409F4E1C1A8
:102510000CF0C1C1853209F4FBC27101BFEFEB1AA7
:10252000FB0A2FEF3FEFA101BE016F5F7F4FFBC2A0
:10253000B3E0BB2A93012E5F3F4FDBCF818188360A
:1025400019F06894A7F8D5CFF0ECAF2AF3CF823614
:1025500009F434C33CF46894A5F88835F1F6F0E149
:102560008F2E0DC0833609F4CBC18436B1F6E894C2
:10257000A4F8AAE08A2E893621F0843611F0B3EF50
:10258000AB22B2FE02C0E894A0F895012227327077
:10259000893619F0843609F023C1232B09F49CC035
:1025A000F8013896F987E887D801CC901196DC902D
:1025B00011971296EC9012971396FC90139714961D
:1025C0009C9014971596AC91F801F681FC83F80164
:1025D000F781FA879601A701692D7A2F8C819F2FA9
:1025E0000FE30E947522B22F092D1A2FFC81EA8574
:1025F0009601A701B8018F2F9E2FA0E00E94A5226F
:102600003CF40E94632269017A018B01F82FE92FC3
:10261000BF92AF922B812F933A813F935F924F925B
:10262000AB2E2F2F3E2FA101BE016F5F7F4F80E4A5
:102630009EE00E9417011C010F900F900F900F90C9
:102640000F900F900885198597CE8F3609F4B3C285
:102650009CF4873609F43DC10CF41DC1893609F498
:1026600086CF8E3609F059CFD801ED91FD918D01BD
:10267000A6FE5DC2208280CE833709F490C12CF57E
:10268000803709F04ACF65016894C0F8D4F8F801A2
:102690003296FB83EA83D8010D911C910115110537
:1026A00009F015C246E0E42EF12C05E010E02EE919
:1026B00031E0A101BE016F5F7F4F80E49EE00E9488
:1026C0008D001C010A811B8157CE853709F44FCF3D
:1026D000883709F444CF21CFB0FE48C0C801049622
:1026E00099878887D801CD90DD90ED90FC90D70137
:1026F000C6018827B7FD83959927AA27BB278C8712
:102700009D87AE87BF87D701C601BB0F880B982F67
:10271000DC018C839D83AE83BF83BC2D9D2CEA8618
:10272000FB860C81102FF02FE02F9601A7016F2F51
:10273000702F802F9F2FA0E00E94A5224CF40E94B2
:102740006322B22F932E4A875B878B01F82FE92FE4
:10275000BF92AF929B819F93AA81AF935F924F925A
:10276000AC84CB2ED92CEA84FB845BCFF801329663
:10277000F987E887D801A6FE30C0EC910E2E000C38
:10278000FF0BBF2FBB1FBB27BB1FBC836F01EF2EEF
:10279000EE0CEE08FE2C0E2D1E2D9E2CBE2D9F0144
:1027A0004E2D5E2D6E2D7E2D8E2D9E2DA0E00E9435
:1027B000A5223CF40E94632269017A018B01982EC4
:1027C000B92FBF92AF92EB81EF93FA81FF935F92A3
:1027D0004F92AC80292D3B2F26CFED91FC91D1CF8C
:1027E000232B39F19801285F3F4F39872887D8017B
:1027F000CC901196DC9011971296EC90129713964C
:10280000FC90139714969C91149715968C9115979C
:1028100016962C91169717963C91BF92AF92BB815A
:10282000BF93EA81EF935F924F92A12C092F182F4B
:10283000FACE9801B0FE19C02C5F3F4F3987288728
:10284000D8010D911D912D913C91BF92AF92BB810A
:10285000BF93EA81EF935F924F92A12C68017901B7
:1028600000E010E020E030E0DECE2E5F3F4F398701
:102870002887D8010D911C91A6FC1127BF92AF9219
:10288000BB81BF93EA81EF935F924F92A12C6801C5
:10289000E12CF12CE5CF863411F46894A5F8980169
:1028A0002C5F3F4F3D832C83D8010D911D912D91BD
:1028B0003C91812CCA80DB807201A101BE016F5F57
:1028C0007F4F80E49EE00E94490D1C010C811D8118
:1028D00053CD982F9F7D973419F46894B3F88D7F6A
:1028E000853411F46894A5F8F8013496FD83EC83DF
:1028F000D8010D911D912D913C9188248394DACFBC
:102900004501B2E08B229924A101CC24C394D12C9F
:10291000A1FC1AC0F12CE12CA1014E0D5F1D670135
:10292000E2E0CE0ED11CFFEFEF1AFF0A2A813B81B5
:10293000E216F30648F42FEF3FEFBE016F5F7F4FC3
:1029400080E20E94400EE8CF1A013FEF231A330ABB
:10295000780182E0E80EF11C2FEF3FEFBE016F5FC0
:102960007F4FD8018C910E94400E8928B1F0EA81F6
:10297000FB81CE16DF0688F481010F5F1F4F2FEF1A
:102980003FEFA101BE016F5F7F4F80E20E94400ECA
:10299000FFEFCF1ADF0A1801EACF8701EDCC9801CB
:1029A0002E5F3F4F39872887D8010D911C91011563
:1029B000110589F46501EA80FB8006E010E027E953
:1029C00031E0A101BE016F5F7F4F80E49EE00E9475
:1029D0008D001C0137CE92014114510411F42FEFE8
:1029E0003FEFF80190E080E0AF014F5F5F4F608103
:1029F000662331F08217930719F00196FA01F4CF9C
:102A0000E01BF10B9501222734703D832C83B2FE2D
:102A100004C04E165F0608F4F201450132E083223D
:102A200099247F01A101A1FC18C02E1A3F0AA1011F
:102A30004E0F5F1F7F018FEFE81AF80AAA81BB8152
:102A4000EA17FB0750F42FEF3FEFBE016F5F7F4F98
:102A500080E20E94400EF701EACF6A01C01AD10A53
:102A6000A601400F511FF80181918F01882391F039
:102A70002C813D81232B31F09201215031094528D1
:102A800049F029012FEF3FEFBE016F5F7F4F0E949A
:102A9000400EE6CF1A01892809F4D4CDE41AF50ACC
:102AA000C701820D931DAA81BB818A179B0708F07D
:102AB000C9CD81010F5F1F4F2FEF3FEFA101BE0175
:102AC0006F5F7F4F80E20E94400E1801E9CFDF92D6
:102AD000CF921F92B6E0BF935F924F9230E1832E68
:102AE000A12C6801E12CF12C00E010E020E030E0A6
:102AF000A101BE016F5F7F4F80E49EE00E9417013D
:102B00001C010F900F900F900F900F900F90DACD47
:102B10007101EFEFEE1AFE0A2FEF3FEFA101BE01A8
:102B20006F5F7F4F85E20E94400E170125CCA7FE04
:102B300003C03182208220CCB0FE08C0C101B0E0C9
:102B4000A0E080839183A283B38316CCB1FEF1CF42
:102B50004101208291821282138214821582168290
:102B600017820ACCA101EFEF2E163E0611F44EEFAC
:102B70005FEF2FEF3FEFBE016F5F7F4F80E00E945E
:102B8000400EC1012F960FB6F894DEBF0FBECDBF29
:102B9000DF91CF911F910F91FF90EF90DF90CF9039
:102BA000BF90AF909F908F907F906F905F904F906D
:102BB0003F902F90089528E0822EE1CC92E0892E5C
:102BC000DECC813051F188F0823051F1833061F1F7
:102BD0001F928F9384EA91E09F938F930E949B11A1
:102BE0000F900F900F900F9006C010926D061092EC
:102BF0006E0610926F0660916D0680916A060E94C3
:102C0000C10460916E0680916B060E94C1046091C0
:102C10006F0680916C060C94C10480936D06E7CF1B
:102C200081E080936F06E7CF10926D0681E080937C
:102C30006E06DFCFBF92CF92DF92EF92FF920F939B
:102C40001F93CF93DF93CDB7DEB728970FB6F894D5
:102C5000DEBF0FBECDBF6D837E838F83988780914B
:102C6000AC059091AD05089708F4B7C08091AB050D
:102C70008F938091AA058F9381EC91E09F938F931E
:102C80000E949B1183E393E3DC0189839A83AB83E6
:102C9000BC83BE016F5F7F4F8091AA059091AB0509
:102CA0000E946B112091A8053091A905285F3F4F24
:102CB0008091AC059091AD0508970F900F900F9003
:102CC0000F9082179307C0F488EE91E09F938F9343
:102CD0000E949B111F921F9288E392E09F938F9313
:102CE0000E949B111092A9051092A8050F900F90B9
:102CF0000F900F900F900F908091A9058F93809166
:102D0000A8058F938AE592E09F938F930E949B1171
:102D100086E696E6DC0189839A83AB83BC83BE0199
:102D20006F5F7F4F8091A8059091A9050E946B115C
:102D30008091A8059091A9059C01285F3F4F3F9382
:102D40002F9304969F938F9381E892E09F938F93A4
:102D50000E949B11E090A805F090A90587010C5FE7
:102D60001F4F6E0185E0C80ED11C98E0E90EF11CE2
:102D70000FB6F894DEBF0FBECDBFF601B1906F0164
:102D8000C8010E941C21B81621F06B2DC8010E94B9
:102D900024210F5F1F4F0E151F0579F78091A8059D
:102DA0009091A9059093AB058093AA0508969093FE
:102DB000A9058093A80588E090E028960FB6F894BE
:102DC000DEBF0FBECDBFDF91CF911F910F91FF905E
:102DD000EF90DF90CF90BF9008958FEF9FEFEDCFF2
:102DE00080919B05813049F583E080939B0580911C
:102DF0001D0190911E01019719F482E00E94E115D6
:102E000085E991E09F938F930E949B1181E08093CD
:102E1000B2050E94B0056053784F8F4F9F4F60936B
:102E2000B3057093B4058093B5059093B605809172
:102E30009B050F900F900C94E11580919B058330BA
:102E4000B1F681E0D2CF80919B05813099F4109248
:102E5000950580E18093810010921C0160E085E07F
:102E60000E94C10488ED94E09F938F930E949B1170
:102E70000F900F9008951F920F920FB60F9211248A
:102E80002F933F938F939F93AF93BF938091A00510
:102E90009091A105A091A205B091A30530919F0545
:102EA00023E0230F2D3758F50196A11DB11D209366
:102EB0009F058093A0059093A105A093A205B093D0
:102EC000A3058091A4059091A505A091A605B091B8
:102ED000A7050196A11DB11D8093A4059093A5059A
:102EE000A093A605B093A705BF91AF919F918F9135
:102EF0003F912F910F900FBE0F901F90189526E8CD
:102F0000230F0296A11DB11DD2CF1F920F920FB6B3
:102F10000F9211242F933F934F935F936F937F935F
:102F20008F939F93AF93BF93EF93FF93E09114011F
:102F3000F09115010995FF91EF91BF91AF919F918C
:102F40008F917F916F915F914F913F912F910F9052
:102F50000FBE0F901F9018951F920F920FB60F92F1
:102F600011242F933F934F935F936F937F938F938E
:102F70009F93AF93BF93EF93FF93E0911201F09172
:102F800013010995FF91EF91BF91AF919F918F919F
:102F90007F916F915F914F913F912F910F900FBE55
:102FA0000F901F9018951F920F920FB60F92112439
:102FB0002F933F934F935F936F937F938F939F9341
:102FC000AF93BF93EF93FF9387EB95E00E945B066F
:102FD000FF91EF91BF91AF919F918F917F916F91F1
:102FE0005F914F913F912F910F900FBE0F901F90C7
:102FF00018951F920F920FB60F9211242F938F9353
:103000009F93EF93FF93E091C705F091C8058081EE
:10301000E091CD05F091CE0582FD1BC0908180919D
:10302000D0058F5F8F732091D105821741F0E09119
:10303000D005F0E0E954FA4F958F8093D005FF91C9
:10304000EF919F918F912F910F900FBE0F901F9036
:1030500018958081F4CF1F920F920FB60F92112412
:103060002F933F934F935F936F937F938F939F9390
:10307000AF93BF93EF93FF93E0911601F091170187
:103080000995FF91EF91BF91AF919F918F917F91A2
:103090006F915F914F913F912F910F900FBE0F90C5
:1030A0001F901895EF92FF920F931F93CF93DF938A
:1030B000EC017B01198218821B821A821D821C82FC
:1030C000FB0101900020E9F731978F01061B170BD8
:1030D000B8016F5F7F4F90E080E00E9486250097E7
:1030E000B9F0998388831B830A832C813D81232B2C
:1030F00011F4FC0110821D830C83B7018881998132
:10310000DF91CF911F910F91FF90EF900C944C267F
:1031100088819981009711F00E94FD2419821882FC
:103120001D821C821B821A82DF91CF911F910F9109
:10313000FF90EF9008950F931F93CF93DF9310921A
:10314000BA051092B90588EE93E0A0E0B0E0809354
:10315000BB059093BC05A093BD05B093BE0587E762
:1031600091E09093B8058093B70585EC90E090933B
:10317000C4058093C30584EC90E09093C6058093CA
:10318000C50580EC90E09093C8058093C70581EC5D
:1031900090E09093CA058093C90582EC90E09093EB
:1031A000CC058093CB0586EC90E09093CE05809380
:1031B000CD051092D0051092D1051092D205109233
:1031C000D30582E390E090938B0680938A0680E992
:1031D00091E090938D0680938C0680E293E090932B
:1031E0008F0680938E0688EE93E0909391068093ED
:1031F00090061092930610929206109295061092E5
:1032000094061092970610929606109299061092C4
:10321000980610929B0610929A0610929D061092A4
:103220009C0610929F0610929E061092A106109284
:10323000A0061092A3061092A2061092A506109264
:10324000A4061092A7061092A6061092A906109244
:10325000A8061092AB061092AA061092AD06109224
:10326000AC061092AF061092AE061092B106109204
:10327000B0061092B3061092B2061092B5061092E4
:10328000B4061092B7061092B6061092B9061092C4
:10329000B8061092BB061092BA061092BC068FEFC9
:1032A0009FEF9093BE068093BD069093C0068093D7
:1032B000BF061092C1061092C2061092C306109269
:1032C000C4061092C5061092C6061092C706109248
:1032D000C8061092C9061092CA061092CB06109228
:1032E000CC061092CE061092CD0681E090E090932D
:1032F000D0068093CF061092D2061092D10610927B
:10330000D3061092D4061092D5061092D60684E009
:1033100090E0909389068093880662E00E94EF0413
:1033200061EB72E086E796E00E94521865EB72E06E
:103330008CE796E00E94521869EB72E082E896E012
:103340000E945218CFE1D1E000E716E08991F80120
:1033500081938F0161E00E94EF04F1E0C532DF0745
:10336000A9F787E080936A0688E080936B0689E07E
:1033700080936C0661E087E00E94EF0461E0809139
:103380006B060E94EF0461E080916C060E94EF04DE
:1033900080E00E94E11510926906109260060E947A
:1033A0003D0560935406709355068093560690939E
:1033B0005706DF91CF911F910F910895CF93DF931F
:1033C000CDB7DEB72F970FB6F894DEBF0FBECDBFD7
:1033D000789484B5826084BD84B5816084BD85B5F0
:1033E000826085BD85B5816085BD80916E008160FC
:1033F00080936E00109281008091810082608093A2
:1034000081008091810081608093810080918000A3
:103410008160809380008091B10084608093B100CE
:103420008091B00081608093B00080917A008460C8
:1034300080937A0080917A00826080937A008091F4
:103440007A00816080937A0080917A00806880930E
:103450007A001092C100E091C705F091C80582E0A2
:103460008083E091C305F091C4051082E091C50509
:10347000F091C60588E080831092CF05E091CB05DE
:10348000F091CC0586E08083E091C905F091CA05F2
:10349000808180618083E091C905F091CA058081B7
:1034A00088608083E091C905F091CA0580818068B9
:1034B0008083E091C905F091CA0580818F7D80836A
:1034C0008EEB92E09F938F930E949B1180E094E09B
:1034D0009E838D8384E08F931F9280ED92E09F9373
:1034E0008F930E949B110F900F900F900F900F9051
:1034F0000F9010E000E08D819E8104970817190756
:1035000008F059C0BE01695F7F4FC8010E94451194
:103510008F819885A985BA8586369646A646B64691
:1035200009F046C01C830B83C80108969A838983DF
:103530001F930F938CEE92E09F938F930E949B11A9
:103540000F900F900F900F908FE0FE013196A8EA38
:10355000B5E001900D928A95E1F78091AA059091CE
:10356000AB052091A8053091A90528173907B9F5B1
:103570008AE593E09F938F930E949B1183E0809351
:103580009B0560919B0570919C0580919D05909194
:103590009E050E941A160F900F9097FF71C28EE63B
:1035A00093E09F938F930E949B110F900F9041C0C7
:1035B0000C5F1F4FA0CF1B860E94B0056C877D87D4
:1035C0008E879F871A8219821C821B828EE193E06C
:1035D0009F938F930E949B110F900F90B5CF6EEA2F
:1035E00075E00E9445118091AE059091AF05A091C4
:1035F000B005B091B10586369646A646B646C9F4E2
:10360000E090AA05F090AB0587010C5F1F4FABE976
:10361000CA2EA5E0DA2E88E0E80EF11CC8010E944F
:103620001C21F60181936F010F5F1F4FE016F10619
:10363000A9F712E080E00E94940581E00E949405C1
:1036400082E00E94940581E00E94940580E00E943F
:10365000940581E00E94940583E00E94940584E033
:103660000E94940585E00E94940584E00E949405E0
:1036700083E00E94940581E00E949405113009F0D6
:1036800033C261E08DE00E94EF0460E08FE00E94B1
:10369000EF048FE00E942B0560E080E10E94EF04C0
:1036A00080E10E942B0560E08EE00E94EF048EE036
:1036B0000E942B0560E081E10E94EF0481E10E94FD
:1036C0002B0561E086E00E94EF0460E082E00E944A
:1036D000EF0460E083E00E94EF0480EF96E19093B6
:1036E00095068093940680919B050E94E115809138
:1036F0009B058150990B26E0289FF001299FF00D32
:103700001124EA58F94F81818F9380818F938FE044
:1037100094E09F938F930E949B110E943D056093BC
:10372000540670935506809356069093570682E18F
:103730000E942B057C018CE090E00E946124FC013A
:10374000A701FF0C660B770B4858594A6B4C7D4E0E
:103750004083518362837383148215821682178299
:10376000108611861286138690939A058093990588
:103770001F92E2E0BE2EBF9284E294E09F938F936B
:103780000E949B1181E49FE09093130180931201AA
:1037900080916900836080936900E89A61E085E028
:1037A0000E94EF041F9203E00F938AE594E09F9339
:1037B0008F930E949B1183E297E190931501809370
:1037C0001401809169008C6080936900E99A1092DD
:1037D0001C010E94320F90931E0180931D01809165
:1037E0001D0190911E019F938F9380E994E09F9318
:1037F0008F930E949B116091180170911901809123
:103800001A0190911B0120911D0130911E0140E190
:1038100040938100109280009695879577956795E3
:10382000032E000C440B550B0E949321A0EAB0E03C
:103830000E9451216B017C0124E130E040E050E026
:103840000E9493210FB6F894DEBF0FBECDBF2115A5
:10385000310591E04907510508F048C110939805DA
:103860003093970520939605809196059091970542
:103870009093870080938600809198058061809363
:10388000810080919B05833009F076C11092810000
:103890001092850010928400809198058061809339
:1038A000810061E085E00E94C1048CEB95E090937B
:1038B00017018093160181E080936F000E94B0058C
:1038C00004EF11E020E030E00093610610936206FF
:1038D00020936306309364066093650670936606D2
:1038E00080936706909368061092690681E696E0D9
:1038F0000E9438110E94B00504E610E020E030E09C
:10390000009358061093590620935A0630935B068D
:1039100060935C0670935D0680935E0690935F06ED
:103920001092600688E596E00E9438118AE994E0DA
:103930009F938F930E949B110F900F907AEA472ECE
:1039400074E0572E4EE1642E45E0742E5AED852E1C
:1039500054E0952E60E0262E60E0362E0E94B005E1
:103960000091650610916606209167063091680601
:10397000601B710B820B930B009161061091620624
:103980002091630630916406061717072807390748
:1039900070F48DE00E94980461E0892B09F060E0EA
:1039A0008DE00E94C10481E696E00E94381180916A
:1039B00088069091890697FD3EC10E9498048C016B
:1039C0000E94B005DC01CB018093C5069093C6062A
:1039D000A093C706B093C8062091BF063091C006D9
:1039E0000217130709F0CAC04091C1065091C206E0
:1039F0006091C3067091C4066C017D01C41AD50A9A
:103A0000E60AF70A40918A0650918B0670E060E062
:103A1000C416D506E606F70620F01093BE060093FE
:103A2000BD060091BD061091BE06E0909206F09092
:103A300093064091C9065091CA066091CB067091D9
:103A4000CC065C016D01A41AB50AC60AD70AB601F4
:103A5000A5012091BA063091BB062230310509F448
:103A6000C6C10CF098C02115310509F4ACC0213055
:103A7000310509F485C11092BB061092BA06DBC06D
:103A80008091AB058F938091AA058F938AEA93E08A
:103A90009F938F930E949B118091A9058F93809192
:103AA000A8058F9382ED93E09F938F930E949B11C3
:103AB00080919B058150990B26E0289FF001299F5A
:103AC000F00D1124EA58F94F81818F9380818F93F3
:103AD0008AEF93E09F938F930E949B110FB6F89407
:103AE000DEBF0FBECDBFA5CD11E0A4CD21153105A0
:103AF000E8E04E07510558F4B0929805C701B601A9
:103B000020EA30E040E050E00E949321A9CE211548
:103B10003105F0E44F07510548F400939805C701BB
:103B2000B60120E035E040E050E0EECF2115310550
:103B3000410581E0580750F484E080939805C7015F
:103B4000B60120E034E140E050E0DECF85E0809334
:103B50009805211531054105544038F4C701B601D7
:103B600020E030E540E050E0CFCF8FEF9FEF909323
:103B700097058093960578CE80E191CE8093C1061B
:103B80009093C206A093C306B093C4061093C006D8
:103B90000093BF0646CF2630310509F49FC1273078
:103BA000310509F4E1C12330310509F064CFE01695
:103BB000F10609F02CC1AA24A394B12CB092BB0643
:103BC000A092BA06E6C08091BC06811116C0809111
:103BD000900690919106B0E0A0E084179507A607A3
:103BE000B70758F4E091B806F091B906309729F07C
:103BF000BB24B394B092BC060995E016F106D9F443
:103C0000CC24C394D12CD092BB06C092BA0680912A
:103C1000C5069091C606A091C706B091C8068093CC
:103C2000C9069093CA06A093CB06B093CC06109217
:103C3000CE061092CD068091B205882309F465C0A6
:103C40000E94B0050091B3051091B4052091B5050F
:103C50003091B605061717072807390708F055C031
:103C60001092B2051F9284E08F935F924F920E9450
:103C70009B1160919B0570919C0580919D05909191
:103C80009E050E941A160F900F900F900F9097FFAD
:103C90007EC19F928F920E949B110F900F908091F6
:103CA0009B058150990B26E0289FF001299FF00D7C
:103CB0001124EA58F94F81818F9380818F9380E797
:103CC000A82E85E0B82EBF92AF920E949B118DE086
:103CD0000E94980461E0892B09F060E08DE00E9469
:103CE000C10464E670E080E090E00E9462058DE02F
:103CF0000E94980461E0892B09F060E08DE00E9449
:103D0000C1040F900F900F900F900E94B00500918A
:103D10005C0610915D0620915E0630915F06601B87
:103D2000710B820B930B009158061091590620914C
:103D30005A0630915B060617170728073907A0F4C3
:103D40000E94320F90931E0180931D0180911D01EE
:103D500090911E01019709F036C182E00E94E115A1
:103D600088E596E00E9438112114310409F4F6CD5B
:103D70000E944706882309F4E5CD0E940000E2CDA9
:103D8000E016F10679F022E030E03093BB06209394
:103D9000BA068093C9069093CA06A093CB06B09347
:103DA000CC0649CF80918E0690918F06B0E0A0E0BE
:103DB00084179507A607B70708F03DCFE091A60640
:103DC000F091A706309709F00995E091A806F091C7
:103DD000A906309729F08091AA069091AB06099523
:103DE00086E090E09093BB068093BA0624CF809142
:103DF000CD069091CE0601969093CE068093CD0687
:103E0000E3E0F0E0F093BB06E093BA0614CF8091B4
:103E1000CD069091CE0600918C0610918D0630E073
:103E200020E0401751076207730740F42091CF0646
:103E30003091D0062817390709F0FDCE8130910561
:103E400031F5E0919406F0919506309709F00995C7
:103E5000E0919606F09197068091980690919906C8
:103E6000309741F51092BB061092BA061092CE061A
:103E70001092CD060E94B0056093C9067093CA06E1
:103E80008093CB069093CC061092BC06D4CE0297BA
:103E900099F4E0919A06F0919B06309709F0099504
:103EA000E0919C06F0919D0680919E0690919F0660
:103EB0003097C1F20995D6CFE091A006F091A10606
:103EC000309709F00995E091A206F091A306809140
:103ED000A4069091A506309769F7C4CFE016F106C5
:103EE00041F097E0C92ED12CD092BB06C092BA0601
:103EF000A2CE4091D3065091D4066091D506709120
:103F0000D606841B950BA60BB70B4091D10650919A
:103F1000D20670E060E084179507A607B70708F49B
:103F20008ACEE091B206F091B306309709F0099578
:103F3000E091B406F091B506309729F08091B6066D
:103F40009091B70609958091C5069091C606A091FB
:103F5000C706B091C8068093D3069093D406A09369
:103F6000D506B093D60667CEE091AC06F091AD06CB
:103F7000309709F00995E091AE06F091AF063097C1
:103F800009F470CF8091B0069091B10693CF8091E3
:103F9000AB058F938091AA058F937F926F920E94B9
:103FA0009B118091A9058F938091A8058F9327E499
:103FB00035E03F932F930E949B110FB6F894DEBF1C
:103FC0000FBECDBF6CCE80919B05C8CECF93DF9343
:103FD000C8E8D6E0269788819981009711F00E9461
:103FE000FD2486E0C637D807A9F7DF91CF91089561
:103FF0000E943A2008F481E00895E89409C097FBF4
:104000003EF490958095709561957F4F8F4F9F4FAF
:104010009923A9F0F92F96E9BB279395F6958795F3
:1040200077956795B795F111F8CFFAF4BB0F11F4B6
:1040300060FF1BC06F5F7F4F8F4F9F4F16C088235D
:1040400011F096E911C0772321F09EE8872F762F93
:1040500005C0662371F096E8862F70E060E02AF0D4
:104060009A95660F771F881FDAF7880F96958795C0
:1040700097F90895990F0008550FAA0BE0E8FEEF95
:1040800016161706E807F907C0F012161306E4071C
:10409000F50798F0621B730B840B950B39F40A2615
:1040A00061F0232B242B252B21F408950A2609F4F3
:1040B000A140A6958FEF811D811D08950E9471205A
:1040C0000C94E2200E94D42038F00E94DB2020F0E3
:1040D000952311F00C94CB200C94D12011240C9436
:1040E00016210E94F32070F3959FC1F3950F50E0C5
:1040F000551F629FF001729FBB27F00DB11D639F9A
:10410000AA27F00DB11DAA1F649F6627B00DA11D3F
:10411000661F829F2227B00DA11D621F739FB00DE5
:10412000A11D621F839FA00D611D221F749F332755
:10413000A00D611D231F849F600D211D822F762FEE
:104140006A2F11249F5750409AF0F1F088234AF0CB
:10415000EE0FFF1FBB1F661F771F881F9150504037
:10416000A9F79E3F510580F00C94CB200C941621AA
:104170005F3FE4F3983ED4F3869577956795B795BE
:10418000F795E7959F5FC1F7FE2B880F911D9695D8
:10419000879597F9089597F99F6780E870E060E048
:1041A00008959FEF80EC089500240A9416161706D0
:1041B00018060906089500240A9412161306140618
:1041C00005060895092E0394000C11F4882352F07B
:1041D000BB0F40F4BF2B11F460FF04C06F5F7F4F33
:1041E0008F4F9F4F089557FD9058440F551F59F01A
:1041F0005F3F71F04795880F97FB991F61F09F3FD4
:1042000079F087950895121613061406551FF2CFFC
:104210004695F1DF08C0161617061806991FF1CF4C
:1042200086957105610508940895E894BB27662773
:104230007727CB0197F90895F999FECF92BD81BDFB
:10424000F89A992780B50895262FF999FECF1FBABD
:1042500092BD81BD20BD0FB6F894FA9AF99A0FBEAF
:1042600001960895052E97FB1EF400940E944921A3
:1042700057FD07D00E94932107FC03D04EF40C9405
:10428000492150954095309521953F4F4F4F5F4FB5
:10429000089590958095709561957F4F8F4F9F4FB2
:1042A00008950E94B521A59F900DB49F900DA49FE5
:1042B000800D911D112408952F923F924F925F928D
:1042C0006F927F928F929F92AF92BF92CF92DF9226
:1042D000EF92FF920F931F93CF93DF93CDB7DEB78B
:1042E000CA1BDB0B0FB6F894DEBF0FBECDBF09941F
:1042F0002A88398848885F846E847D848C849B8476
:10430000AA84B984C884DF80EE80FD800C811B8183
:10431000AA81B981CE0FD11D0FB6F894DEBF0FBEB2
:10432000CDBFED010895A1E21A2EAA1BBB1BFD0112
:104330000DC0AA1FBB1FEE1FFF1FA217B307E40784
:10434000F50720F0A21BB30BE40BF50B661F771FDC
:10435000881F991F1A9469F76095709580959095BC
:104360009B01AC01BD01CF010895A29FB001B39F95
:10437000C001A39F700D811D1124911DB29F700D6E
:10438000811D1124911D08950E94B521332312F43B
:104390008A1B9B0B0C94CE210E94B521B7FF089578
:1043A000821B930B0895689401C0E894F92FF12BB8
:1043B00012F00C940722A0E0B0E0E1EEF1E20C94E0
:1043C0006221092E059422F40E946322112392F4A3
:1043D000F0E80F26FFEFE094F09400951095B0946C
:1043E000C094D094A194BF0ACF0ADF0AEF0AFF0A53
:1043F0000F0B1F0B0E94122207FC0E946322CDB7F5
:10440000DEB7ECE00C947E21689401C0E8948F92B2
:104410009F92CF93DF930E941222DF91CF919F90C2
:104420008F90089588249924F401E401B0E49F93C7
:10443000AA279A158B049C04ED05FE05CF05D0072D
:10444000A10798F4AD2FDC2FCF2FFE2FE92D982C4C
:10445000892E982F872F762F652F542F432F322F99
:104460002227B85031F7BF9127C01B2EBF91BB2721
:10447000220F331F441F551F661F771F881F991F68
:10448000881C991CEE1FFF1FCC1FDD1FAA1FBB1F1E
:104490008A149B04EC05FD05CE05DF05A007B107D6
:1044A00048F08A189B08EC09FD09CE09DF09A00B2A
:1044B000B10B21601A94E1F62EF49401AF01BE0114
:1044C000CD01000C0895609570958095909530957C
:1044D0004095509521953F4F4F4F5F4F6F4F7F4F06
:1044E0008F4F9F4F089597FD1094002E083098F03D
:1044F0000850232F342F452F562F672F782F892FC1
:10450000912DF4CF15949795879577956795579545
:104510004795379527950A95AAF71124002D0895F8
:104520002A0D3B1D4C1D5D1D6E1D7F1D801F911FA3
:1045300008950024A7FD00942A0F301D401D501D32
:10454000601D701D801D901D08950024A7FD00941E
:104550002A17300540055005600570058005900557
:104560000895EE0FFF1F0590F491E02D0994505827
:10457000BB27AA270E94CF220C94E2200E94D420BD
:1045800038F00E94DB2020F039F49F3F19F426F424
:104590000C94D1200EF4E095E7FB0C94CB20E92F8E
:1045A0000E94F32058F3BA17620773078407950730
:1045B00020F079F4A6F50C9415210EF4E0950B2E5D
:1045C000BA2FA02D0B01B90190010C01CA01A00165
:1045D0001124FF27591B99F0593F50F4503E68F1C0
:1045E0001A16F040A22F232F342F4427585FF3CF01
:1045F000469537952795A795F0405395C9F77EF4D2
:104600001F16BA0B620B730B840BBAF09150A1F01A
:10461000FF0FBB1F661F771F881FC2F70EC0BA0FA0
:10462000621F731F841F48F4879577956795B79528
:10463000F7959E3F08F0B0CF9395880F08F0992723
:10464000EE0F9795879508950E9438230C94E220E9
:104650000E94DB2058F00E94D42040F029F45F3FF4
:1046600029F00C94CB2051110C9416210C94D120DC
:104670000E94F32068F39923B1F3552391F3951B1E
:10468000550BBB27AA2762177307840738F09F5F73
:104690005F4F220F331F441FAA1FA9F335D00E2EE0
:1046A0003AF0E0E832D091505040E695001CCAF74D
:1046B0002BD0FE2F29D0660F771F881FBB1F261710
:1046C00037074807AB07B0E809F0BB0B802DBF01E7
:1046D000FF2793585F4F3AF09E3F510578F00C94B6
:1046E000CB200C9416215F3FE4F3983ED4F38695DB
:1046F00077956795B795F7959F5FC9F7880F911DD7
:104700009695879597F90895E1E0660F771F881FC2
:10471000BB1F621773078407BA0720F0621B730B75
:10472000840BBA0BEE1F88F7E0950895BEE304D022
:1047300008F490E80895BFE322273327A9010E94D7
:10474000FB2060F19F5748F1B91740F1BFE3B91B57
:104750009927B8503AF4660F771F881F991FB395B1
:10476000D2F316C0B8504AF0232F342F452F562FBE
:10477000672F782F8827B850BAF7B85F49F0869529
:10478000779567955795479537952795BA95B9F7D2
:1047900016F40E944C2488940895889460E070E098
:1047A000CB0108950E94D9236894B1110C9416216D
:1047B00008950E94FB2088F09F5798F0B92F992701
:1047C000B751B0F0E1F0660F771F881F991F1AF0FC
:1047D000BA95C9F714C0B13091F00E941521B1E02B
:1047E00008950C941521672F782F8827B85F39F02A
:1047F000B93FCCF3869577956795B395D9F73EF495
:1048000090958095709561957F4F8F4F9F4F08953C
:1048100097FB16F40E944C240C940F24E894F92F73
:1048200096EBFF2381F0121613061406440B9395A2
:10483000F69587957795679557954040FF23B9F78B
:104840001BC099270895882351F49850D2F7872BDD
:10485000762F652F542F432F322F20E0B1F31216FD
:1048600013061406440B88233AF09A95440F551FFB
:10487000661F771F881FCAF755234AF4440F551F38
:1048800011F460FF04C06F5F7F4F8F4F9F4F880F01
:104890009695879597F90895909580957095609570
:1048A00050954095309521953F4F4F4F5F4F6F4F3B
:1048B0007F4F8F4F9F4F08950E943A2008F48FEF4B
:1048C00008950F931F93CF93DF938230910510F4D7
:1048D00082E090E0E091D906F091DA0630E020E045
:1048E000B0E0A0E0309799F42115310509F44AC0F1
:1048F000281B390B24303105D8F58A819B8161153D
:10490000710589F1FB0193838283FE0111C040810F
:1049100051810281138148175907E0F04817590760
:1049200099F4109761F012960C93129713961C93BA
:104930003296CF01DF91CF911F910F91089500938F
:10494000D9061093DA06F4CF2115310551F042173C
:10495000530738F0A901DB019A01BD01DF01F8011D
:10496000C1CFEF01F9CF9093DA068093D906CDCF6E
:10497000FE01E20FF31F8193919322503109398395
:104980002883D7CF2091D7063091D806232B41F426
:1049900020912701309128013093D8062093D70623
:1049A00020912501309126012115310541F42DB7C3
:1049B0003EB74091290150912A01241B350BE0910B
:1049C000D706F091D806E217F307A0F42E1B3F0B91
:1049D0002817390778F0AC014E5F5F4F2417350771
:1049E00048F04E0F5F1F5093D8064093D70681932F
:1049F00091939FCFF0E0E0E09CCFCF93DF930097BF
:104A0000E9F0FC01329713821282A091D906B0918D
:104A1000DA06ED0130E020E01097A1F42081318129
:104A2000820F931F2091D7063091D8062817390797
:104A300009F061C0F093D806E093D706DF91CF91DB
:104A40000895EA01CE17DF07E8F54A815B819E01F0
:104A500041155105B1F7E901FB83EA834991599169
:104A6000C40FD51FEC17FD0761F480819181029678
:104A7000840F951FE90199838883828193819B83A9
:104A80008A83F0E0E0E012968D919C911397009755
:104A9000B9F52D913C911197CD010296820F931F8C
:104AA0002091D7063091D8062817390739F6309764
:104AB00051F51092DA061092D906B093D806A09359
:104AC000D706BCCFD383C28340815181840F951F09
:104AD000C817D90761F44E5F5F4F88819981480FED
:104AE000591F518340838A819B819383828321153F
:104AF000310509F0B0CFF093DA06E093D9069ECFE6
:104B0000FD01DC01C0CF13821282D7CFB0E0A0E05C
:104B1000ECE8F5E20C945E218C01009751F4CB0196
:104B20000E9461248C01C801CDB7DEB7E0E10C948E
:104B30007A21FC01E60FF71F9C0122503109E21790
:104B4000F30708F49DC0D901CD91DC911197C617E8
:104B5000D70798F0C530D10530F3CE0104978617FA
:104B6000970708F3C61BD70B2297C193D1936D9378
:104B70007C93CF010E94FD24D6CF5B01AC1ABD0A05
:104B80004C018C0E9D1EA091D906B091DA06512CD5
:104B9000412CF12CE12C109731F58091D7069091A2
:104BA000D8068815990509F05CC04616570608F026
:104BB00058C08091250190912601009741F48DB74E
:104BC0009EB74091290150912A01841B950BE8174B
:104BD000F90708F055C0F093D806E093D706F9011D
:104BE00071836083A0CF8D919C91119712966C90E8
:104BF000129713967C901397A815B90559F56C0177
:104C000042E0C40ED11CCA14DB0420F1AC014A19E5
:104C10005B09DA011296159780F0628273825183E4
:104C20004083D9016D937C93E114F10471F0D701B5
:104C30001396FC93EE93129776CF22968C0F9D1FBE
:104C4000F90191838083F301EFCFF093DA06E093CB
:104C5000D90669CF4816590608F42C017D01D30105
:104C60009ACFCB010E9461247C01009749F0AE01EC
:104C7000B8010E944326C8010E94FD24870153CF3A
:104C800010E000E050CFFB01DC0102C001900D926A
:104C900041505040D8F70895FB01DC0101900D927E
:104CA0000020E1F7089510E0C2E6D0E004C0FE0164
:104CB0000E94B1222196C336D107C9F7F894FFCFDD
:104CC00000010203040500010203040506070809A8
:104CD0001001DC05DC05EA06B0710B0001020007DB
:104CE00008090603050000DB0680000000803F0085
:104CF0000020410000C84200007A4400401C4600E9
:104D000050C347002474498096184B20BCBE4C28E1
:104D10006B6E4EF9021550B743BA51A5D46853E7EC
:104D200084115521E6B556A95F6358CA1B0E5ABCBB
:104D3000A2B15B000000007D06DD050A06CA063B45
:104D40000619062D06666E692B00666E69006E6197
:104D50006E00666E692D00296C6C756E2800296CDA
:104D6000696E28007365744D6F646520756E6B6E97
:104D70006F776E206D6F64653A2025307830320A87
:104D800000656570726F6D3A2065726173696E6758
:104D9000204D41524B45522061742061646472651C
:104DA00073733A2025640A00656570726F6D3A204E
:104DB00063616E206E6F7420777269746520646120
:104DC000746120706173742074686520656E64205E
:104DD0006F662074686520454550524F4D3B2062F8
:104DE0006567696E6E696E672061742061646472C4
:104DF00065737320302E0A00656570726F6D3A20FE
:104E00007365742073746172742061646472657375
:104E10007320746F3A2025640A00656570726F6DA7
:104E20003A2077726974696E67204D41524B455242
:104E300020746F20616464726573733A2025640A7C
:104E400000656570726F6D3A2077726974696E677C
:104E500020646174612066726F6D206164647265A4
:104E600073733A20256420756E74696C2025640A7A
:104E700000444956004F4E45004D554C5400426584
:104E800067696E206F6620536574757028290A0063
:104E9000656570726F6D3A2073697A65206F662060
:104EA000656570726F6D3A2025640A0065657072E1
:104EB0006F6D3A20696E697420666F756E64207339
:104EC00074617274206164647265737320666F72BA
:104ED0002072656164696E673A2025640A00656521
:104EE00070726F6D3A20696E6974206F6620656517
:104EF00070726F6D206F626A6563742066696E6997
:104F000073686564206174207374617274206F66C5
:104F100020656570726F6D2E0A00466F756E642095
:104F2000656D70747920454550524F4D2E00457285
:104F3000726F722077726974696E67206461746140
:104F400020746F20656570726F6D2E2044617461EE
:104F500020646F6573206E6F742066697420696EBB
:104F600020656570726F6D2E0A00656570726F6DD9
:104F700020726561642020616464726573732061CE
:104F8000667465722077726974696E673A20256469
:104F90000A00656570726F6D2077726974652061B3
:104FA00064647265737320616674657220777269D8
:104FB00074696E673A2025640A004D6F6465202885
:104FC0006174207365747570293A2025730A005343
:104FD000657474696E67206D6F646520746F3A2024
:104FE00025730A00417474616368696E6720696E95
:104FF00074657272757074203020746F2070696EE1
:105000002044256420666F722065787465726E6135
:105010006C20636C6F636B2E0A004174746163686B
:10502000696E6720696E74657272757074203120C4
:10503000746F2070696E2044256420666F7220654D
:10504000787465726E616C2072657365742E0A00E7
:10505000467261633A2025640A00456E64206F66DB
:1050600020536574757028290A000A656570726F8F
:105070006D3A2077726974696E672073657474691C
:105080006E67732028256420627974657329207403
:105090006F20454550524F4D2E00656570726F6D03
:1050A0003A206572726F722077726974696E672038
:1050B0006461746120746F20656570726F6D2E205D
:1050C0004461746120646F6573206E6F742066693B
:1050D0007420696E20656570726F6D2E0A006565BB
:1050E00070726F6D3A207265616420206164647231
:1050F0006573732061667465722077726974696E76
:10510000673A2025640A00656570726F6D3A2077F2
:10511000726974652061646472657373206166747A
:1051200065722077726974696E673A2025640A0097
:10513000656570726F6D3A20646576696365206D90
:0A5140006F64653A2025730A000031
:00000001FF
