:100000000C9463000C94A7170C9480170C948B002D
:100010000C948B000C948B000C948B000C948B0034
:100020000C948B000C948B000C948B000C948B0024
:100030000C948B000C9426180C948B000C948B0061
:100040000C9436170C948B000C94F4170C94CE1768
:100050000C948B000C948B000C948B000C948B00F4
:100060000C948B000C948B000000000024002700EF
:100070002A0000000000250028002B0000000000DE
:1000800023002600290004040404040404040202DA
:100090000202020203030303030301020408102007
:1000A0004080010204081020010204081020000012
:1000B0000008000201000003040700000000000027
:1000C00000009618871F11241FBECFEFD8E0DEBFB7
:1000D000CDBF15E0A0E0B1E0E2E0FCE402C0059095
:1000E0000D92A838B107D9F726E0A8E8B5E001C01D
:1000F0001D92AB3CB207E1F710E0C2E6D0E004C0CD
:100100002197FE010E945222C136D107C9F70E94F1
:10011000D5190C94F4250C9400002F923F924F9225
:100120005F926F927F928F929F92AF92BF92CF9287
:10013000DF92EF92FF920F931F93CF93DF9300D044
:1001400000D0CDB7DEB71C014B015A0139012701A0
:100150009601227033273A83298333E0C322DD24BA
:100160005C834B83CD2851F46801C41AD50A8B8176
:100170009C818C0D9D1D84159505B0F07301E00EDA
:10018000F11E4B815C81E614F704F1F06A01FFEF88
:10019000CF1ADF0A2FEF3FEFB401F70182917F0101
:1001A000F1010995A601EFCFEB80FC808FEFE81AF3
:1001B000F80A2FEF3FEF4B815C81B40180E2F1013F
:1001C0000995FC82EB82D3CF8B819C81800F911F9C
:1001D00029813A81232BA1F09C012A193B0924157E
:1001E000350570F4FC013196FA83E9832FEF3FEF78
:1001F000AC01B40180E2F101099589819A81ECCFCB
:100200000F900F900F900F90DF91CF911F910F9152
:10021000FF90EF90DF90CF90BF90AF909F908F9026
:100220007F906F905F904F903F902F9008952F9206
:100230003F924F925F926F927F928F929F92AF9276
:10024000BF92CF92DF92EF92FF920F931F93CF93C3
:10025000DF93CDB7DEB7AF970FB6F894DEBF0FBE12
:10026000CDBF9AA789A77CA76BA75EA74DA7CAA2F7
:10027000DBA2ECA25F2C402E1DA3322E232EA8A6BB
:1002800089A22A968EAC9FAC2A9796014E2D5F2D9F
:10029000602F712F832D922DA0E00E94462209F03D
:1002A0004CC092FC42C080E38983E89484F86624C1
:1002B0006394712C81FC92C0C401817099272896A7
:1002C0002EAD3FAD2897232BA9F0009709F486C0E7
:1002D00038A5311105C094012C703327232B51F020
:1002E00028964EAD5FAD28974150510928965FAFD3
:1002F0004EAF2897E1E0F0E0EC0FFD1FE60DF71D93
:10030000830120E3009709F46AC028964EAD5FADE3
:1003100028970417150708F062C00032110509F488
:100320005EC00F5F1F4F2193EDCF29A1203111F443
:10033000E89484F8712C612CBDCF81E485FE81E6C0
:10034000AE014F5F5F4F5FA34EA3712C612C8A50AB
:100350008FA7A9A0B12CC12CD12CE12CF12C00E04D
:1003600010E02AA13BA14CA1552D642D7DA1832D28
:10037000922D0E94A5212A3074F5205D8FEF681A16
:10038000780AEEA1FFA12193FFA3EEA3A9A0B12CAF
:10039000C12CD12CE12CF12C00E010E02AA13BA1D2
:1003A0004CA1552D642D7DA1832D922D0E94A72156
:1003B0002AA33BA34CA3552E462E7DA3382E292ECF
:1003C000A0E00E94462209F475CFF0E26F16710496
:1003D00009F0BFCF6FCF5FA5250FD0CF8301E1E03C
:1003E000F0E0EC0FFD1FE00FF11F80E326962EAD2D
:1003F0003FAD26970217130738F40032110520F499
:100400000F5F1F4F8193F2CF39A1383029F4601666
:10041000710610F4E89484F8C40180719071892BFE
:1004200009F447C092FC25C00115110511F126966B
:100430004EAD5FAD26974017510739F028968EAD27
:100440009FAD289708171907A1F46016710608F0E8
:1004500099C0C801019759F0E9A1E03109F06EC0D7
:10046000025011096816790640F08C0106C010E0B0
:1004700000E0F9A1F03109F062C085FC54C00032FF
:10048000110540F5E1E0F0E0EC0FFD1FE00FF11F7A
:1004900088E780830F5F1F4F00321105D8F4E1E039
:1004A000F0E0EC0FFD1FE00FF11F80E380830F5F92
:1004B0001F4F0032110570F438A5332309F44EC0E4
:1004C000E1E0F0E0EC0FFD1FE00FF11F8DE2808313
:1004D0000F5F1F4F64012896EEACFFAC28979E017A
:1004E0002F5F3F4F4DA55EA56BA57CA589A59AA55D
:1004F0000E948D00AF960FB6F894DEBF0FBECDBF41
:10050000DF91CF911F910F91FF90EF90DF90CF90EF
:10051000BF90AF909F908F907F906F905F904F9023
:100520003F902F90089500321105A0F6E1E0F0E031
:10053000EC0FFD1FE00FF11F88E5ABCF8C0129A167
:10054000223009F0A9CF0032110520F6E1E0F0E0F9
:10055000EC0FFD1FE00FF11F82E69BCF82FE08C06B
:10056000E1E0F0E0EC0FFD1FE00FF11F8BE2AFCFF9
:1005700083FEB0CFE1E0F0E0EC0FFD1FE00FF11FD4
:1005800080E2A5CF49A14031D1F677CF2F923F929B
:100590004F925F926F927F928F929F92AF92BF9293
:1005A000CF92DF92EF92FF920F931F93CF93DF933F
:1005B000CDB7DEB76E970FB6F894DEBF0FBECDBFD6
:1005C00009871A872B873C874D875E876F87788BD3
:1005D00023964EAC5FAC23978C8A9D8AAE8ABF8AE5
:1005E000C88ED98EEA8EFB8E8C8F29AD3AAD232B27
:1005F00009F49EC00A8B1B8B6B847C844A011B010F
:10060000EDADFEADF3FF3EC0E4FD3CC0202F312F29
:10061000A301B401C101A0E00E94462209F00CF43C
:100620009AC02AE0A22EB12CC12CD12CE12CF12CA5
:1006300000E010E02A893B89A301B401C1010E94B6
:100640007421A0E00E94462299F429AD3AAD2150D0
:1006500031093AAF29AF2A893B89A301B401C1010D
:100660000E9476212A8B3B8B3A014B011C01D9CF8A
:100670002A893B89A301B401C101A0E00E9446225E
:1006800009F469C021968EAD9FAD2197840D951D0B
:100690009E8F8D8F90E24916510408F096C0E9AD07
:1006A000FAAD3197FAAFE9AFFFEF4F1A5F0A9AE060
:1006B000A92EB12CC12CD12CE12CF12C00E010E0A2
:1006C0002A893B89A301B401C1010E947421205DE4
:1006D000ED8DFE8D2193FE8FED8F2A893B89A3013D
:1006E000B401C1010E9476212A8B3B8B3A014B0158
:1006F0001C01A0E00E94462269F62196EEADFFADF6
:100700002197E40DF51D80E320E24216510409F41F
:100710005CC03FEF431A530A29AD3AAD21153105AC
:1007200009F4DAC08193215031093AAF29AFECCFF7
:100730003DAD34FF10C080E24816510408F045C0BA
:100740002196EEADFFAD2197E40DF51D8EE280837D
:10075000F20131962F0121966EAC7FAC2197640C8B
:10076000751CF0E24F16510480F52FEF421A520A21
:100770008AE0A82EB12CC12CD12CE12CF12C00E068
:1007800010E02C893D894E895F89688D798D8A8D2D
:100790009B8D0E947421205DF30121933F012C89E0
:1007A0003D894E895F89688D798D8A8D9B8D0E94E8
:1007B00076212C8B3D8B4E8B5F8B688F798F8A8F48
:1007C0009B8FA0E00E94462261F6FDADF1FD29C09D
:1007D000F0FF27C02BAD3CAD232B19F13C8D31111F
:1007E00006C08DAD9EAD8C709927892B29F08BADFD
:1007F0009CAD01979CAF8BAF2196EEADFFAD2197DD
:10080000E40DF51D80E32BAD3CAD4216530648F4D4
:1008100030E243165104C0F49FEF491A590A8193FC
:10082000F2CFE0E24E16510478F4FC8DFF23B1F1D3
:100830002196EEADFFAD2197E40DF51D8DE280838D
:1008400092012F5F3F4F2901CDACDEACEBACFCAC8D
:10085000820121962EAD3FAD21974FA958AD6DA9CC
:100860007EA98BA99CA90E948D006E960FB6F89464
:10087000DEBF0FBECDBFDF91CF911F910F91FF90D3
:10088000EF90DF90CF90BF90AF909F908F907F9030
:100890006F905F904F903F902F9008953DAD32FF45
:1008A0000CC02196EEADFFAD2197E40DF51D8BE256
:1008B0008083C20101962C01C7CF9DAD93FFC4CFA9
:1008C0002196EEADFFAD2197E40DF51D80E280830A
:1008D000F20131962F01B8CF8EE280833CCF833076
:1008E00081F028F4813099F08230A9F008958730A2
:1008F000A9F08830C9F08430B1F4809180008F7DF8
:1009000003C0809180008F7780938000089584B524
:100910008F7784BD089584B58F7DFBCF8091B00023
:100920008F778093B00008958091B0008F7DF9CFCC
:10093000CF93DF93282F30E0F901E255FF4F8491E8
:10094000F901E656FF4FD491F901EA57FF4FC491E0
:10095000CC23A1F081110E946F04EC2FF0E0EE0F88
:10096000FF1FE458FF4FA591B491EC91ED2381E076
:1009700090E009F480E0DF91CF91089580E090E06D
:10098000FACF1F93CF93DF93282F30E0F901E25580
:10099000FF4F8491F901E656FF4FD491F901EA57D0
:1009A000FF4FC491CC23A9F0162F81110E946F0430
:1009B000EC2FF0E0EE0FFF1FEE58FF4FA591B49122
:1009C0008FB7F894EC91111108C0D095DE23DC9319
:1009D0008FBFDF91CF911F910895DE2BF8CFCF937A
:1009E000DF9390E0FC01E656FF4F24918A579F4F1A
:1009F000FC0184918823C9F090E0880F991FFC01C5
:100A0000E859FF4FA591B491FC01EE58FF4FC591F5
:100A1000D49161110DC09FB7F8948C9120958223D9
:100A20008C938881282328839FBFDF91CF910895DD
:100A3000623051F49FB7F8943C91822F80958323C4
:100A40008C93E8812E2BEFCF8FB7F894EC912E2B5F
:100A50002C938FBFEACF8E50806480937C0080916E
:100A60007A00806480937A0080917A0086FDFCCFC2
:100A7000809178009091790008953FB7F894809123
:100A8000A6059091A705A091A805B091A90526B546
:100A9000A89B05C02F3F19F00196A11DB11D3FBFB6
:100AA000BA2FA92F982F8827BC01CD01620F711D85
:100AB000811D911D42E0660F771F881F991F4A957F
:100AC000D1F708958F929F92AF92BF92CF92DF920B
:100AD000EF92FF924B015C010E943D056B017C018E
:100AE0000E943D056C197D098E099F09683E73407F
:100AF00081059105A8F321E0821A9108A108B108A7
:100B000088EEC80E83E0D81EE11CF11C811491040C
:100B1000A104B10429F7FF90EF90DF90CF90BF9030
:100B2000AF909F908F900895CF93DF93C82FD0E020
:100B3000C05AD94F61E088810E94C10462E370E02D
:100B400080E090E00E94620560E088810E94C1041C
:100B500069E170E080E090E0DF91CF910C94620554
:100B60002FB7F8946091A2057091A3058091A40518
:100B70009091A5052FBF0895809193058F5F809375
:100B8000930560911C0185E00E94C10480911C01C5
:100B900091E0892780931C01209193058091150194
:100BA00090911601880F991F2817190621F01CF043
:100BB00080E18093810008950895AF92BF92CF9213
:100BC000DF92EF92FF920F931F93CF93DF936C010D
:100BD0007B018B01040F151FEB015E01AE18BF08EE
:100BE000C017D10759F06991D601ED91FC910190A0
:100BF000F081E02DC6010995892B79F7C501DF91B8
:100C0000CF911F910F91FF90EF90DF90CF90BF9009
:100C1000AF900895FC01538D448D252F30E0842F33
:100C200090E0821B930B541710F0CF960895019714
:100C30000895FC01918D828D981761F0A28DAE0F01
:100C4000BF2FB11D5D968C91928D9F5F9F73928F88
:100C500090E008958FEF9FEF0895FC01918D828DB4
:100C6000981731F0828DE80FF11D858D90E0089581
:100C70008FEF9FEF0895FC01918D228D892F90E0D9
:100C8000805C9F4F821B91098F739927089589EB90
:100C900095E00E943B0621E0892B09F420E0822F99
:100CA000089580E090E0892B29F00E944706811189
:100CB0000C9400000895FC01A48DA80FB92FB11D5C
:100CC000A35ABF4F2C91848D90E001968F73992782
:100CD000848FA689B7892C93A089B1898C91837060
:100CE00080648C93938D848D981306C00288F38959
:100CF000E02D80818F7D80830895EF92FF920F9386
:100D00001F93CF93DF93EC0181E0888F9B8D8C8DB7
:100D100098131AC0E889F989808185FF15C09FB7AB
:100D2000F894EE89FF896083E889F989808183706E
:100D3000806480839FBF81E090E0DF91CF911F911D
:100D40000F91FF90EF900895F62E0B8D10E00F5F3E
:100D50001F4F0F731127E02E8C8D8E110CC00FB614
:100D600007FCFACFE889F989808185FFF5CFCE01AC
:100D70000E945B06F1CFEB8DEC0FFD2FF11DE35AC6
:100D8000FF4FF0829FB7F8940B8FEA89FB8980812F
:100D90008062CFCFCF93DF93EC01888D8823B9F0A9
:100DA000AA89BB89E889F9898C9185FD03C0808176
:100DB00086FD0DC00FB607FCF7CF8C9185FFF2CFF3
:100DC000808185FFEDCFCE010E945B06E9CFDF91E8
:100DD000CF910895089508952F923F924F925F9278
:100DE0006F927F928F929F92AF92BF92CF92DF923B
:100DF000EF92FF920F931F93CF93DF93CDB7DEB7A0
:100E000060970FB6F894DEBF0FBECDBF988B8F876B
:100E10006A017B013E872D87DB01CA018827B7FD68
:100E200083959927AA27BB27282F2170EF85F8895A
:100E3000208B892B21F0F7FAF094F7F8F094C70192
:100E4000B6010E94372329833A834B835C836D83E9
:100E50007E838F839887AF85B8892C9311963C93B6
:100E6000119712964C93129713965C9313971496BE
:100E70006C93149715967C9315978F8116968C9387
:100E80001697988517969C93ED85FE85EE0FFF1FAC
:100E9000EE0FFF1FE75DFE4F80819181A281B3813C
:100EA00089879A87AB87BC878F8198850E94A92301
:100EB0009B01AC01C701B6010E94582229853A85E1
:100EC0004B855C850E94FF1F2B013C010E9437234C
:100ED000822E232E342E952E5B018C01AF85B8898E
:100EE00018962C93189719963C9319971A964C9329
:100EF0001A971B965C931B971C966C931C971D96D8
:100F0000BC921D971E968C931E971F961C930E9451
:100F1000A9239B01AC01C301B2010E9458222B01FD
:100F20003C0120E030E040E05FE30E94FD23181622
:100F30000CF0D0C0282D322D432D592DB501C801FC
:100F4000A1E00E943A2239014A015B018C010E9412
:100F5000A9239B01AC0169857A858B859C850E94BC
:100F6000991F18160CF087C0EF85F8896086718686
:100F700082869386A486B58606871787ED85FE85CB
:100F8000EF2B09F05DC0AF85B8891C9111966C906C
:100F9000119712967C90129713968C901397149633
:100FA0009C9014971596AC9015971696BC90169732
:100FB00017960C91212F362D472D582D692D7A2DFE
:100FC0008B2D902F0E94A9239B01AC01C701B60174
:100FD0000E9458226B017C0120E030E040E05FE39A
:100FE0000E94991F87FF0AC020E030E040E05FE3E5
:100FF000C701B6010E94FD23181614F5212F217098
:1010000030E040E050E060E070E080E090E0A0E0A0
:101010000E944622A9F0212F362D472D582D692DEB
:101020007A2D8B2D902FA1E00E943A22EF85F8892E
:1010300020833183428353836483758386839783BC
:101040008F85988960960FB6F894DEBF0FBECDBF2E
:10105000DF91CF911F910F91FF90EF90DF90CF9094
:10106000BF90AF909F908F907F906F905F904F90C8
:101070003F902F900895AF85B88918961C921897C5
:1010800019961C9219971A961C921A971B961C92E5
:101090001B971C961C921C971D961C921D971E96C2
:1010A0001C921E971F961C9229813A814B815C816C
:1010B0006D817E818F819885A1E00E943A22EF8523
:1010C000F8892083318342835383648375838683C5
:1010D000978354CF20E030E040E05FE3C301B201EA
:1010E0000E94991F81114ACF282D322D432D592D51
:1010F000B501C801A0E00E94462261F0217030E0F5
:1011000040E050E060E070E080E090E00E94462225
:1011100009F434CF282D322D432D592DB501C801A6
:10112000A1E00E943A22AF85B88918962C931897AF
:1011300019963C9319971A964C931A971B965C93A1
:101140001B971C966C931C971D967C931D971E965F
:101150008C931E971F969C9311CF2F923F924F9284
:101160005F926F927F928F929F92AF92BF92CF9237
:10117000DF92EF92FF920F931F93CF93DF93CDB740
:10118000DEB7E6970FB6F894DEBF0FBECDBF9CA7C3
:101190008BA76DA77EA758AB4FA70A8B1B8B2C8BF9
:1011A0003D8BFF8EEE8EDAAAC9AAB9A6A8A68BAA95
:1011B0009CAA2C962FAD2C972DAB2D963FAD2D973D
:1011C0003EAB8A899B89AC89BD898827B7FD839509
:1011D0009927AA27BB278E8B9F8BA88FB98F0E8943
:1011E0001F890115110549F02A893B894C895D89C0
:1011F00050582A8B3B8B4C8B5D8B20E030E0A90153
:101200006A897B898C899D890E94991F312C212CA8
:10121000882309F40FC18A899B89AC89BD89E7E1DC
:10122000B695A79597958795EA95D1F799278F5702
:101230009109BC01990F880B990B0E94A01F2BE903
:1012400030E24AE95EE30E94FF1F24E431E544E313
:101250005EE30E9459226B017C016A897B898C893B
:101260009D898F77992780689F6320E030E040EC6C
:101270005FE30E9458222BE33DE344E95EE30E94D2
:10128000FF1F9B01AC01C701B6010E9459220E94B9
:1012900073236A8F7B8F8C8F9D8F2A8C3B8CB1013F
:1012A000032C000C880B990B0E94A01F6B017C0182
:1012B00028E73AE944E550E40E94FF1F20E030E0CF
:1012C00040E05FE30E9459220E9473234B012EE805
:1012D0003DE543E150E4C701B6010E94FF1F6B01E9
:1012E0007C01092C000CAA08BB08C501B4010E94AE
:1012F000A01F28E132E741E35FE30E94FF1F9B014B
:10130000AC01C701B6010E9458222B013C01AC017F
:101310009B010E94FF1F6B017C01A3019201C3018D
:10132000B2010E94592268A379A38AA39BA320E05B
:1013300030E040E651E4C701B6010E94C52220E03A
:1013400030E040E251E40E9459229B01AC01C70108
:10135000B6010E94C52220E030E040EC50E40E943B
:1013600059229B01AC01C701B6010E94C5226B0145
:101370007C01A301920160E070E080E090E40E94B3
:1013800058229B01AC01C701B6010E9459229B0162
:10139000AC0168A179A18AA19BA10E94C52220E08D
:1013A00030E040E85FE30E9459223FE7830E911C42
:1013B000A11CB11CA5019401F7E1220F331F441FAA
:1013C000551FFA95D1F70E94FF1F2B013C01AC017C
:1013D0009B016A897B898C899D890E94991F87FF5F
:1013E0000DC041E0241A310820E030E040E251E431
:1013F000C301B2010E94C5222B013C01C1014196EB
:1014000051E05AA78332910508F01AA6839790F409
:10141000C10137FE04C08827992782199309880FD4
:10142000991F880F991FFC01E75DFE4F4080518096
:101430006280738088A599A593FF8DC1AE8DBF8D05
:101440009D01AB2B11F421E030E08E8D9F8D019733
:10145000BCEF2B16BFEF3B060CF467C02216330619
:101460000CF063C082199309AA24A3949F8F8E8FD6
:1014700097FF02C01F8E1E8EE8A5F9A5F460F9A79C
:10148000E8A737FE1AA6A110C1C12114310409F43E
:1014900075C18E898170898BFAA5FF2309F463C118
:1014A000A30192016A897B898C899D890E94FF1F13
:1014B0001AA50E9437232E8B3A8F48A35CA36DA3F5
:1014C0007EA3882E9FA30E94A9232AA5A3012223DD
:1014D00071F192010E94C5229B01AC016A897B894E
:1014E0008C899D890E9458226B017C01EE8DFF8DB5
:1014F000EE0FFF1FEE0FFF1FE75DFE4F8081918112
:10150000A281B3818A8B9B8BAC8BBD8B112399F00D
:10151000A3019201BC01CD010E94FF1F9B01AC0100
:10152000C701B6010E94FF1F3DC0A12C9FCF9201B1
:101530000E94FF1FD1CFD301C20157E1B695A795F5
:10154000979587955A95D1F799279C012F5731097F
:1015500037FF03C03195219531098A899B89AC8970
:10156000BD8947E1B695A795979587954A95D1F797
:1015700099278F57910997FF03C0919581959109FC
:10158000821793070CF07DC02A893B894C895D89BD
:10159000C301B2010E94C5229B01AC01C701B60183
:1015A0000E94C5222B013C01AE8DBF8DAB2B09F0F3
:1015B00071C011E020E030E040E05FE30E94FD23D5
:1015C00087FD10E0212F30E040E050E060E070E067
:1015D00080E090E0AE88BA8CC8A0DCA0EDA0FEA0B0
:1015E000082D1FA10E9431222E8B3A8F48A35CA3A5
:1015F0006DA37EA3882E9FA320E030E040E05FE350
:10160000C301B2010E94991F811103C0BE89BE7F30
:10161000BE8B10E0B12CC12C912CD12CE12CF12CE3
:1016200000E02E893A8D48A15CA16DA17EA1882D94
:101630009FA1A9E00E944622A9F0A4F03FEF231A3F
:10164000330A10E0B12CC12C912CD12CE12CF12CBF
:1016500000E041E04E8B1A8E18A21CA21DA21EA211
:10166000812C1FA2C1018D599F4F512C25E0622E64
:10167000712C873C910508F027C184E0682E712CFD
:1016800023C1A30192016A897B898C899D890E946B
:10169000C52244CF0E94372359016A017B01082FDC
:1016A000992E0E94A9239B01AC01C301B2010E94A3
:1016B00058222B013C0111E020E030E040E05FE3E4
:1016C0000E94FD2387FD10E0212F30E040E050E034
:1016D00060E070E080E090E0192D0E943122122F2E
:1016E000B32EC42E952ED62EE72EF82E092F20E0ED
:1016F00030E040E05FE3C301B2010E94991F811115
:1017000001C01E7F212F3B2D4C2D592D6D2D7E2D7F
:101710008F2D902F0E94A9239B01AC016A897B89A0
:101720008C899D890E94991F18160CF47ACF2E89F6
:101730003A8D48A15CA16DA17EA1882D9FA1A1E059
:101740000E943A222E8B3A8F48A35CA36DA37EA3FE
:10175000882E9FA35ECF37FC98CE2114310471F000
:101760008E898170898BA30192016A897B898C891A
:101770009D890E94C52210E01AA69BCEA12C012BA8
:1017800009F046C02E8D3F8D4A895B896C897D8921
:10179000CE0101960E94EC06F981FE8B2A812A8FE8
:1017A0003B8138A34C814CA35D815DA38E818EA3C8
:1017B0008F8098859FA31985BA84CB849C84DD840F
:1017C000EE84FF8408892DCF2E8D3F8D4A895B8959
:1017D0006C897D89CE0101960E94EC06A981AE8BB1
:1017E000BA81BA8FEB81E8A3FC81FCA32D812DA3E4
:1017F0003E813EA38F8048854FA31985BA84CB8450
:101800009C84DD84EE84FF84088927C0012BE1F2EB
:101810004A895B896C897D8970582E8D3F8DCE01F8
:1018200001960E94EC06E981EE8BFA81FA8F2B81FA
:1018300028A33C813CA34D814DA35E815EA38F8094
:1018400088858FA31985BA84CB849C84DD84EE843B
:10185000FF840889AA2009F4E4CE68A479A4662448
:1018600098E07922A8A5B9A555245394B3FF2CC0BC
:10187000BFEF2B163B0624F13101EFEF6E1A7E0A03
:101880002E893A8D48A15CA16DA17EA1882D9FA1D2
:101890000E94A923F301EE0FFF1FEE0FFF1FE75D6C
:1018A000FE4F20813181428153810E94991F811115
:1018B00007C02E8D3F8D215031093F8F2E8F130190
:1018C00055245394712C612C88A599A58270992771
:1018D0009B8B8A8B98A591FF03C06114710441F41E
:1018E000A9A9BAA9CD01861997096A167B0610F035
:1018F00090E080E0BE89B983EA8DEA83F8A1FB839A
:101900002CA12C833DA13D834EA14E838F825FA1EC
:1019100058871987BA86CB869C86DD86EE86FF8639
:10192000088BAEA9AF93BDA9BF93ECA9EF93FBA918
:10193000FF9329A52F9338A53F939F938F934F8DA6
:101940004F935E8D5F9388A98F939FA59F93AEA5BC
:10195000AF93BDA5BF93ECA5EF93FBA5FF93898043
:101960009A80AB80BC80CD80DE80EF80F8840985D2
:101970001A852B853C854D855E856F85788989899B
:101980000E94C6020FB6F894DEBF0FBECDBF511045
:1019900067C02C013FEF431A530A48A5E5E445FF11
:1019A000E5E62FEF3FEFAC016DA57EA58E2FEBA5F1
:1019B000FCA50995A32CAA1CAA24AA1C6101E32C4E
:1019C000EE0CEE08FE2C0E2D1E2DFE2DEE2D91019F
:1019D0004E2D5E2D6E2D7E2D8E2D9E2DA0E00E9413
:1019E00046223CF40E94042269017A018B01F82FFF
:1019F000E92F1F9285E08F9321E0621A71087F9290
:101A00006F921F921F929AE0892E2F2F3E2FA201D4
:101A10006DA57EA58BA59CA50E9417010F900F9028
:101A20000F900F900F900F904A895B89452BC1F062
:101A30009C01AFA5B8A92A1B3B0BE9A9FAA92E174F
:101A40003F0770F48C010F5F1F4F2FEF3FEFAC018A
:101A50006DA57EA580E2EBA5FCA50995C801E8CFA0
:101A6000E6960FB6F894DEBF0FBECDBFDF91CF91E3
:101A70001F910F91FF90EF90DF90CF90BF90AF90AC
:101A80009F908F907F906F905F904F903F902F909E
:101A900008952F923F924F925F926F927F928F9212
:101AA0009F92AF92BF92CF92DF92EF92FF920F93ED
:101AB0001F93CF93DF93CDB7DEB7E7970FB6F894B8
:101AC000DEBF0FBECDBF1C016AAB7BAB4CAB5DABC9
:101AD00028013901CEAADFAA6501B82CA901980115
:101AE000C301B8010E94991F882331F1EEA8FFA815
:101AF00003E010E02CE831E04CA95DA96AA97BA9BC
:101B0000C1010E948D00E7960FB6F894DEBF0FBEAC
:101B1000CDBFDF91CF911F910F91FF90EF90DF909C
:101B2000CF90BF90AF909F908F907F906F905F907D
:101B30004F903F902F9008952FEF3FEF4FE75FEFCB
:101B4000C301B8010E94991F87FF07C0EEA8FFA834
:101B500004E010E020E931E0CFCF2FEF3FEF4FE777
:101B60005FE7C301B8010E94FD2318166CF404E07E
:101B700010E023E831E0C2FC04C003E010E028E8F4
:101B800031E0EEA8FFA8B8CF9E012F5F3F4F49017B
:101B9000B11025C028E23BE64EE65EE4C301B80181
:101BA0000E94FD23181654F028E23BE64EE65EEC58
:101BB000C301B8010E94991F87FF11C01F921F9295
:101BC0005601CEA8DFA8930182014CA95DA96AA99C
:101BD0007BA9C1010E94AD080F900F9094CFD2FC59
:101BE00003C086E0E82EF12CF40110E000E080E371
:101BF00032E1E316F10448F00F5F1F4F819391E04B
:101C0000E91AF1080032110599F7BB2019F01F936A
:101C10000F93D6CF9701B301A201CE0181960E9406
:101C2000EC061F930F939F928F92DF92CF922FA972
:101C30002F933EA93F93FF92EF928DA98F939CA97A
:101C40009F932BA92F933AA93F933F922F9289A05C
:101C50009AA0ABA0BCA0CDA0DEA0EFA0F8A409A5DF
:101C60001AA52BA53CA54DA55EA56FA578A989A9A8
:101C70000E94C6020FB6F894DEBF0FBECDBF43CFA1
:101C8000882329F0682F89EB95E00C947D06089550
:101C90008F929F92AF92BF92CF92DF92EF92FF927C
:101CA0001F93CF93DF9381E10E942B05EC018EE01F
:101CB0000E942B058C179D0724F581E10E942B05BE
:101CC00024E630E0DC010E946D2120E034E040E0B9
:101CD00050E00E94D320E9012B303105A4F460E0EC
:101CE00086E00E94C10410E0812FDF91CF911F9107
:101CF000FF90EF90DF90CF90BF90AF909F908F902C
:101D000008958EE0DBCF2A35310534F061E086E0BE
:101D10000E94C10411E0E8CFE0919705F091980589
:101D2000408151816281738127E030E0C12CD12C48
:101D30007601DB01CA011AE0B695A79597958795BC
:101D40001A95D1F74A015B011EE1B694A7949794C6
:101D500087941A95D1F788259925AA25BB2584272C
:101D60009527A627B7274A015B018824B7FC8394EF
:101D70009924AA24BB2488259925AA25BB258170EE
:101D80009927AA27BB2776956795579547954C01C4
:101D90005D01BB248694B794AA24992488244829F9
:101DA00059296A297B29CC0CDD1CEE1CFF1C4A0139
:101DB0005B0111E081229924AA24BB24C828D928D8
:101DC000EA28FB282150310909F0B3CFC086D1861B
:101DD000E286F38640835183628373838483958391
:101DE000A683B783C701B6012EE430E040E050E09F
:101DF0000E943421655F7F4F11E06C177D070CF066
:101E000010E0612F86E00E94C1046ECFEF92FF9236
:101E10000F931F93CF93DF938C01EB0180E10E941E
:101E20002B057C018FE00E942B058E159F05C4F4C5
:101E300080E10E942B059801DC010E94652120E0D1
:101E400034E040E050E00E94D320C20FD31F8881CD
:101E500090E0DF91CF911F910F91FF90EF90089547
:101E60008FE0E7CFCF92DF92EF92FF920F931F9315
:101E7000CF93DF93EB017B0124E0E20EF11C8B0199
:101E80006C01C61AD70AC601800F911F0E94BD209F
:101E9000F80181938F01EE15FF05A9F7CE01DF91BF
:101EA000CF911F910F91FF90EF90DF90CF90089509
:101EB0009F92AF92BF92CF92DF92EF92FF920F93D9
:101EC0001F93CF93DF935C017B018B01D0E0C0E0D7
:101ED000F80191908F016501CC0EDD1EC6010E94B4
:101EE000BD20981621F0692DC6010E94C5202196BB
:101EF000C430D10569F7C701DF91CF911F910F91D0
:101F0000FF90EF90DF90CF90BF90AF909F9008959B
:101F10002F923F924F925F926F927F928F929F92F9
:101F2000AF92BF92CF92DF92EF92FF920F931F93E7
:101F3000CF93DF93CDB7DEB72F970FB6F894DEBF00
:101F40000FBECDBFFE01B496619071908F01312C10
:101F5000212CD3018C91882309F4F1C3BFEF6B1AB4
:101F60007B0A7101EFEFEE1AFE0A853209F0C6C056
:101F7000B12CA12C07C08D3271F1803361F46894CB
:101F8000A0F83F01F30181918B3241F1A4F7803237
:101F900041F1833249F190ED980F9A3040F51B8260
:101FA0001A82F301819190ED980F9A3098F54AE0EA
:101FB0002A813B81429F7001439FF00C112490E3E2
:101FC000E91AF108D701A80FB11D87FDBA95BB83A7
:101FD000AA833F01E6CF6894A1F8D3CF6894A2F812
:101FE000D0CF6894A3F8CDCF6894A4F8CACF8A3232
:101FF000D9F5C8010296D801ED90FC90F7FE31C0EA
:102000006894A1F8222733272E193F093B832A839E
:102010008C013F01D3018C918E3209F048C0C3017D
:1020200001966894B2F811962C9130ED320F3A3047
:10203000F0F4512C412CFC01219130ED320F3A305B
:1020400098F5BAE0B49D7001B59DF00C112430E311
:10205000E31AF1082701420E511C27FD5A94CF01C3
:10206000EACFFB82EA82D4CF1B821A82D3CF2A32F4
:10207000E9F4C8010296D8014D905C9057FE02C069
:10208000512C412CB2E06B0E711C8C0193012F5F1F
:102090003F4FF30180818C36A1F064F48836D9F18A
:1020A0008A3661F0930112C03C01F0CF3C01512C03
:1020B000412CECCF843711F08A37A1F76894B1F83E
:1020C00005C081818C3609F16894B0F8D9018D91F1
:1020D0003D01853609F4EAC10CF0A4C0873409F447
:1020E000E5C114F5853409F4E1C10CF0C1C18532B4
:1020F00009F4FBC27101BFEFEB1AFB0A2FEF3FEFB0
:10210000A101BE016F5F7F4FFBC2B3E0BB2A930109
:102110002E5F3F4FDBCF8181883619F06894A7F896
:10212000D5CFF0ECAF2AF3CF823609F434C33CF4B8
:102130006894A5F88835F1F6F0E18F2E0DC083364E
:1021400009F4CBC18436B1F6E894A4F8AAE08A2E4B
:10215000893621F0843611F0B3EFAB22B2FE02C013
:10216000E894A0F8950122273270893619F0843658
:1021700009F023C1232B09F49CC0F8013896F98794
:10218000E887D801CC901196DC9011971296EC90CC
:1021900012971396FC90139714969C90149715968B
:1021A000AC91F801F681FC83F801F781FA8796017A
:1021B000A701692D7A2F8C819F2F0FE30E94162291
:1021C000B22F092D1A2FFC81EA859601A701B801CB
:1021D0008F2F9E2FA0E00E9446223CF40E940422F2
:1021E00069017A018B01F82FE92FBF92AF922B8101
:1021F0002F933A813F935F924F92AB2E2F2F3E2F1A
:10220000A101BE016F5F7F4F80E49EE00E94170135
:102210001C010F900F900F900F900F900F9008855A
:10222000198597CE8F3609F4B3C29CF4873609F42A
:102230003DC10CF41DC1893609F486CF8E3609F0F4
:1022400059CFD801ED91FD918D01A6FE5DC220828E
:1022500080CE833709F490C12CF5803709F04ACF3E
:1022600065016894C0F8D4F8F8013296FB83EA83DC
:10227000D8010D911C910115110509F015C246E018
:10228000E42EF12C05E010E02CE931E0A101BE01C3
:102290006F5F7F4F80E49EE00E948D001C010A81E9
:1022A0001B8157CE853709F44FCF883709F444CFC7
:1022B00021CFB0FE48C0C801049699878887D8010D
:1022C000CD90DD90ED90FC90D701C6018827B7FD39
:1022D00083959927AA27BB278C879D87AE87BF87C1
:1022E000D701C601BB0F880B982FDC018C839D831F
:1022F000AE83BF83BC2D9D2CEA86FB860C81102FFC
:10230000F02FE02F9601A7016F2F702F802F9F2FA6
:10231000A0E00E9446224CF40E940422B22F932E89
:102320004A875B878B01F82FE92FBF92AF929B8181
:102330009F93AA81AF935F924F92AC84CB2ED92CFE
:10234000EA84FB845BCFF8013296F987E887D801ED
:10235000A6FE30C0EC910E2E000CFF0BBF2FBB1F52
:10236000BB27BB1FBC836F01EF2EEE0CEE08FE2CCB
:102370000E2D1E2D9E2CBE2D9F014E2D5E2D6E2DE1
:102380007E2D8E2D9E2DA0E00E9446223CF40E94C0
:10239000042269017A018B01982EB92FBF92AF9266
:1023A000EB81EF93FA81FF935F924F92AC80292DDE
:1023B0003B2F26CFED91FC91D1CF232B39F1980102
:1023C000285F3F4F39872887D801CC901196DC9041
:1023D00011971296EC9012971396FC9013971496FF
:1023E0009C91149715968C91159716962C9116978B
:1023F00017963C91BF92AF92BB81BF93EA81EF9356
:102400005F924F92A12C092F182FFACE9801B0FE9F
:1024100019C02C5F3F4F39872887D8010D911D9136
:102420002D913C91BF92AF92BB81BF93EA81EF9314
:102430005F924F92A12C6801790100E010E020E04A
:1024400030E0DECE2E5F3F4F39872887D8010D91CF
:102450001C91A6FC1127BF92AF92BB81BF93EA816A
:10246000EF935F924F92A12C6801E12CF12CE5CF04
:10247000863411F46894A5F898012C5F3F4F3D8392
:102480002C83D8010D911D912D913C91812CCA80F6
:10249000DB807201A101BE016F5F7F4F80E49EE08F
:1024A0000E94490D1C010C811D8153CD982F9F7DE9
:1024B000973419F46894B3F88D7F853411F46894D7
:1024C000A5F8F8013496FD83EC83D8010D911D9198
:1024D0002D913C9188248394DACF4501B2E08B2280
:1024E0009924A101CC24C394D12CA1FC1AC0F12CB5
:1024F000E12CA1014E0D5F1D6701E2E0CE0ED11C63
:10250000FFEFEF1AFF0A2A813B81E216F30648F437
:102510002FEF3FEFBE016F5F7F4F80E20E94400EC2
:10252000E8CF1A013FEF231A330A780182E0E80E60
:10253000F11C2FEF3FEFBE016F5F7F4FD8018C91F1
:102540000E94400E8928B1F0EA81FB81CE16DF0699
:1025500088F481010F5F1F4F2FEF3FEFA101BE01F4
:102560006F5F7F4F80E20E94400EFFEFCF1ADF0ABD
:102570001801EACF8701EDCC98012E5F3F4F3987D4
:102580002887D8010D911C910115110589F4650169
:10259000EA80FB8006E010E025E931E0A101BE0100
:1025A0006F5F7F4F80E49EE00E948D001C0137CE5C
:1025B00092014114510411F42FEF3FEFF80190E024
:1025C00080E0AF014F5F5F4F6081662331F082177B
:1025D000930719F00196FA01F4CFE01BF10B950176
:1025E000222734703D832C83B2FE04C04E165F0652
:1025F00008F4F201450132E0832299247F01A10110
:10260000A1FC18C02E1A3F0AA1014E0F5F1F7F01C7
:102610008FEFE81AF80AAA81BB81EA17FB0750F48A
:102620002FEF3FEFBE016F5F7F4F80E20E94400EB1
:10263000F701EACF6A01C01AD10AA601400F511F63
:10264000F80181918F01882391F02C813D81232B0A
:1026500031F0920121503109452849F029012FEF2D
:102660003FEFBE016F5F7F4F0E94400EE6CF1A0121
:10267000892809F4D4CDE41AF50AC701820D931D07
:10268000AA81BB818A179B0708F0C9CD81010F5F22
:102690001F4F2FEF3FEFA101BE016F5F7F4F80E221
:1026A0000E94400E1801E9CFDF92CF921F92B6E050
:1026B000BF935F924F9230E1832EA12C6801E12CF1
:1026C000F12C00E010E020E030E0A101BE016F5FDE
:1026D0007F4F80E49EE00E9417011C010F900F9035
:1026E0000F900F900F900F90DACD7101EFEFEE1A6F
:1026F000FE0A2FEF3FEFA101BE016F5F7F4F85E222
:102700000E94400E170125CCA7FE03C03182208213
:1027100020CCB0FE08C0C101B0E0A0E0808391836E
:10272000A283B38316CCB1FEF1CF41012082918206
:102730001282138214821582168217820ACCA1019A
:10274000EFEF2E163E0611F44EEF5FEF2FEF3FEF47
:10275000BE016F5F7F4F80E00E94400EC1012F9647
:102760000FB6F894DEBF0FBECDBFDF91CF911F91A2
:102770000F91FF90EF90DF90CF90BF90AF909F9020
:102780008F907F906F905F904F903F902F90089523
:1027900028E0822EE1CC92E0892EDECC813051F10E
:1027A00088F0823051F1833061F11F928F9382EA79
:1027B00091E09F938F930E94880F0F900F900F903E
:1027C0000F9006C010925D0610925E0610925F0692
:1027D00060915D0680915A060E94C10460915E0678
:1027E00080915B060E94C10460915F0680915C0647
:1027F0000C94C10480935D06E7CF81E080935F066F
:10280000E7CF10925D0681E080935E06DFCFCF9226
:10281000DF92EF92FF92CF93DF9380E1809381006C
:102820000E943D0560938F057093900580939105FC
:102830009093920580918E058F5F80938E05809195
:102840008F0590919005A0919105B09192054091CE
:102850005606509157066091580670915906C090DF
:102860008A05D0908B05E0908C05F0908D058C0D3D
:102870009D1DAE1DBF1D841B950BA60BB70B809332
:102880008A0590938B05A0938C05B0938D0580915C
:102890008F0590919005A0919105B091920580933C
:1028A000560690935706A0935806B0935906809108
:1028B0008E05863008F160918A0570918B058091B4
:1028C0008C0590918D0520918E0530E050E040E020
:1028D0000E9434212093070130930801409309019D
:1028E00050930A0110928E0510928A0510928B0562
:1028F00010928C0510928D05609100018DE00E9470
:10290000C1048091000191E08927809300018091AA
:102910009D05833009F068C067E171E085E090E0D3
:102920000E94060F90931601809315018091150166
:1029300090911601019709F05CC082E00E94CE13CD
:102940008091150190911601019709F09DC0109298
:1029500093052091070130910801409109015091A0
:102960000A015695479537952795A0EAB0E00E9451
:10297000F2206B017C0124E130E040E050E00E9455
:1029800034212115310581E048075105A8F581E082
:102990008093960530939505209394058091940536
:1029A000909195059093870080938600809196057D
:1029B00080618093810010928100109285001092B6
:1029C00084008091960580618093810061E085E0BC
:1029D0000E94C10481E080931C01DF91CF91FF90A0
:1029E000EF90DF90CF9008956BE071E08AE090E087
:1029F00097CF80919D05A2CF2115310588E048072A
:102A0000510560F482E080939605C701B60120EA83
:102A100030E040E050E00E943421BCCF2115310568
:102A200080E44807510550F483E080939605C70180
:102A3000B60120E035E040E050E0EDCF2115310552
:102A4000410581E0580750F484E080939605C70162
:102A5000B60120E034E140E050E0DDCF85E0809336
:102A60009605211531054105544038F4C701B601DA
:102A700020E030E540E050E0CECF8FEF9FEF909325
:102A80009505809394058ACFC0919D05C33009F0C8
:102A9000A9C01092930561E085E00E94C104D1E0D5
:102AA000D0931C010E94480E882309F447C060910E
:102AB0000701709108018091090190910A0120910C
:102AC0001501309116019695879577956795032E98
:102AD000000C440B550B0E943421A0EAB0E00E9488
:102AE000F2206B017C0124E130E040E050E00E94E4
:102AF00034212115310581E04807510560F5D09357
:102B000096053093950520939405809194059091B6
:102B1000950590938700809386008091960580614B
:102B200080938100109281001092850010928400A1
:102B3000809196058061809381004FCF209107019D
:102B4000309108014091090150910A01569547952D
:102B500037952795C2CF2115310588E048075105E3
:102B600060F482E080939605C701B60120EA30E068
:102B700040E050E00E943421C4CF2115310580E4AB
:102B80004807510548F4C0939605C701B60120E0F7
:102B900035E040E050E0EECF21153105410581E000
:102BA000580750F484E080939605C701B60120E0F1
:102BB00034E140E050E0DECF85E0809396052115BA
:102BC00031054105544038F4C701B60120E030E535
:102BD00040E050E0CFCF8FEF9FEF9093950580932B
:102BE000940593CF809193058F5F809393050E9406
:102BF000480E8823C1F02091930580911501909192
:102C00001601281719067CF01092930581E0809335
:102C10001C0161E085E0DF91CF91FF90EF90DF90A4
:102C2000CF900C94C10460E0F5CFBF92CF92DF92B9
:102C3000EF92FF920F931F93CF93DF93CDB7DEB741
:102C400028970FB6F894DEBF0FBECDBF6D837E838D
:102C50008F8398878091AE059091AF05089708F40F
:102C6000B7C08091AD058F938091AC058F938FEBAA
:102C700091E09F938F930E94880F83E393E3DC019D
:102C800089839A83AB83BC83BE016F5F7F4F809142
:102C9000AC059091AD050E94580F2091AA05309186
:102CA000AB05285F3F4F8091AE059091AF05089727
:102CB0000F900F900F900F9082179307C0F486EE3D
:102CC00091E09F938F930E94880F1F921F9286E33B
:102CD00092E09F938F930E94880F1092AB05109201
:102CE000AA050F900F900F900F900F900F9080916A
:102CF000AB058F938091AA058F9388E592E09F930F
:102D00008F930E94880F86E696E6DC0189839A837A
:102D1000AB83BC83BE016F5F7F4F8091AA0590910A
:102D2000AB050E94580F8091AA059091AB059C01BC
:102D3000285F3F4F3F932F9304969F938F938FE786
:102D400092E09F938F930E94880FE090AA05F090E5
:102D5000AB0587010C5F1F4F6E0185E0C80ED11CCB
:102D600098E0E90EF11C0FB6F894DEBF0FBECDBFA0
:102D7000F601B1906F01C8010E94BD20B81621F084
:102D80006B2DC8010E94C5200F5F1F4F0E151F0538
:102D900079F78091AA059091AB059093AD0580934A
:102DA000AC0508969093AB058093AA0588E090E067
:102DB00028960FB6F894DEBF0FBECDBFDF91CF913E
:102DC0001F910F91FF90EF90DF90CF90BF900895EB
:102DD0008FEF9FEFEDCF80919D05813049F583E026
:102DE00080939D058091150190911601019719F42A
:102DF00082E00E94CE1383E991E09F938F930E941B
:102E0000880F81E08093B4050E94B0056053784F2D
:102E10008F4F9F4F6093B5057093B6058093B705AC
:102E20009093B80580919D050F900F900C94CE1350
:102E300080919D058330B1F681E0D2CF80919D05D0
:102E4000813099F41092930580E180938100109273
:102E50001C0160E085E00E94C10486ED94E09F9330
:102E60008F930E94880F0F900F9008951F920F92DA
:102E70000FB60F9211242F933F938F939F93AF938D
:102E8000BF938091A2059091A305A091A405B09154
:102E9000A5053091A10523E0230F2D3758F50196A4
:102EA000A11DB11D2093A1058093A2059093A305B8
:102EB000A093A405B093A5058091A6059091A705C0
:102EC000A091A805B091A9050196A11DB11D8093FF
:102ED000A6059093A705A093A805B093A905BF9157
:102EE000AF919F918F913F912F910F900FBE0F90B7
:102EF0001F90189526E8230F0296A11DB11DD2CF71
:102F00001F920F920FB60F9211242F933F934F935E
:102F10005F936F937F938F939F93AF93BF93EF9341
:102F2000FF93E0910301F09104010995FF91EF9166
:102F3000BF91AF919F918F917F916F915F914F91D1
:102F40003F912F910F900FBE0F901F9018951F92D9
:102F50000F920FB60F9211242F933F934F935F93CD
:102F60006F937F938F939F93AF93BF93EF93FF9351
:102F7000E0910101F09102010995FF91EF91BF915C
:102F8000AF919F918F917F916F915F914F913F9101
:102F90002F910F900FBE0F901F9018951F920F92B8
:102FA0000FB60F9211242F933F934F935F936F931C
:102FB0007F938F939F93AF93BF93EF93FF9389EB8F
:102FC00095E00E945B06FF91EF91BF91AF919F91B9
:102FD0008F917F916F915F914F913F912F910F90C2
:102FE0000FBE0F901F9018951F920F920FB60F9261
:102FF00011242F938F939F93EF93FF93E091C90533
:10300000F091CA058081E091CF05F091D00582FD55
:103010001BC090818091D2058F5F8F732091D30563
:10302000821741F0E091D205F0E0E754FA4F958F16
:103030008093D205FF91EF919F918F912F910F90E7
:103040000FBE0F901F9018958081F4CF1F920F92A2
:103050000FB60F9211242F933F934F935F936F936B
:103060007F938F939F93AF93BF93EF93FF93E091E1
:103070000501F09106010995FF91EF91BF91AF9184
:103080009F918F917F916F915F914F913F912F9180
:103090000F900FBE0F901F901895EF92FF920F9315
:1030A0001F93CF93DF93EC017B01198218821B825F
:1030B0001A821D821C82FB0101900020E9F73197E2
:1030C0008F01061B170BB8016F5F7F4F90E080E008
:1030D0000E9427250097B9F0998388831B830A8370
:1030E0002C813D81232B11F4FC0110821D830C8364
:1030F000B70188819981DF91CF911F910F91FF9046
:10310000EF900C94ED2588819981009711F00E9431
:103110009E24198218821D821C821B821A82DF91D2
:10312000CF911F910F91FF90EF9008950F931F93F0
:10313000CF93DF931092BC051092BB0588EE93E00D
:10314000A0E0B0E08093BD059093BE05A093BF05BD
:10315000B093C00585E791E09093BA058093B905D7
:1031600085EC90E09093C6058093C50584EC90E0D3
:103170009093C8058093C70580EC90E09093CA05B2
:103180008093C90581EC90E09093CC058093CB05AA
:1031900082EC90E09093CE058093CD0586EC90E094
:1031A0009093D0058093CF051092D2051092D3054D
:1031B0001092D4051092D50582E390E090937B069F
:1031C00080937A0680E991E090937D0680937C0657
:1031D00080E293E090937F0680937E0688EE93E0F2
:1031E0009093810680938006109283061092820647
:1031F0001092850610928406109287061092860619
:10320000109289061092880610928B0610928A06F8
:1032100010928D0610928C0610928F0610928E06D8
:1032200010929106109290061092930610929206B8
:103230001092950610929406109297061092960698
:10324000109299061092980610929B0610929A0678
:1032500010929D0610929C0610929F0610929E0658
:103260001092A1061092A0061092A3061092A20638
:103270001092A5061092A4061092A7061092A60618
:103280001092A9061092A8061092AB061092AA06F8
:103290001092AC068FEF9FEF9093AE068093AD0631
:1032A0009093B0068093AF061092B1061092B206CA
:1032B0001092B3061092B4061092B5061092B6069C
:1032C0001092B7061092B8061092B9061092BA067C
:1032D0001092BB061092BC061092BE061092BD065C
:1032E00081E090E09093C0068093BF061092C206E2
:1032F0001092C1061092C3061092C4061092C50621
:103300001092C60684E090E0909379068093780648
:1033100062E00E94EF046FEA72E086E696E00E94A7
:103320004D1863EB72E08CE696E00E944D1867EB57
:1033300072E082E796E00E944D18CDE1D1E000E610
:1033400016E08991F80181938F0161E00E94EF04FA
:10335000F1E0C332DF07A9F787E080935A0688E0DF
:1033600080935B0689E080935C0661E087E00E94C1
:10337000EF0461E080915B060E94EF0461E08091C0
:103380005C060E94EF0480E00E94CE130E943D057F
:10339000609356067093570680935806909359068B
:1033A000DF91CF911F910F910895CF93DF93CDB708
:1033B000DEB72F970FB6F894DEBF0FBECDBF78945F
:1033C00084B5826084BD84B5816084BD85B582602A
:1033D00085BD85B5816085BD80916E0081608093DB
:1033E0006E00109281008091810082608093810044
:1033F0008091810081608093810080918000816054
:10340000809380008091B10084608093B1008091AE
:10341000B00081608093B00080917A0084608093D6
:103420007A0080917A00826080937A0080917A009D
:10343000816080937A0080917A00806880937A001E
:103440001092C100E091C905F091CA0582E0808325
:10345000E091C505F091C6051082E091C705F09195
:10346000C80588E080831092D105E091CD05F091E8
:10347000CE0586E08083E091CB05F091CC0580817C
:1034800080618083E091CB05F091CC0580818860DC
:103490008083E091CB05F091CC05808180688083AA
:1034A000E091CB05F091CC0580818F7D80838CEB02
:1034B00092E09F938F930E94880F80E094E09E8318
:1034C0008D8384E08F931F928EEC92E09F938F9375
:1034D0000E94880F0F900F900F900F900F900F90F9
:1034E00010E000E08D819E8104970817190708F00D
:1034F00059C0BE01695F7F4FC8010E94320F8F81A2
:103500009885A985BA8586369646A646B64609F0B8
:1035100046C01C830B83C80108969A8389831F9336
:103520000F938AEE92E09F938F930E94880F0F90E3
:103530000F900F900F908FE0FE013196AAEAB5E050
:1035400001900D928A95E1F78091AC059091AD05BF
:103550002091AA053091AB0528173907B9F588E500
:1035600093E09F938F930E94880F83E080939D0543
:1035700060919D0570919E0580919F059091A00599
:103580000E9415160F900F9097FF46C28CE693E0AD
:103590009F938F930E94880F0F900F9041C00C5FF4
:1035A0001F4FA0CF1B860E94B0056C877D878E873A
:1035B0009F871A8219821C821B828CE193E09F9361
:1035C0008F930E94880F0F900F90B5CF60EB75E03E
:1035D0000E94320F8091B0059091B105A091B20583
:1035E000B091B30586369646A646B646C9F4E09035
:1035F000AC05F090AD0587010C5F1F4FFDE9CF2EA4
:10360000F5E0DF2E48E0E40EF11CC8010E94BD2069
:10361000F60181936F010F5F1F4FE016F106A9F7C6
:1036200012E080E00E94940581E00E94940582E00F
:103630000E94940581E00E94940580E00E94940518
:1036400081E00E94940583E00E94940584E00E943A
:10365000940585E00E94940584E00E94940583E02F
:103660000E94940581E00E949405113009F008C27F
:1036700061E08DE00E94EF0460E08FE00E94EF04C3
:103680008FE00E942B0560E080E10E94EF0480E162
:103690000E942B0560E08EE00E94EF048EE00E9405
:1036A0002B0560E081E10E94EF0481E10E942B057F
:1036B00061E086E00E94EF0460E082E00E94EF0497
:1036C00060E083E00E94EF048BEE96E19093850624
:1036D0008093840680919D050E94CE1380919D0564
:1036E0008150990B26E0289FF001299FF00D1124AD
:1036F000EA59F94F81818F9380818F938DE094E017
:103700009F938F930E94880F0E943D0560935606F9
:1037100070935706809358069093590682E10E9451
:103720002B058C018CE090E00E940224FC01A80192
:10373000110F660B770B4858594A6B4C7D4E4083EE
:1037400051836283738314821582168217821086D6
:1037500011861286138690939805809397051F9281
:1037600082E08F9382E294E09F938F930E94880F70
:1037700087E094E1909302018093010180916900B8
:10378000836080936900E89A61E085E00E94EF041D
:103790001F9283E08F9388E594E09F938F930E941C
:1037A000880F8EE197E1909304018093030180914B
:1037B00069008C6080936900E99A10921C018091E5
:1037C0009D050FB6F894DEBF0FBECDBF833009F064
:1037D00059C167E171E085E090E00E94060F909387
:1037E00016018093150180911501909116019F9308
:1037F0008F938EE894E09F938F930E94880F60913F
:103800000701709108018091090190910A012091AE
:1038100015013091160140E1409381001092800023
:103820009695879577956795032E000C440B550B5D
:103830000E943421A0EAB0E00E94F2206B017C01DA
:1038400024E130E040E050E00E9434210F900F90DE
:103850000F900F9021153105F1E04F07510508F049
:1038600016C181E0809396053093950520939405C9
:1038700080919405909195059093870080938600A0
:103880008091960580618093810080919D058330B1
:1038900009F045C1109281001092850010928400B9
:1038A0008091960580618093810061E085E00E94AF
:1038B000C1048CEB95E0909306018093050181E0B3
:1038C00080936F0088E994E09F938F930E94880F04
:1038D0000F900F9078EA472E74E0572E4CE1642E3B
:1038E00045E0742E58ED852E54E0952E60E0262E8E
:1038F00060E0362E0E94B0050091990510919A055E
:1039000020919B0530919C055B016C01A01AB10AC6
:10391000C20AD30A96018501053F114021053105F0
:1039200090F06093990570939A0580939B0590930E
:103930009C058DE00E94980461E0892B09F060E00D
:103940008DE00E94C104809178069091790697FDE0
:1039500044C10E9498048C010E94B005DC01CB0197
:103960008093B5069093B606A093B706B093B806B9
:103970002091AF063091B0060217130709F0D1C0AD
:103980004091B1065091B2066091B3067091B406B1
:103990006C017D01C41AD50AE60AF70A40917A063D
:1039A00050917B0670E060E0C416D506E606F70687
:1039B00020F01093AE060093AD060091AD06109175
:1039C000AE06E0908206F09083064091B9065091D1
:1039D000BA066091BB067091BC065C016D01A41A29
:1039E000B50AC60AD70AB601A5012091AA063091E8
:1039F000AB062230310509F49CC10CF09FC02115A3
:103A0000310509F4B2C02130310509F45AC11092D0
:103A1000AB061092AA06E1C08091AD058F9380910C
:103A2000AC058F9388EA93E09F938F930E94880F51
:103A30008091AB058F938091AA058F9380ED93E0E1
:103A40009F938F930E94880F80919D058150990BC1
:103A500026E0289FF001299FF00D1124EA59F94F23
:103A600081818F9380818F9388EF93E09F938F93D1
:103A70000E94880F0FB6F894DEBF0FBECDBFD0CD29
:103A800011E0CFCD6BE071E08AE090E0A6CE211589
:103A9000310588E04807510560F482E0809396057F
:103AA000C701B60120EA30E040E050E00E94342136
:103AB000DBCE2115310590E44907510550F483E030
:103AC00080939605C701B60120E035E040E050E064
:103AD000EDCF211531054105E1E05E0750F484E0AA
:103AE00080939605C701B60120E034E140E050E044
:103AF000DDCF85E0809396052115310541055440C1
:103B000038F4C701B60120E030E540E050E0CECF08
:103B10008FEF9FEF9093950580939405A9CE80E158
:103B2000C2CE8093B1069093B206A093B306B09331
:103B3000B4061093B0060093AF063FCF2630310590
:103B400009F46EC12730310509F4B0C123303105C5
:103B500009F05DCFE016F10609F0FBC0E1E0F0E00E
:103B6000F093AB06E093AA06B6C08091AC06811133
:103B700016C08091800690918106B0E0A0E0841785
:103B80009507A607B70758F4E091A806F091A90693
:103B9000309729F0BB24B394B092AC060995E01697
:103BA000F106D9F4CC24C394D12CD092AB06C092A8
:103BB000AA068091B5069091B606A091B706B0917D
:103BC000B8068093B9069093BA06A093BB06B0934B
:103BD000BC061092BE061092BD068091B4058823E3
:103BE00009F463C00E94B0050091B5051091B605B7
:103BF0002091B7053091B805061717072807390730
:103C000008F053C01092B4051F9284E08F935F9226
:103C10004F920E94880F60919D0570919E05809142
:103C20009F059091A0050E9415160F900F900F9080
:103C30000F9097FF4EC19F928F920E94880F0F9016
:103C40000F9080919D058150990B26E0289FF001EF
:103C5000299FF00D1124EA59F94F81818F938081BA
:103C60008F938EE695E09F938F930E94880F8DE04F
:103C70000E94980461E0892B09F060E08DE00E94C9
:103C8000C10464E670E080E090E00E9462058DE08F
:103C90000E94980461E0892B09F060E08DE00E94A9
:103CA000C1040F900F900F900F902114310409F46C
:103CB00021CE0E944706882309F410CE0E940000FE
:103CC0000DCEE016F10681F022E0E22EF12CF0920A
:103CD000AB06E092AA068093B9069093BA06A09329
:103CE000BB06B093BC0679CF80917E0690917F068B
:103CF000B0E0A0E084179507A607B70708F06DCFDE
:103D0000E0919606F0919706309709F00995E091B9
:103D10009806F0919906309729F080919A06909133
:103D20009B06099526E030E03093AB062093AA0667
:103D300054CF8091BD069091BE0601969093BE0629
:103D40008093BD0683E090E09093AB068093AA0633
:103D500044CF8091BD069091BE0600917C061091E3
:103D60007D0630E020E0401751076207730740F4FA
:103D70002091BF063091C0068217930709F02DCF1E
:103D80008130910531F5E0918406F09185063097F8
:103D900009F00995E0918606F091870680918806E2
:103DA00090918906309741F51092AB061092AA06C1
:103DB0001092BE061092BD060E94B0056093B9062F
:103DC0007093BA068093BB069093BC061092AC0623
:103DD00004CF029799F4E0918A06F0918B06309710
:103DE00009F00995E0918C06F0918D0680918E0680
:103DF00090918F063097C1F20995D6CFE091900649
:103E0000F0919106309709F00995E0919206F091B2
:103E100093068091940690919506309769F7C4CFE8
:103E2000E016F10641F097E0A92EB12CB092AB0656
:103E3000A092AA06D2CE4091C3065091C4066091CA
:103E4000C5067091C606841B950BA60BB70B409157
:103E5000C1065091C20670E060E084179507A6077E
:103E6000B70708F4BACEE091A206F091A306309706
:103E700009F00995E091A406F091A506309729F084
:103E80008091A6069091A70609958091B50690911C
:103E9000B606A091B706B091B8068093C30690937A
:103EA000C406A093C506B093C60697CEE0919C06C3
:103EB000F0919D06309709F00995E0919E06F091EA
:103EC0009F06309709F470CF8091A0069091A106CB
:103ED00093CF8091AD058F938091AC058F937F92A6
:103EE0006F920E94880F8091AB058F938091AA05F5
:103EF0008F9385E4C82E85E0D82EDF92CF920E9462
:103F0000880F0FB6F894DEBF0FBECDBF9ACECF9309
:103F1000DF93C8E7D6E0269788819981009711F052
:103F20000E949E2486E0C636D807A9F7DF91CF917C
:103F300008950E94DB1F08F481E00895E89409C009
:103F400097FB3EF490958095709561957F4F8F4FCC
:103F50009F4F9923A9F0F92F96E9BB279395F695E2
:103F6000879577956795B795F111F8CFFAF4BB0F60
:103F700011F460FF1BC06F5F7F4F8F4F9F4F16C0C4
:103F8000882311F096E911C0772321F09EE8872F4E
:103F9000762F05C0662371F096E8862F70E060E00A
:103FA0002AF09A95660F771F881FDAF7880F969583
:103FB000879597F90895990F0008550FAA0BE0E827
:103FC000FEEF16161706E807F907C0F012161306DB
:103FD000E407F50798F0621B730B840B950B39F41B
:103FE0000A2661F0232B242B252B21F408950A2681
:103FF00009F4A140A6958FEF811D811D08950E94AF
:1040000012200C9483200E94752038F00E947C209E
:1040100020F0952311F00C946C200C947220112444
:104020000C94B7200E94942070F3959FC1F3950FD4
:1040300050E0551F629FF001729FBB27F00DB11D2C
:10404000639FAA27F00DB11DAA1F649F6627B00DBC
:10405000A11D661F829F2227B00DA11D621F739FA5
:10406000B00DA11D621F839FA00D611D221F749FB3
:104070003327A00D611D231F849F600D211D822FFA
:10408000762F6A2F11249F5750409AF0F1F0882321
:104090004AF0EE0FFF1FBB1F661F771F881F91504E
:1040A0005040A9F79E3F510580F00C946C200C9471
:1040B000B7205F3FE4F3983ED4F3869577956795F4
:1040C000B795F795E7959F5FC1F7FE2B880F911D78
:1040D0009695879597F9089597F99F6780E870E01E
:1040E00060E008959FEF80EC089500240A9416166E
:1040F000170618060906089500240A9412161306D6
:10410000140605060895092E0394000C11F4882363
:1041100052F0BB0F40F4BF2B11F460FF04C06F5F7F
:104120007F4F8F4F9F4F089557FD9058440F551F55
:1041300059F05F3F71F04795880F97FB991F61F029
:104140009F3F79F087950895121613061406551FA0
:10415000F2CF4695F1DF08C0161617061806991F0C
:10416000F1CF86957105610508940895E894BB2701
:1041700066277727CB0197F90895F999FECF92BD6D
:1041800081BDF89A992780B50895262FF999FECF19
:104190001FBA92BD81BD20BD0FB6F894FA9AF99A64
:1041A0000FBE01960895052E97FB1EF400940E9401
:1041B000EA2057FD07D00E94342107FC03D04EF4BB
:1041C0000C94EA2050954095309521953F4F4F4FE4
:1041D0005F4F089590958095709561957F4F8F4FB3
:1041E0009F4F08950E945621A59F900DB49F900D5A
:1041F000A49F800D911D112408952F923F924F92FC
:104200005F926F927F928F929F92AF92BF92CF9266
:10421000DF92EF92FF920F931F93CF93DF93CDB76F
:10422000DEB7CA1BDB0B0FB6F894DEBF0FBECDBFE7
:1042300009942A88398848885F846E847D848C84B8
:104240009B84AA84B984C884DF80EE80FD800C81C1
:104250001B81AA81B981CE0FD11D0FB6F894DEBFA4
:104260000FBECDBFED010895A1E21A2EAA1BBB1B04
:10427000FD010DC0AA1FBB1FEE1FFF1FA217B30732
:10428000E407F50720F0A21BB30BE40BF50B661F48
:10429000771F881F991F1A9469F76095709580950C
:1042A00090959B01AC01BD01CF010895A29FB00183
:1042B000B39FC001A39F700D811D1124911DB29F5A
:1042C000700D811D1124911D08950E9456213323E4
:1042D00012F48A1B9B0B0C946F210E945621B7FF8E
:1042E0000895821B930B0895689401C0E894F92FF8
:1042F000F12B12F00C94A821A0E0B0E0E2E8F1E28A
:104300000C940321092E059422F40E940422112307
:1043100092F4F0E80F26FFEFE094F09400951095EA
:10432000B094C094D094A194BF0ACF0ADF0AEF0AD8
:10433000FF0A0F0B1F0B0E94B32107FC0E940422EF
:10434000CDB7DEB7ECE00C941F21689401C0E8946F
:104350008F929F92CF93DF930E94B321DF91CF91F1
:104360009F908F90089588249924F401E401B0E48B
:104370009F93AA279A158B049C04ED05FE05CF0593
:10438000D007A10798F4AD2FDC2FCF2FFE2FE92DFA
:10439000982C892E982F872F762F652F542F432FF7
:1043A000322F2227B85031F7BF9127C01B2EBF9163
:1043B000BB27220F331F441F551F661F771F881FFF
:1043C000991F881C991CEE1FFF1FCC1FDD1FAA1F01
:1043D000BB1F8A149B04EC05FD05CE05DF05A00775
:1043E000B10748F08A189B08EC09FD09CE09DF09DE
:1043F000A00BB10B21601A94E1F62EF49401AF01E9
:10440000BE01CD01000C0895609570958095909542
:1044100030954095509521953F4F4F4F5F4F6F4FCF
:104420007F4F8F4F9F4F089597FD1094002E0830B7
:1044300098F00850232F342F452F562F672F782FB1
:10444000892F912DF4CF159497958795779567953A
:1044500057954795379527950A95AAF71124002D6A
:1044600008952A0D3B1D4C1D5D1D6E1D7F1D801F77
:10447000911F08950024A7FD00942A0F301D401DB0
:10448000501D601D701D801D901D08950024A7FD06
:1044900000942A1730054005500560057005800519
:1044A00090050895EE0FFF1F0590F491E02D0994FB
:1044B0005058BB27AA270E9470220C9483200E9488
:1044C000752038F00E947C2020F039F49F3F19F4C9
:1044D00026F40C9472200EF4E095E7FB0C946C200B
:1044E000E92F0E94942058F3BA17620773078407D4
:1044F000950720F079F4A6F50C94B6200EF4E0951B
:104500000B2EBA2FA02D0B01B90190010C01CA018D
:10451000A0011124FF27591B99F0593F50F4503E38
:1045200068F11A16F040A22F232F342F4427585F2A
:10453000F3CF469537952795A795F0405395C9F742
:104540007EF41F16BA0B620B730B840BBAF09150FA
:10455000A1F0FF0FBB1F661F771F881FC2F70EC099
:10456000BA0F621F731F841F48F48795779567956C
:10457000B795F7959E3F08F0B0CF9395880F08F058
:104580009927EE0F9795879508950E94D9220C944C
:1045900083200E947C2058F00E94752040F029F46E
:1045A0005F3F29F00C946C2051110C94B7200C94AF
:1045B00072200E94942068F39923B1F3552391F35C
:1045C000951B550BBB27AA2762177307840738F082
:1045D0009F5F5F4F220F331F441FAA1FA9F335D0DF
:1045E0000E2E3AF0E0E832D091505040E695001C93
:1045F000CAF72BD0FE2F29D0660F771F881FBB1F4D
:10460000261737074807AB07B0E809F0BB0B802D2A
:10461000BF01FF2793585F4F3AF09E3F510578F056
:104620000C946C200C94B7205F3FE4F3983ED4F3D5
:10463000869577956795B795F7959F5FC9F7880F2A
:10464000911D9695879597F90895E1E0660F771F7C
:10465000881FBB1F621773078407BA0720F0621B0D
:10466000730B840BBA0BEE1F88F7E0950895BEE339
:1046700004D008F490E80895BFE322273327A90166
:104680000E949C2060F19F5748F1B91740F1BFE3A9
:10469000B91B9927B8503AF4660F771F881F991FE6
:1046A000B395D2F316C0B8504AF0232F342F452FBC
:1046B000562F672F782F8827B850BAF7B85F49F080
:1046C0008695779567955795479537952795BA9528
:1046D000B9F716F40E94ED2388940895889460E059
:1046E00070E0CB0108950E947A236894B1110C9474
:1046F000B72008950E949C2088F09F5798F0B92F0A
:104700009927B751B0F0E1F0660F771F881F991F06
:104710001AF0BA95C9F714C0B13091F00E94B620D2
:10472000B1E008950C94B620672F782F8827B85FE2
:1047300039F0B93FCCF3869577956795B395D9F75E
:104740003EF490958095709561957F4F8F4F9F4F68
:10475000089597FB16F40E94ED230C94B023E8947F
:10476000F92F96EBFF2381F0121613061406440B63
:104770009395F69587957795679557954040FF23D4
:10478000B9F71BC099270895882351F49850D2F7A0
:10479000872B762F652F542F432F322F20E0B1F334
:1047A000121613061406440B88233AF09A95440F08
:1047B000551F661F771F881FCAF755234AF4440FF9
:1047C000551F11F460FF04C06F5F7F4F8F4F9F4FE5
:1047D000880F9695879597F908959095809570958F
:1047E000609550954095309521953F4F4F4F5F4FC5
:1047F0006F4F7F4F8F4F9F4F08950E94DB1F08F42C
:104800008FEF08950F931F93CF93DF93823091051D
:1048100010F482E090E0E091C906F091CA0630E021
:1048200020E0B0E0A0E0309799F42115310509F4BB
:104830004AC0281B390B24303105D8F58A819B8169
:104840006115710589F1FB0193838283FE0111C01B
:10485000408151810281138148175907E0F04817C0
:10486000590799F4109761F012960C9312971396CA
:104870001C933296CF01DF91CF911F910F91089534
:104880000093C9061093CA06F4CF2115310551F0E3
:104890004217530738F0A901DB019A01BD01DF017E
:1048A000F801C1CFEF01F9CF9093CA068093C906F2
:1048B000CDCFFE01E20FF31F819391932250310976
:1048C00039832883D7CF2091C7063091C806232B80
:1048D00041F420912501309126013093C8062093A0
:1048E000C70620912301309124012115310541F49F
:1048F0002DB73EB74091270150912801241B350B5D
:10490000E091C706F091C806E217F307A0F42E1B4A
:104910003F0B2817390778F0AC014E5F5F4F241723
:10492000350748F04E0F5F1F5093C8064093C706E7
:10493000819391939FCFF0E0E0E09CCFCF93DF9302
:104940000097E9F0FC01329713821282A091C90608
:10495000B091CA06ED0130E020E01097A1F420816B
:104960003181820F931F2091C7063091C806281706
:10497000390709F061C0F093C806E093C706DF91DC
:10498000CF910895EA01CE17DF07E8F54A815B81F0
:104990009E0141155105B1F7E901FB83EA83499175
:1049A0005991C40FD51FEC17FD0761F480819181E7
:1049B0000296840F951FE9019983888382819381F0
:1049C0009B838A83F0E0E0E012968D919C9113978F
:1049D0000097B9F52D913C911197CD010296820F68
:1049E000931F2091C7063091C8062817390739F65A
:1049F000309751F51092CA061092C906B093C806B6
:104A0000A093C706BCCFD383C28340815181840F5A
:104A1000951FC817D90761F44E5F5F4F8881998150
:104A2000480F591F518340838A819B8193838283DE
:104A30002115310509F0B0CFF093CA06E093C906FD
:104A40009ECFFD01DC01C0CF13821282D7CFB0E030
:104A5000A0E0EDE2F5E20C94FF208C01009751F408
:104A6000CB010E9402248C01C801CDB7DEB7E0E182
:104A70000C941B21FC01E60FF71F9C012250310909
:104A8000E217F30708F49DC0D901CD91DC9111978D
:104A9000C617D70798F0C530D10530F3CE0104977B
:104AA0008617970708F3C61BD70B2297C193D1939C
:104AB0006D937C93CF010E949E24D6CF5B01AC1AEC
:104AC000BD0A4C018C0E9D1EA091C906B091CA066C
:104AD000512C412CF12CE12C109731F58091C70617
:104AE0009091C8068815990509F05CC046165706CE
:104AF00008F058C08091230190912401009741F45F
:104B00008DB79EB74091270150912801841B950BCA
:104B1000E817F90708F055C0F093C806E093C706F8
:104B2000F90171836083A0CF8D919C9111971296AA
:104B30006C90129713967C901397A815B90559F5A8
:104B40006C0142E0C40ED11CCA14DB0420F1AC019C
:104B50004A195B09DA011296159780F06282738216
:104B600051834083D9016D937C93E114F10471F07A
:104B7000D7011396FC93EE93129776CF22968C0F63
:104B80009D1FF90191838083F301EFCFF093CA0653
:104B9000E093C90669CF4816590608F42C017D0137
:104BA000D3019ACFCB010E9402247C01009749F0E7
:104BB000AE01B8010E94E425C8010E949E2487012D
:104BC00053CF10E000E050CFFB01DC0102C00190A8
:104BD0000D9241505040D8F70895FB01DC0101903F
:104BE0000D920020E1F7089510E0C2E6D0E004C085
:104BF000FE010E9452222196C336D107C9F7F894CC
:024C0000FFCFE4
:104C020001DC05DC05EA06B0710B000102030405B4
:104C1200060708091002000102030405010708093A
:104C22000603050000CB0680000000803F00002044
:104C3200410000C84200007A4400401C460050C3B4
:104C420047002474498096184B20BCBE4C286B6EDA
:104C52004EF9021550B743BA51A5D46853E78411EF
:104C62005521E6B556A95F6358CA1B0E5ABCA2B1BC
:104C72005B000000007D06DD050A06CA063B061938
:104C8200062D06666E692B00666E69006E616E0007
:104C9200666E692D00296C6C756E2800296C696E30
:104CA20028007365744D6F646520756E6B6E6F7747
:104CB2006E206D6F64653A2025307830320A0065C7
:104CC2006570726F6D3A2065726173696E67204D0F
:104CD20041524B4552206174206164647265737362
:104CE2003A2025640A00656570726F6D3A2063612F
:104CF2006E206E6F742077726974652064617461CE
:104D020020706173742074686520656E64206F661C
:104D12002074686520454550524F4D3B20626567BF
:104D2200696E6E696E672061742061646472657376
:104D32007320302E0A00656570726F6D3A207365BC
:104D42007420737461727420616464726573732079
:104D5200746F3A2025640A00656570726F6D3A209F
:104D620077726974696E67204D41524B45522074C7
:104D72006F20616464726573733A2025640A00656A
:104D82006570726F6D3A2077726974696E6720641C
:104D92006174612066726F6D206164647265737301
:104DA2003A20256420756E74696C2025640A0044DB
:104DB2004956004F4E45004D554C540042656769B7
:104DC2006E206F6620536574757028290A00656528
:104DD20070726F6D3A2073697A65206F662065651F
:104DE20070726F6D3A2025640A00656570726F6D8E
:104DF2003A20696E697420666F756E6420737461FF
:104E02007274206164647265737320666F722072BB
:104E1200656164696E673A2025640A00656570728F
:104E22006F6D3A20696E6974206F662065657072D5
:104E32006F6D206F626A6563742066696E6973685C
:104E42006564206174207374617274206F662065DA
:104E52006570726F6D2E0A00466F756E6420656D07
:104E620070747920454550524F4D2E004572726F35
:104E7200722077726974696E67206461746120744C
:104E82006F20656570726F6D2E20446174612064BD
:104E92006F6573206E6F742066697420696E206579
:104EA2006570726F6D2E0A00656570726F6D20728B
:104EB2006561642020616464726573732061667445
:104EC20065722077726974696E673A2025640A00F8
:104ED200656570726F6D20777269746520616464B4
:104EE2007265737320616674657220777269746982
:104EF2006E673A2025640A004D6F6465202861744C
:104F0200207365747570293A2025730A00536574FD
:104F120074696E67206D6F646520746F3A20257323
:104F22000A00417474616368696E6720696E746512
:104F32007272757074203020746F2070696E204414
:104F4200256420666F722065787465726E616C20CC
:104F5200636C6F636B2E0A00417474616368696EDF
:104F62006720696E74657272757074203120746F77
:104F72002070696E2044256420666F722065787403
:104F820065726E616C2072657365742E0A004672DA
:104F920061633A2025640A00456E64206F662053DF
:104FA2006574757028290A000A656570726F6D3A1A
:104FB2002077726974696E672073657474696E67AD
:104FC20073202825642062797465732920746F2008
:104FD200454550524F4D2E00656570726F6D3A20F7
:104FE2006572726F722077726974696E672064618C
:104FF200746120746F20656570726F6D2E2044613C
:10500200746120646F6573206E6F7420666974200A
:10501200696E20656570726F6D2E0A00656570722B
:105022006F6D3A20726561642020616464726573F9
:10503200732061667465722077726974696E673A6B
:105042002025640A00656570726F6D3A2077726977
:10505200746520616464726573732061667465723D
:105062002077726974696E673A2025640A00656563
:1050720070726F6D3A20646576696365206D6F6446
:08508200653A2025730A0000C5
:00000001FF
